{
  "_format": "hh-sol-artifact-1",
  "contractName": "StrainzNFT",
  "sourceName": "contracts/StrainzNFT/StrainzNFT.sol",
  "abi": [
    {
      "inputs": [
        {
          "internalType": "contract StrainzToken",
          "name": "_strainz",
          "type": "address"
        },
        {
          "internalType": "contract SeedzToken",
          "name": "_seedz",
          "type": "address"
        },
        {
          "internalType": "contract StrainzAccessory",
          "name": "_accessory",
          "type": "address"
        }
      ],
      "stateMutability": "nonpayable",
      "type": "constructor"
    },
    {
      "anonymous": false,
      "inputs": [
        {
          "indexed": true,
          "internalType": "address",
          "name": "owner",
          "type": "address"
        },
        {
          "indexed": true,
          "internalType": "address",
          "name": "approved",
          "type": "address"
        },
        {
          "indexed": true,
          "internalType": "uint256",
          "name": "tokenId",
          "type": "uint256"
        }
      ],
      "name": "Approval",
      "type": "event"
    },
    {
      "anonymous": false,
      "inputs": [
        {
          "indexed": true,
          "internalType": "address",
          "name": "owner",
          "type": "address"
        },
        {
          "indexed": true,
          "internalType": "address",
          "name": "operator",
          "type": "address"
        },
        {
          "indexed": false,
          "internalType": "bool",
          "name": "approved",
          "type": "bool"
        }
      ],
      "name": "ApprovalForAll",
      "type": "event"
    },
    {
      "anonymous": false,
      "inputs": [
        {
          "indexed": false,
          "internalType": "uint256",
          "name": "parent1",
          "type": "uint256"
        },
        {
          "indexed": false,
          "internalType": "uint256",
          "name": "parent2",
          "type": "uint256"
        },
        {
          "indexed": false,
          "internalType": "uint256",
          "name": "child",
          "type": "uint256"
        }
      ],
      "name": "Breed",
      "type": "event"
    },
    {
      "anonymous": false,
      "inputs": [
        {
          "indexed": false,
          "internalType": "uint256",
          "name": "tokenId",
          "type": "uint256"
        }
      ],
      "name": "Composted",
      "type": "event"
    },
    {
      "anonymous": false,
      "inputs": [
        {
          "indexed": false,
          "internalType": "uint256",
          "name": "tokenId",
          "type": "uint256"
        }
      ],
      "name": "Minted",
      "type": "event"
    },
    {
      "anonymous": false,
      "inputs": [
        {
          "indexed": true,
          "internalType": "address",
          "name": "previousOwner",
          "type": "address"
        },
        {
          "indexed": true,
          "internalType": "address",
          "name": "newOwner",
          "type": "address"
        }
      ],
      "name": "OwnershipTransferred",
      "type": "event"
    },
    {
      "anonymous": false,
      "inputs": [
        {
          "indexed": false,
          "internalType": "uint256",
          "name": "tokenId",
          "type": "uint256"
        }
      ],
      "name": "StrainModified",
      "type": "event"
    },
    {
      "anonymous": false,
      "inputs": [
        {
          "indexed": true,
          "internalType": "address",
          "name": "from",
          "type": "address"
        },
        {
          "indexed": true,
          "internalType": "address",
          "name": "to",
          "type": "address"
        },
        {
          "indexed": true,
          "internalType": "uint256",
          "name": "tokenId",
          "type": "uint256"
        }
      ],
      "name": "Transfer",
      "type": "event"
    },
    {
      "inputs": [],
      "name": "accessory",
      "outputs": [
        {
          "internalType": "contract StrainzAccessory",
          "name": "",
          "type": "address"
        }
      ],
      "stateMutability": "view",
      "type": "function"
    },
    {
      "inputs": [
        {
          "internalType": "address",
          "name": "to",
          "type": "address"
        },
        {
          "internalType": "uint256",
          "name": "tokenId",
          "type": "uint256"
        }
      ],
      "name": "approve",
      "outputs": [],
      "stateMutability": "nonpayable",
      "type": "function"
    },
    {
      "inputs": [
        {
          "internalType": "address",
          "name": "owner",
          "type": "address"
        }
      ],
      "name": "balanceOf",
      "outputs": [
        {
          "internalType": "uint256",
          "name": "",
          "type": "uint256"
        }
      ],
      "stateMutability": "view",
      "type": "function"
    },
    {
      "inputs": [
        {
          "internalType": "uint256",
          "name": "_first",
          "type": "uint256"
        },
        {
          "internalType": "uint256",
          "name": "_second",
          "type": "uint256"
        },
        {
          "internalType": "bool",
          "name": "breedFertilizer",
          "type": "bool"
        }
      ],
      "name": "breed",
      "outputs": [],
      "stateMutability": "nonpayable",
      "type": "function"
    },
    {
      "inputs": [],
      "name": "breedFertilizerCost",
      "outputs": [
        {
          "internalType": "uint256",
          "name": "",
          "type": "uint256"
        }
      ],
      "stateMutability": "view",
      "type": "function"
    },
    {
      "inputs": [],
      "name": "breedPercent",
      "outputs": [
        {
          "internalType": "uint256",
          "name": "",
          "type": "uint256"
        }
      ],
      "stateMutability": "view",
      "type": "function"
    },
    {
      "inputs": [],
      "name": "breedingCostFactor",
      "outputs": [
        {
          "internalType": "uint256",
          "name": "",
          "type": "uint256"
        }
      ],
      "stateMutability": "view",
      "type": "function"
    },
    {
      "inputs": [
        {
          "internalType": "uint256",
          "name": "tokenId",
          "type": "uint256"
        },
        {
          "internalType": "uint256",
          "name": "red",
          "type": "uint256"
        },
        {
          "internalType": "uint256",
          "name": "green",
          "type": "uint256"
        },
        {
          "internalType": "uint256",
          "name": "blue",
          "type": "uint256"
        }
      ],
      "name": "changeColor",
      "outputs": [],
      "stateMutability": "nonpayable",
      "type": "function"
    },
    {
      "inputs": [
        {
          "internalType": "uint256",
          "name": "tokenId",
          "type": "uint256"
        },
        {
          "internalType": "string",
          "name": "prefix",
          "type": "string"
        },
        {
          "internalType": "string",
          "name": "postfix",
          "type": "string"
        }
      ],
      "name": "changeName",
      "outputs": [],
      "stateMutability": "nonpayable",
      "type": "function"
    },
    {
      "inputs": [
        {
          "internalType": "uint256",
          "name": "value",
          "type": "uint256"
        },
        {
          "internalType": "uint256",
          "name": "min",
          "type": "uint256"
        },
        {
          "internalType": "uint256",
          "name": "max",
          "type": "uint256"
        }
      ],
      "name": "clamp",
      "outputs": [
        {
          "internalType": "uint256",
          "name": "",
          "type": "uint256"
        }
      ],
      "stateMutability": "pure",
      "type": "function"
    },
    {
      "inputs": [],
      "name": "colorCost",
      "outputs": [
        {
          "internalType": "uint256",
          "name": "",
          "type": "uint256"
        }
      ],
      "stateMutability": "view",
      "type": "function"
    },
    {
      "inputs": [
        {
          "internalType": "uint256",
          "name": "strainId",
          "type": "uint256"
        }
      ],
      "name": "compost",
      "outputs": [],
      "stateMutability": "nonpayable",
      "type": "function"
    },
    {
      "inputs": [],
      "name": "compostFactor",
      "outputs": [
        {
          "internalType": "uint256",
          "name": "",
          "type": "uint256"
        }
      ],
      "stateMutability": "view",
      "type": "function"
    },
    {
      "inputs": [
        {
          "internalType": "uint256",
          "name": "tokenId",
          "type": "uint256"
        }
      ],
      "name": "getApproved",
      "outputs": [
        {
          "internalType": "address",
          "name": "",
          "type": "address"
        }
      ],
      "stateMutability": "view",
      "type": "function"
    },
    {
      "inputs": [
        {
          "internalType": "uint256",
          "name": "dna",
          "type": "uint256"
        }
      ],
      "name": "getBlueGene",
      "outputs": [
        {
          "internalType": "uint256",
          "name": "",
          "type": "uint256"
        }
      ],
      "stateMutability": "pure",
      "type": "function"
    },
    {
      "inputs": [
        {
          "internalType": "uint256",
          "name": "plantId",
          "type": "uint256"
        }
      ],
      "name": "getCurrentGrowRateForPlant",
      "outputs": [
        {
          "internalType": "uint256",
          "name": "",
          "type": "uint256"
        }
      ],
      "stateMutability": "view",
      "type": "function"
    },
    {
      "inputs": [
        {
          "internalType": "uint256",
          "name": "dna",
          "type": "uint256"
        },
        {
          "internalType": "uint256",
          "name": "n",
          "type": "uint256"
        }
      ],
      "name": "getGene",
      "outputs": [
        {
          "internalType": "uint256",
          "name": "",
          "type": "uint256"
        }
      ],
      "stateMutability": "pure",
      "type": "function"
    },
    {
      "inputs": [
        {
          "internalType": "uint256",
          "name": "dna",
          "type": "uint256"
        }
      ],
      "name": "getGreenGene",
      "outputs": [
        {
          "internalType": "uint256",
          "name": "",
          "type": "uint256"
        }
      ],
      "stateMutability": "pure",
      "type": "function"
    },
    {
      "inputs": [
        {
          "internalType": "uint256",
          "name": "dna",
          "type": "uint256"
        }
      ],
      "name": "getRedGene",
      "outputs": [
        {
          "internalType": "uint256",
          "name": "",
          "type": "uint256"
        }
      ],
      "stateMutability": "pure",
      "type": "function"
    },
    {
      "inputs": [
        {
          "internalType": "uint256",
          "name": "tokenId",
          "type": "uint256"
        }
      ],
      "name": "getWateringCost",
      "outputs": [
        {
          "internalType": "uint256",
          "name": "",
          "type": "uint256"
        }
      ],
      "stateMutability": "view",
      "type": "function"
    },
    {
      "inputs": [],
      "name": "growFactor",
      "outputs": [
        {
          "internalType": "uint256",
          "name": "",
          "type": "uint256"
        }
      ],
      "stateMutability": "view",
      "type": "function"
    },
    {
      "inputs": [],
      "name": "harvestAndWaterAll",
      "outputs": [],
      "stateMutability": "nonpayable",
      "type": "function"
    },
    {
      "inputs": [
        {
          "internalType": "uint256",
          "name": "tokenId",
          "type": "uint256"
        }
      ],
      "name": "harvestableAmount",
      "outputs": [
        {
          "internalType": "uint256",
          "name": "",
          "type": "uint256"
        }
      ],
      "stateMutability": "view",
      "type": "function"
    },
    {
      "inputs": [
        {
          "internalType": "address",
          "name": "owner",
          "type": "address"
        },
        {
          "internalType": "address",
          "name": "operator",
          "type": "address"
        }
      ],
      "name": "isApprovedForAll",
      "outputs": [
        {
          "internalType": "bool",
          "name": "",
          "type": "bool"
        }
      ],
      "stateMutability": "view",
      "type": "function"
    },
    {
      "inputs": [
        {
          "internalType": "address",
          "name": "user",
          "type": "address"
        },
        {
          "internalType": "contract IStrainzNFTV2",
          "name": "nftV2",
          "type": "address"
        },
        {
          "internalType": "contract IAccessoryV2",
          "name": "accessoryV2",
          "type": "address"
        }
      ],
      "name": "migrate",
      "outputs": [],
      "stateMutability": "nonpayable",
      "type": "function"
    },
    {
      "inputs": [],
      "name": "migrator",
      "outputs": [
        {
          "internalType": "address",
          "name": "",
          "type": "address"
        }
      ],
      "stateMutability": "view",
      "type": "function"
    },
    {
      "inputs": [
        {
          "internalType": "address",
          "name": "receiver",
          "type": "address"
        },
        {
          "internalType": "string",
          "name": "prefix",
          "type": "string"
        },
        {
          "internalType": "string",
          "name": "postfix",
          "type": "string"
        },
        {
          "internalType": "uint256",
          "name": "dna",
          "type": "uint256"
        }
      ],
      "name": "mintPromotion",
      "outputs": [],
      "stateMutability": "nonpayable",
      "type": "function"
    },
    {
      "inputs": [
        {
          "internalType": "address",
          "name": "receiver",
          "type": "address"
        },
        {
          "internalType": "string",
          "name": "prefix",
          "type": "string"
        },
        {
          "internalType": "string",
          "name": "postfix",
          "type": "string"
        },
        {
          "internalType": "uint256",
          "name": "dna",
          "type": "uint256"
        },
        {
          "internalType": "uint256",
          "name": "generation",
          "type": "uint256"
        },
        {
          "internalType": "uint256",
          "name": "growRate",
          "type": "uint256"
        }
      ],
      "name": "mintTo",
      "outputs": [
        {
          "internalType": "uint256",
          "name": "",
          "type": "uint256"
        }
      ],
      "stateMutability": "nonpayable",
      "type": "function"
    },
    {
      "inputs": [
        {
          "internalType": "uint256",
          "name": "dna1",
          "type": "uint256"
        },
        {
          "internalType": "uint256",
          "name": "dna2",
          "type": "uint256"
        }
      ],
      "name": "mixDNA",
      "outputs": [
        {
          "internalType": "uint256",
          "name": "",
          "type": "uint256"
        }
      ],
      "stateMutability": "view",
      "type": "function"
    },
    {
      "inputs": [],
      "name": "name",
      "outputs": [
        {
          "internalType": "string",
          "name": "",
          "type": "string"
        }
      ],
      "stateMutability": "view",
      "type": "function"
    },
    {
      "inputs": [],
      "name": "nameCost",
      "outputs": [
        {
          "internalType": "uint256",
          "name": "",
          "type": "uint256"
        }
      ],
      "stateMutability": "view",
      "type": "function"
    },
    {
      "inputs": [],
      "name": "owner",
      "outputs": [
        {
          "internalType": "address",
          "name": "",
          "type": "address"
        }
      ],
      "stateMutability": "view",
      "type": "function"
    },
    {
      "inputs": [
        {
          "internalType": "uint256",
          "name": "tokenId",
          "type": "uint256"
        }
      ],
      "name": "ownerOf",
      "outputs": [
        {
          "internalType": "address",
          "name": "",
          "type": "address"
        }
      ],
      "stateMutability": "view",
      "type": "function"
    },
    {
      "inputs": [],
      "name": "renounceOwnership",
      "outputs": [],
      "stateMutability": "nonpayable",
      "type": "function"
    },
    {
      "inputs": [
        {
          "internalType": "address",
          "name": "from",
          "type": "address"
        },
        {
          "internalType": "address",
          "name": "to",
          "type": "address"
        },
        {
          "internalType": "uint256",
          "name": "tokenId",
          "type": "uint256"
        }
      ],
      "name": "safeTransferFrom",
      "outputs": [],
      "stateMutability": "nonpayable",
      "type": "function"
    },
    {
      "inputs": [
        {
          "internalType": "address",
          "name": "from",
          "type": "address"
        },
        {
          "internalType": "address",
          "name": "to",
          "type": "address"
        },
        {
          "internalType": "uint256",
          "name": "tokenId",
          "type": "uint256"
        },
        {
          "internalType": "bytes",
          "name": "_data",
          "type": "bytes"
        }
      ],
      "name": "safeTransferFrom",
      "outputs": [],
      "stateMutability": "nonpayable",
      "type": "function"
    },
    {
      "inputs": [],
      "name": "seedzToken",
      "outputs": [
        {
          "internalType": "contract SeedzToken",
          "name": "",
          "type": "address"
        }
      ],
      "stateMutability": "view",
      "type": "function"
    },
    {
      "inputs": [
        {
          "internalType": "address",
          "name": "operator",
          "type": "address"
        },
        {
          "internalType": "bool",
          "name": "approved",
          "type": "bool"
        }
      ],
      "name": "setApprovalForAll",
      "outputs": [],
      "stateMutability": "nonpayable",
      "type": "function"
    },
    {
      "inputs": [
        {
          "internalType": "uint256",
          "name": "newBreedFertilizerCost",
          "type": "uint256"
        }
      ],
      "name": "setBreedFertilizerCost",
      "outputs": [],
      "stateMutability": "nonpayable",
      "type": "function"
    },
    {
      "inputs": [
        {
          "internalType": "uint256",
          "name": "newPercent",
          "type": "uint256"
        }
      ],
      "name": "setBreedPercent",
      "outputs": [],
      "stateMutability": "nonpayable",
      "type": "function"
    },
    {
      "inputs": [
        {
          "internalType": "uint256",
          "name": "newBreedingCostFactor",
          "type": "uint256"
        }
      ],
      "name": "setBreedingCostFactor",
      "outputs": [],
      "stateMutability": "nonpayable",
      "type": "function"
    },
    {
      "inputs": [
        {
          "internalType": "uint256",
          "name": "newCost",
          "type": "uint256"
        }
      ],
      "name": "setColorCost",
      "outputs": [],
      "stateMutability": "nonpayable",
      "type": "function"
    },
    {
      "inputs": [
        {
          "internalType": "uint256",
          "name": "newCompostFactor",
          "type": "uint256"
        }
      ],
      "name": "setCompostFactor",
      "outputs": [],
      "stateMutability": "nonpayable",
      "type": "function"
    },
    {
      "inputs": [
        {
          "internalType": "uint256",
          "name": "newGrowFactor",
          "type": "uint256"
        }
      ],
      "name": "setGrowFactor",
      "outputs": [],
      "stateMutability": "nonpayable",
      "type": "function"
    },
    {
      "inputs": [
        {
          "internalType": "address",
          "name": "_migrator",
          "type": "address"
        }
      ],
      "name": "setMigrator",
      "outputs": [],
      "stateMutability": "nonpayable",
      "type": "function"
    },
    {
      "inputs": [
        {
          "internalType": "uint256",
          "name": "newCost",
          "type": "uint256"
        }
      ],
      "name": "setNameCost",
      "outputs": [],
      "stateMutability": "nonpayable",
      "type": "function"
    },
    {
      "inputs": [
        {
          "internalType": "uint256",
          "name": "",
          "type": "uint256"
        }
      ],
      "name": "strainData",
      "outputs": [
        {
          "internalType": "uint256",
          "name": "id",
          "type": "uint256"
        },
        {
          "internalType": "string",
          "name": "prefix",
          "type": "string"
        },
        {
          "internalType": "string",
          "name": "postfix",
          "type": "string"
        },
        {
          "internalType": "uint256",
          "name": "dna",
          "type": "uint256"
        },
        {
          "internalType": "uint256",
          "name": "generation",
          "type": "uint256"
        },
        {
          "internalType": "uint256",
          "name": "growRate",
          "type": "uint256"
        },
        {
          "internalType": "uint256",
          "name": "lastHarvest",
          "type": "uint256"
        },
        {
          "internalType": "uint256",
          "name": "breedingCost",
          "type": "uint256"
        }
      ],
      "stateMutability": "view",
      "type": "function"
    },
    {
      "inputs": [],
      "name": "strainzToken",
      "outputs": [
        {
          "internalType": "contract StrainzToken",
          "name": "",
          "type": "address"
        }
      ],
      "stateMutability": "view",
      "type": "function"
    },
    {
      "inputs": [
        {
          "internalType": "bytes4",
          "name": "interfaceId",
          "type": "bytes4"
        }
      ],
      "name": "supportsInterface",
      "outputs": [
        {
          "internalType": "bool",
          "name": "",
          "type": "bool"
        }
      ],
      "stateMutability": "view",
      "type": "function"
    },
    {
      "inputs": [],
      "name": "symbol",
      "outputs": [
        {
          "internalType": "string",
          "name": "",
          "type": "string"
        }
      ],
      "stateMutability": "view",
      "type": "function"
    },
    {
      "inputs": [
        {
          "internalType": "uint256",
          "name": "index",
          "type": "uint256"
        }
      ],
      "name": "tokenByIndex",
      "outputs": [
        {
          "internalType": "uint256",
          "name": "",
          "type": "uint256"
        }
      ],
      "stateMutability": "view",
      "type": "function"
    },
    {
      "inputs": [],
      "name": "tokenCount",
      "outputs": [
        {
          "internalType": "uint256",
          "name": "",
          "type": "uint256"
        }
      ],
      "stateMutability": "view",
      "type": "function"
    },
    {
      "inputs": [
        {
          "internalType": "address",
          "name": "owner",
          "type": "address"
        },
        {
          "internalType": "uint256",
          "name": "index",
          "type": "uint256"
        }
      ],
      "name": "tokenOfOwnerByIndex",
      "outputs": [
        {
          "internalType": "uint256",
          "name": "",
          "type": "uint256"
        }
      ],
      "stateMutability": "view",
      "type": "function"
    },
    {
      "inputs": [
        {
          "internalType": "uint256",
          "name": "tokenId",
          "type": "uint256"
        }
      ],
      "name": "tokenURI",
      "outputs": [
        {
          "internalType": "string",
          "name": "",
          "type": "string"
        }
      ],
      "stateMutability": "view",
      "type": "function"
    },
    {
      "inputs": [],
      "name": "totalSupply",
      "outputs": [
        {
          "internalType": "uint256",
          "name": "",
          "type": "uint256"
        }
      ],
      "stateMutability": "view",
      "type": "function"
    },
    {
      "inputs": [
        {
          "internalType": "address",
          "name": "from",
          "type": "address"
        },
        {
          "internalType": "address",
          "name": "to",
          "type": "address"
        },
        {
          "internalType": "uint256",
          "name": "tokenId",
          "type": "uint256"
        }
      ],
      "name": "transferFrom",
      "outputs": [],
      "stateMutability": "nonpayable",
      "type": "function"
    },
    {
      "inputs": [
        {
          "internalType": "address",
          "name": "newOwner",
          "type": "address"
        }
      ],
      "name": "transferOwnership",
      "outputs": [],
      "stateMutability": "nonpayable",
      "type": "function"
    },
    {
      "inputs": [],
      "name": "wateringPenaltyPerDay",
      "outputs": [
        {
          "internalType": "uint256",
          "name": "",
          "type": "uint256"
        }
      ],
      "stateMutability": "view",
      "type": "function"
    }
  ],
  "bytecode": "0x6080604052600a600c556331160fc4600d55600a600e556014600f55683635c9adc5dea000006010556019601155603260125560646013553480156200004457600080fd5b506040516200492438038062004924833981016040819052620000679162000225565b6040518060400160405280600781526020016629ba3930b4b73d60c91b8152506040518060400160405280600781526020016629aa2920a4a72d60c91b8152508160009080519060200190620000bf9291906200017f565b508051620000d59060019060208401906200017f565b5050506000620000ea6200017b60201b60201c565b600a80546001600160a01b0319166001600160a01b038316908117909155604051919250906000907f8be0079c531659141344cd1fd0a4f28419497f9722a3daafe3b4186f6b6457e0908290a350601680546001600160a01b039485166001600160a01b031991821617909155601780549385169382169390931790925560188054919093169116179055620002ce565b3390565b8280546200018d9062000278565b90600052602060002090601f016020900481019282620001b15760008555620001fc565b82601f10620001cc57805160ff1916838001178555620001fc565b82800160010185558215620001fc579182015b82811115620001fc578251825591602001919060010190620001df565b506200020a9291506200020e565b5090565b5b808211156200020a57600081556001016200020f565b6000806000606084860312156200023a578283fd5b83516200024781620002b5565b60208501519093506200025a81620002b5565b60408501519092506200026d81620002b5565b809150509250925092565b6002810460018216806200028d57607f821691505b60208210811415620002af57634e487b7160e01b600052602260045260246000fd5b50919050565b6001600160a01b0381168114620002cb57600080fd5b50565b61464680620002de6000396000f3fe608060405234801561001057600080fd5b506004361061038e5760003560e01c806363bd53bd116101de578063a7db76591161010f578063e14285bb116100ad578063eeaf254c1161007c578063eeaf254c14610792578063f2fde38b146107a5578063fb3576fa146107b8578063fe43e58d146107c15761038e565b8063e14285bb1461071d578063e1bb725714610744578063e37b1be01461074d578063e985e9c5146107565761038e565b8063bdf30d8f116100e9578063bdf30d8f146106dc578063c87b56dd146106ef578063c9d658f014610702578063df9eaecb146107155761038e565b8063a7db7659146106a3578063b2b9b7c0146106b6578063b88d4fde146106c95761038e565b8063824bcb271161017c5780639e422447116101565780639e422447146106625780639f181b5e14610675578063a22cb4651461067d578063a2f6031f146106905761038e565b8063824bcb27146106365780638da5cb5b1461064957806395d89b411461065a5761038e565b806370a08231116101b857806370a08231146105f5578063714cb50f14610608578063715018a61461061b5780637cd07e47146106235761038e565b806363bd53bd146105c6578063663a2d6d146105cf5780636cf683da146105e25761038e565b806323cf3118116102c357806342842e0e1161026157806355cc86271161023057806355cc86271461057a5780635b6988cb1461058d578063629b7d73146105a05780636352211e146105b35761038e565b806342842e0e146105385780634f6ccce71461054b5780634fce93351461055e57806354314d7c146105675761038e565b80632f745c591161029d5780632f745c59146104ec5780633538339f146104ff5780633ba66b9d14610512578063410b49d4146105255761038e565b806323cf3118146104bd5780632883cc1f146104d05780632a8757bf146104e35761038e565b80631424494d1161033057806319066bcd1161030a57806319066bcd1461047157806320603fed1461048457806322fcdcf71461049757806323b872dd146104aa5761038e565b80631424494d1461044357806316ed2ec01461045657806318160ddd146104695761038e565b806306fdde031161036c57806306fdde03146103e5578063081812fc146103fa578063095ea7b314610425578063130223941461043a5761038e565b806301ffc9a714610393578063037e3725146103bb57806304976ba6146103d2575b600080fd5b6103a66103a1366004613f5a565b6107d4565b60405190151581526020015b60405180910390f35b6103c4600d5481565b6040519081526020016103b2565b6103c46103e0366004613f92565b61081a565b6103ed610894565b6040516103b2919061428b565b61040d610408366004613f92565b610926565b6040516001600160a01b0390911681526020016103b2565b610438610433366004613f2f565b6109c0565b005b6103c4600f5481565b610438610451366004613f92565b610af2565b610438610464366004613f92565b610c82565b6008546103c4565b61043861047f366004613f92565b610ccf565b6103c4610492366004613f92565b610d1c565b6104386104a53660046140f5565b610df0565b6104386104b8366004613cea565b61107f565b6104386104cb366004613c96565b611106565b6104386104de366004613f92565b611170565b6103c460105481565b6103c46104fa366004613f2f565b6111bd565b6103c461050d366004613f92565b611268565b610438610520366004613fc2565b611276565b610438610533366004613e25565b6113c8565b610438610546366004613cea565b611427565b6103c4610559366004613f92565b611442565b6103c460125481565b6103c4610575366004613f92565b6114f4565b60175461040d906001600160a01b031681565b61043861059b366004613f92565b611524565b6103c46105ae3660046140d4565b611571565b61040d6105c1366004613f92565b6115a6565b6103c460115481565b6104386105dd366004613f92565b611631565b6103c46105f03660046140d4565b61167e565b6103c4610603366004613c96565b6119a1565b6103c4610616366004613f92565b611a3b565b610438611bdf565b60155461040d906001600160a01b031681565b610438610644366004614154565b611c71565b600a546001600160a01b031661040d565b6103ed611d92565b6103c4610670366004614129565b611da1565b6103c4611dc6565b61043861068b366004613da7565b611dd6565b6103c461069e366004613f92565b611ea8565b6104386106b1366004613f92565b611ec6565b6103c46106c4366004613ea0565b611f13565b6104386106d7366004613d2a565b612043565b60185461040d906001600160a01b031681565b6103ed6106fd366004613f92565b6120d1565b610438610710366004613ddb565b6121b9565b6104386125f6565b61073061072b366004613f92565b612708565b6040516103b298979695949392919061429e565b6103c4600c5481565b6103c460135481565b6103a6610764366004613cb2565b6001600160a01b03918216600090815260056020908152604080832093909416825291909152205460ff1690565b6104386107a0366004613f92565b612859565b6104386107b3366004613c96565b6128a6565b6103c4600e5481565b60165461040d906001600160a01b031681565b60006001600160e01b031982167f780e9d630000000000000000000000000000000000000000000000000000000014806108125750610812826129c6565b90505b919050565b6000818152601460205260408120600681015482906108469061083d90426144b0565b620bdd80612a61565b905061088c60016283d60083600c5486600501546108649190614491565b61086e9190614491565b6108789190614369565b846005015461088791906144b0565b612a79565b949350505050565b6060600080546108a3906144f3565b80601f01602080910402602001604051908101604052809291908181526020018280546108cf906144f3565b801561091c5780601f106108f15761010080835404028352916020019161091c565b820191906000526020600020905b8154815290600101906020018083116108ff57829003601f168201915b5050505050905090565b6000818152600260205260408120546001600160a01b03166109a45760405162461bcd60e51b815260206004820152602c60248201527f4552433732313a20617070726f76656420717565727920666f72206e6f6e657860448201526b34b9ba32b73a103a37b5b2b760a11b60648201526084015b60405180910390fd5b506000908152600460205260409020546001600160a01b031690565b60006109cb826115a6565b9050806001600160a01b0316836001600160a01b03161415610a555760405162461bcd60e51b815260206004820152602160248201527f4552433732313a20617070726f76616c20746f2063757272656e74206f776e6560448201527f7200000000000000000000000000000000000000000000000000000000000000606482015260840161099b565b336001600160a01b0382161480610a715750610a718133610764565b610ae35760405162461bcd60e51b815260206004820152603860248201527f4552433732313a20617070726f76652063616c6c6572206973206e6f74206f7760448201527f6e6572206e6f7220617070726f76656420666f7220616c6c0000000000000000606482015260840161099b565b610aed8383612a8a565b505050565b33610afc826115a6565b6001600160a01b031614610b0f57600080fd5b6000818152601460205260409081902060185491517f9d0cd89e0000000000000000000000000000000000000000000000000000000081526004810184905290916001600160a01b031690639d0cd89e90602401600060405180830381600087803b158015610b7d57600080fd5b505af1158015610b91573d6000803e3d6000fd5b50505050610b9e82612af8565b601754600e5460058301546001600160a01b03909216916340c10f1991339160649190610bd390670de0b6b3a7640000614491565b610bdd9190614491565b610be79190614369565b6040516001600160e01b031960e085901b1681526001600160a01b0390921660048301526024820152604401600060405180830381600087803b158015610c2d57600080fd5b505af1158015610c41573d6000803e3d6000fd5b505050507f30f6ee1c7b8eb7349c887acbbbd691fc92bd38eacc6341de20458431525e610c82604051610c7691815260200190565b60405180910390a15050565b600a546001600160a01b03163314610cca5760405162461bcd60e51b815260206004820181905260248201526000805160206145ce833981519152604482015260640161099b565b600e55565b600a546001600160a01b03163314610d175760405162461bcd60e51b815260206004820181905260248201526000805160206145ce833981519152604482015260640161099b565b601155565b600081815260146020526040812081610d348461081a565b90506000818360050154610d4891906144b0565b90506000610d58610603876115a6565b9050600160fa821115610d6d57506009610dcf565b60c8821115610d7e57506008610dcf565b6064821115610d8f57506007610dcf565b6032821115610da057506006610dcf565b6019821115610db157506005610dcf565b600a821115610dc257506003610dcf565b6005821115610dcf575060025b610dd98382614491565b610de590612710614491565b979650505050505050565b33610dfa846115a6565b6001600160a01b0316148015610e20575033610e15836115a6565b6001600160a01b0316145b610e2957600080fd5b6000838152601460205260408082208483529082206007808201549083015492939192600291610e5891614351565b610e629190614369565b6016549091506001600160a01b03166379cc679033610e8384612710614491565b6040516001600160e01b031960e085901b1681526001600160a01b0390921660048301526024820152604401600060405180830381600087803b158015610ec957600080fd5b505af1158015610edd573d6000803e3d6000fd5b505050506000600283600501548560050154610ef99190614351565b610f039190614369565b90506000610f118585612b9f565b905085156110305760808211610f2657600080fd5b6017546010546040517f79cc679000000000000000000000000000000000000000000000000000000000815233600482015260248101919091526001600160a01b03909116906379cc679090604401600060405180830381600087803b158015610f8f57600080fd5b505af1158015610fa3573d6000803e3d6000fd5b5050601854875487546040517f2b6d06a400000000000000000000000000000000000000000000000000000000815260048101929092526024820152604481018590526001600160a01b039091169250632b6d06a49150606401600060405180830381600087803b15801561101757600080fd5b505af115801561102b573d6000803e3d6000fd5b505050505b8454845460408051928352602083019190915281018290527f9ca383290f66cf05e07fed022366cb0e56f67485387cbc0a5911e8c6fc8045539060600160405180910390a15050505050505050565b6110893382612d83565b6110fb5760405162461bcd60e51b815260206004820152603160248201527f4552433732313a207472616e736665722063616c6c6572206973206e6f74206f60448201527f776e6572206e6f7220617070726f766564000000000000000000000000000000606482015260840161099b565b610aed838383612e76565b600a546001600160a01b0316331461114e5760405162461bcd60e51b815260206004820181905260248201526000805160206145ce833981519152604482015260640161099b565b601580546001600160a01b0319166001600160a01b0392909216919091179055565b600a546001600160a01b031633146111b85760405162461bcd60e51b815260206004820181905260248201526000805160206145ce833981519152604482015260640161099b565b601055565b60006111c8836119a1565b821061123c5760405162461bcd60e51b815260206004820152602b60248201527f455243373231456e756d657261626c653a206f776e657220696e646578206f7560448201527f74206f6620626f756e6473000000000000000000000000000000000000000000606482015260840161099b565b506001600160a01b03821660009081526006602090815260408083208484529091529020545b92915050565b60006108126103e883614549565b33611280866115a6565b6001600160a01b03161461129357600080fd5b82816001821180156112a6575060108211155b80156112b25750600181115b80156112bf575060108111155b6112c857600080fd5b6017546013546001600160a01b03909116906379cc67909033906112f490670de0b6b3a7640000614491565b6040516001600160e01b031960e085901b1681526001600160a01b0390921660048301526024820152604401600060405180830381600087803b15801561133a57600080fd5b505af115801561134e573d6000803e3d6000fd5b505050600088815260146020526040902061136e91506001018787613a92565b50600087815260146020526040902061138b906002018585613a92565b506040518781527f9271884e30d502aebfccb611c4b5a3c3b95a99fe763843e20253ce1890000d0c9060200160405180910390a150505050505050565b600a546001600160a01b031633146114105760405162461bcd60e51b815260206004820181905260248201526000805160206145ce833981519152604482015260640161099b565b61142084848484600060ff611f13565b5050505050565b610aed83838360405180602001604052806000815250612043565b600061144d60085490565b82106114c15760405162461bcd60e51b815260206004820152602c60248201527f455243373231456e756d657261626c653a20676c6f62616c20696e646578206f60448201527f7574206f6620626f756e64730000000000000000000000000000000000000000606482015260840161099b565b600882815481106114e257634e487b7160e01b600052603260045260246000fd5b90600052602060002001549050919050565b60006103e86115038184614549565b611510620f424085614549565b61151a91906144b0565b6108129190614369565b600a546001600160a01b0316331461156c5760405162461bcd60e51b815260206004820181905260248201526000805160206145ce833981519152604482015260640161099b565b600d55565b6000600a61158083600f6144b0565b61158b90600a6143c3565b6115959085614369565b61159f9190614549565b9392505050565b6000818152600260205260408120546001600160a01b0316806108125760405162461bcd60e51b815260206004820152602960248201527f4552433732313a206f776e657220717565727920666f72206e6f6e657869737460448201527f656e7420746f6b656e0000000000000000000000000000000000000000000000606482015260840161099b565b600a546001600160a01b031633146116795760405162461bcd60e51b815260206004820181905260248201526000805160206145ce833981519152604482015260640161099b565b600f55565b60008061168c61010061304e565b905060006040518061014001604052806007846116aa886000611571565b6116b58a6000611571565b6116bf9190614491565b6116c99190614491565b6116d39190614549565b6116de906001614351565b81526020016007846116f1886001611571565b6116fc8a6001611571565b6117069190614491565b6117109190614491565b61171a9190614549565b611725906001614351565b8152602001600684611738886002611571565b6117438a6002611571565b61174d9190614491565b6117579190614491565b6117619190614549565b61176c906001614351565b815260200160058461177f886003611571565b61178a8a6003611571565b6117949190614491565b61179e9190614491565b6117a89190614549565b6117b3906001614351565b8152602001600081526020016000815260200160008152602001610100846117da88611ea8565b6117e38a611ea8565b6117ed9190614491565b6117f79190614351565b6118019190614549565b815260200161010084611813886114f4565b61181c8a6114f4565b6118269190614491565b6118309190614351565b61183a9190614549565b81526020016101008461184c88611268565b6118558a611268565b61185f9190614491565b6118699190614351565b6118739190614549565b8152509050600061010082610120015161188d9190614549565b61010083015161189f906103e8614491565b60e08401516118b190620f4240614491565b60c08501516118c490633b9aca00614491565b60a08601516118d8906402540be400614491565b60808701516118ec9064174876e800614491565b60608801516119009064e8d4a51000614491565b6040890151611915906509184e72a000614491565b60208a015161192a90655af3107a4000614491565b8a5161193d9066038d7ea4c68000614491565b6119479190614351565b6119519190614351565b61195b9190614351565b6119659190614351565b61196f9190614351565b6119799190614351565b6119839190614351565b61198d9190614351565b6119979190614351565b9695505050505050565b60006001600160a01b038216611a1f5760405162461bcd60e51b815260206004820152602a60248201527f4552433732313a2062616c616e636520717565727920666f7220746865207a6560448201527f726f206164647265737300000000000000000000000000000000000000000000606482015260840161099b565b506001600160a01b031660009081526003602052604090205490565b600081815260146020526040812060068101548290611a5a90426144b0565b60175460068401546040517f02ca671d0000000000000000000000000000000000000000000000000000000081526004810188905260248101919091529192506000916001600160a01b03909116906302ca671d9060440160206040518083038186803b158015611aca57600080fd5b505afa158015611ade573d6000803e3d6000fd5b505050506040513d601f19601f82011682018060405250810190611b029190613faa565b6018546040517f5a22f03e00000000000000000000000000000000000000000000000000000000815260048101889052602481018590529192506000916001600160a01b0390911690635a22f03e9060440160206040518083038186803b158015611b6c57600080fd5b505afa158015611b80573d6000803e3d6000fd5b505050506040513d601f19601f82011682018060405250810190611ba49190613faa565b90506000611bb185613090565b9050611bbf82612710614491565b611bcb84612710614491565b611bd59083614351565b610de59190614351565b600a546001600160a01b03163314611c275760405162461bcd60e51b815260206004820181905260248201526000805160206145ce833981519152604482015260640161099b565b600a546040516000916001600160a01b0316907f8be0079c531659141344cd1fd0a4f28419497f9722a3daafe3b4186f6b6457e0908390a3600a80546001600160a01b0319169055565b33611c7b856115a6565b6001600160a01b031614611c8e57600080fd5b6017546012546001600160a01b03909116906379cc6790903390611cba90670de0b6b3a7640000614491565b6040516001600160e01b031960e085901b1681526001600160a01b0390921660048301526024820152604401600060405180830381600087803b158015611d0057600080fd5b505af1158015611d14573d6000803e3d6000fd5b50505060008581526014602052604081206003810154909250611d399086868661319d565b60008781526014602052604090819020600301829055519091507f9271884e30d502aebfccb611c4b5a3c3b95a99fe763843e20253ce1890000d0c90611d829088815260200190565b60405180910390a1505050505050565b6060600180546108a3906144f3565b6000828410611dbe57818411611db75783611db9565b815b61088c565b509092915050565b6000611dd1600b5490565b905090565b6001600160a01b038216331415611e2f5760405162461bcd60e51b815260206004820152601960248201527f4552433732313a20617070726f766520746f2063616c6c657200000000000000604482015260640161099b565b3360008181526005602090815260408083206001600160a01b0387168085529252909120805460ff1916841515179055906001600160a01b03167f17307eab39ab6107e8899845ad3d59bd9653f200f220920489ca2b5937696c3183604051611e9c911515815260200190565b60405180910390a35050565b6000620f4240611eb88184614549565b611510633b9aca0085614549565b600a546001600160a01b03163314611f0e5760405162461bcd60e51b815260206004820181905260248201526000805160206145ce833981519152604482015260640161099b565b601355565b6000611f23600b80546001019055565b6000611f2e600b5490565b9050611f3a88826131f8565b604051806101000160405280828152602001888152602001878152602001868152602001858152602001848152602001428152602001611f836064600f54876108879190614491565b90526000828152601460209081526040909120825181558282015180519192611fb492600185019290910190613b16565b5060408201518051611fd0916002840191602090910190613b16565b50606082015160038201556080820151600482015560a0820151600582015560c0820151600682015560e0909101516007909101556040518181527f176b02bb2d12439ff7a20b59f402cca16c76f50508b13ef3166a600eb719354a9060200160405180910390a1979650505050505050565b61204d3383612d83565b6120bf5760405162461bcd60e51b815260206004820152603160248201527f4552433732313a207472616e736665722063616c6c6572206973206e6f74206f60448201527f776e6572206e6f7220617070726f766564000000000000000000000000000000606482015260840161099b565b6120cb84848484613346565b50505050565b6000818152600260205260409020546060906001600160a01b031661215e5760405162461bcd60e51b815260206004820152602f60248201527f4552433732314d657461646174613a2055524920717565727920666f72206e6f60448201527f6e6578697374656e7420746f6b656e0000000000000000000000000000000000606482015260840161099b565b60006121686133cf565b90506000815111612188576040518060200160405280600081525061159f565b80612192846133ef565b6040516020016121a39291906141eb565b6040516020818303038152906040529392505050565b6015546001600160a01b031633146121d057600080fd5b6040517f70a082310000000000000000000000000000000000000000000000000000000081526001600160a01b03848116600483015260009161227291603291908616906370a082319060240160206040518083038186803b15801561223557600080fd5b505afa158015612249573d6000803e3d6000fd5b505050506040513d601f19601f8201168201806040525081019061226d9190613faa565b612a61565b905060008167ffffffffffffffff81111561229d57634e487b7160e01b600052604160045260246000fd5b6040519080825280602002602001820160405280156122c6578160200160208202803683370190505b50905060008267ffffffffffffffff8111156122f257634e487b7160e01b600052604160045260246000fd5b60405190808252806020026020018201604052801561231b578160200160208202803683370190505b50905060005b8381101561256e576040517f2f745c590000000000000000000000000000000000000000000000000000000081526001600160a01b03888116600483015260006024830152871690632f745c599060440160206040518083038186803b15801561238a57600080fd5b505afa15801561239e573d6000803e3d6000fd5b505050506040513d601f19601f820116820180604052508101906123c29190613faa565b8382815181106123e257634e487b7160e01b600052603260045260246000fd5b602002602001018181525050600061242184838151811061241357634e487b7160e01b600052603260045260246000fd5b60200260200101518861353e565b9050866001600160a01b03166323b872dd893087868151811061245457634e487b7160e01b600052603260045260246000fd5b60209081029190910101516040516001600160e01b031960e086901b1681526001600160a01b0393841660048201529290911660248301526044820152606401600060405180830381600087803b1580156124ae57600080fd5b505af11580156124c2573d6000803e3d6000fd5b505050506124e88882602001518360400151846060015185608001518660a00151611f13565b83838151811061250857634e487b7160e01b600052603260045260246000fd5b6020026020010181815250508060e001516014600085858151811061253d57634e487b7160e01b600052603260045260246000fd5b60200260200101518152602001908152602001600020600701819055505080806125669061452e565b915050612321565b506018546040517f477aceb10000000000000000000000000000000000000000000000000000000081526001600160a01b039091169063477aceb1906125bc9085908590899060040161424c565b600060405180830381600087803b1580156125d657600080fd5b505af11580156125ea573d6000803e3d6000fd5b50505050505050505050565b6000612601336119a1565b90506000811161261057600080fd5b6000805b828110156126865760006014600061262c33856111bd565b815260200190815260200160002090506126498160000154610d1c565b815461265490611a3b565b61265e91906144b0565b6126689084614351565b4260069092019190915591508061267e8161452e565b915050612614565b506016546040517f40c10f19000000000000000000000000000000000000000000000000000000008152336004820152602481018390526001600160a01b03909116906340c10f1990604401600060405180830381600087803b1580156126ec57600080fd5b505af1158015612700573d6000803e3d6000fd5b505050505050565b6014602052600090815260409020805460018201805491929161272a906144f3565b80601f0160208091040260200160405190810160405280929190818152602001828054612756906144f3565b80156127a35780601f10612778576101008083540402835291602001916127a3565b820191906000526020600020905b81548152906001019060200180831161278657829003601f168201915b5050505050908060020180546127b8906144f3565b80601f01602080910402602001604051908101604052809291908181526020018280546127e4906144f3565b80156128315780601f1061280657610100808354040283529160200191612831565b820191906000526020600020905b81548152906001019060200180831161281457829003601f168201915b5050505050908060030154908060040154908060050154908060060154908060070154905088565b600a546001600160a01b031633146128a15760405162461bcd60e51b815260206004820181905260248201526000805160206145ce833981519152604482015260640161099b565b601255565b600a546001600160a01b031633146128ee5760405162461bcd60e51b815260206004820181905260248201526000805160206145ce833981519152604482015260640161099b565b6001600160a01b03811661296a5760405162461bcd60e51b815260206004820152602660248201527f4f776e61626c653a206e6577206f776e657220697320746865207a65726f206160448201527f6464726573730000000000000000000000000000000000000000000000000000606482015260840161099b565b600a546040516001600160a01b038084169216907f8be0079c531659141344cd1fd0a4f28419497f9722a3daafe3b4186f6b6457e090600090a3600a80546001600160a01b0319166001600160a01b0392909216919091179055565b60006001600160e01b031982167f80ac58cd000000000000000000000000000000000000000000000000000000001480612a2957506001600160e01b031982167f5b5e139f00000000000000000000000000000000000000000000000000000000145b8061081257507f01ffc9a7000000000000000000000000000000000000000000000000000000006001600160e01b0319831614610812565b600081831015612a72575081611262565b5080611262565b600081831115612a72575081611262565b600081815260046020526040902080546001600160a01b0319166001600160a01b0384169081179091558190612abf826115a6565b6001600160a01b03167f8c5be1e5ebec7d5bd14f71427d1e84f3dd0314c0f7b2291e5b200ac8c7c3b92560405160405180910390a45050565b6000612b03826115a6565b9050612b1181600084613676565b612b1c600083612a8a565b6001600160a01b0381166000908152600360205260408120805460019290612b459084906144b0565b909155505060008281526002602052604080822080546001600160a01b0319169055518391906001600160a01b038416907fddf252ad1be2c89b69c2b068fc378daa952ba7f163c4a11628f55a4df523b3ef908390a45050565b600080612bb48460030154846003015461167e565b90506000612bca85600401548560040154612a79565b612bd5906001614351565b90506000612be4600243614549565b600f54600588015491159250612bf991614491565b8660070154612c089190614351565b6007870155600f546005860154612c1f9190614491565b8560070154612c2e9190614351565b60078601556119973382612c455786600101612c4a565b876001015b8054612c55906144f3565b80601f0160208091040260200160405190810160405280929190818152602001828054612c81906144f3565b8015612cce5780601f10612ca357610100808354040283529160200191612cce565b820191906000526020600020905b815481529060010190602001808311612cb157829003601f168201915b505050505083612ce15788600201612ce6565b876002015b8054612cf1906144f3565b80601f0160208091040260200160405190810160405280929190818152602001828054612d1d906144f3565b8015612d6a5780601f10612d3f57610100808354040283529160200191612d6a565b820191906000526020600020905b815481529060010190602001808311612d4d57829003601f168201915b505050505086866106c48c600501548c60050154613733565b6000818152600260205260408120546001600160a01b0316612dfc5760405162461bcd60e51b815260206004820152602c60248201527f4552433732313a206f70657261746f7220717565727920666f72206e6f6e657860448201526b34b9ba32b73a103a37b5b2b760a11b606482015260840161099b565b6000612e07836115a6565b9050806001600160a01b0316846001600160a01b03161480612e425750836001600160a01b0316612e3784610926565b6001600160a01b0316145b8061088c57506001600160a01b0380821660009081526005602090815260408083209388168352929052205460ff1661088c565b826001600160a01b0316612e89826115a6565b6001600160a01b031614612f055760405162461bcd60e51b815260206004820152602960248201527f4552433732313a207472616e73666572206f6620746f6b656e2074686174206960448201527f73206e6f74206f776e0000000000000000000000000000000000000000000000606482015260840161099b565b6001600160a01b038216612f805760405162461bcd60e51b8152602060048201526024808201527f4552433732313a207472616e7366657220746f20746865207a65726f2061646460448201527f7265737300000000000000000000000000000000000000000000000000000000606482015260840161099b565b612f8b838383613676565b612f96600082612a8a565b6001600160a01b0383166000908152600360205260408120805460019290612fbf9084906144b0565b90915550506001600160a01b0382166000908152600360205260408120805460019290612fed908490614351565b909155505060008181526002602052604080822080546001600160a01b0319166001600160a01b0386811691821790925591518493918716917fddf252ad1be2c89b69c2b068fc378daa952ba7f163c4a11628f55a4df523b3ef91a4505050565b600081444260405160200161306d929190918252602082015260400190565b6040516020818303038152906040528051906020012060001c6108129190614549565b6000806130a683600601544261083d91906144b0565b90506000600d5484600501546130bc9190614491565b6130c890612710614491565b90506000633b9aca006422c2ed0000846130e28186614491565b6130ec9190614491565b856130f8866014614491565b6131029190614491565b61310f9062015180614491565b61311991906144b0565b6131239190614369565b61312d9190614369565b90506000620bdd8086600601544261314591906144b0565b111561319357661eb208c2dc00008387600601544261316491906144b0565b61317190620bdd80614351565b61317b9190614491565b61318690600a614491565b6131909190614369565b90505b6119978183614351565b6000806131ac61010084614549565b6131b8856103e8614491565b6131c587620f4240614491565b6131cf9190614351565b6131d99190614351565b9050806131ea633b9aca0088614369565b61198d90633b9aca00614491565b6001600160a01b03821661324e5760405162461bcd60e51b815260206004820181905260248201527f4552433732313a206d696e7420746f20746865207a65726f2061646472657373604482015260640161099b565b6000818152600260205260409020546001600160a01b0316156132b35760405162461bcd60e51b815260206004820152601c60248201527f4552433732313a20746f6b656e20616c7265616479206d696e74656400000000604482015260640161099b565b6132bf60008383613676565b6001600160a01b03821660009081526003602052604081208054600192906132e8908490614351565b909155505060008181526002602052604080822080546001600160a01b0319166001600160a01b03861690811790915590518392907fddf252ad1be2c89b69c2b068fc378daa952ba7f163c4a11628f55a4df523b3ef908290a45050565b613351848484612e76565b61335d84848484613778565b6120cb5760405162461bcd60e51b815260206004820152603260248201527f4552433732313a207472616e7366657220746f206e6f6e20455243373231526560448201527f63656976657220696d706c656d656e7465720000000000000000000000000000606482015260840161099b565b60606040518060600160405280602381526020016145ee60239139905090565b606081613430575060408051808201909152600181527f30000000000000000000000000000000000000000000000000000000000000006020820152610815565b8160005b811561345a57806134448161452e565b91506134539050600a83614369565b9150613434565b60008167ffffffffffffffff81111561348357634e487b7160e01b600052604160045260246000fd5b6040519080825280601f01601f1916602001820160405280156134ad576020820181803683370190505b5090505b841561088c576134c26001836144b0565b91506134cf600a86614549565b6134da906030614351565b60f81b8183815181106134fd57634e487b7160e01b600052603260045260246000fd5b60200101907effffffffffffffffffffffffffffffffffffffffffffffffffffffffffffff1916908160001a905350613537600a86614369565b94506134b1565b61358660405180610100016040528060008152602001606081526020016060815260200160008152602001600081526020016000815260200160008152602001600081525090565b600080600080600080600080896001600160a01b031663e14285bb8c6040518263ffffffff1660e01b81526004016135c091815260200190565b60006040518083038186803b1580156135d857600080fd5b505afa1580156135ec573d6000803e3d6000fd5b505050506040513d6000823e601f3d908101601f191682016040526136149190810190614039565b97509750975097509750975097509750604051806101000160405280898152602001888152602001878152602001868152602001858152602001613659600186612a79565b815260208101939093526040909201529998505050505050505050565b6001600160a01b0383166136d1576136cc81600880546000838152600960205260408120829055600182018355919091527ff3f7a9fe364faab93b216da50a3214154f22a0a2b415b23a84c8169e8b636ee30155565b6136f4565b816001600160a01b0316836001600160a01b0316146136f4576136f483826138d8565b6001600160a01b0382166137105761370b81613975565b610aed565b826001600160a01b0316826001600160a01b031614610aed57610aed8282613a4e565b60008060026137428486614351565b61374c9190614369565b905061088c60016064601154606461376491906144b0565b61376e9085614491565b6108879190614369565b60006001600160a01b0384163b156138d057604051630a85bd0160e11b81526001600160a01b0385169063150b7a02906137bc90339089908890889060040161421a565b602060405180830381600087803b1580156137d657600080fd5b505af1925050508015613806575060408051601f3d908101601f1916820190925261380391810190613f76565b60015b6138b6573d808015613834576040519150601f19603f3d011682016040523d82523d6000602084013e613839565b606091505b5080516138ae5760405162461bcd60e51b815260206004820152603260248201527f4552433732313a207472616e7366657220746f206e6f6e20455243373231526560448201527f63656976657220696d706c656d656e7465720000000000000000000000000000606482015260840161099b565b805181602001fd5b6001600160e01b031916630a85bd0160e11b14905061088c565b50600161088c565b600060016138e5846119a1565b6138ef91906144b0565b600083815260076020526040902054909150808214613942576001600160a01b03841660009081526006602090815260408083208584528252808320548484528184208190558352600790915290208190555b5060009182526007602090815260408084208490556001600160a01b039094168352600681528383209183525290812055565b600854600090613987906001906144b0565b600083815260096020526040812054600880549394509092849081106139bd57634e487b7160e01b600052603260045260246000fd5b9060005260206000200154905080600883815481106139ec57634e487b7160e01b600052603260045260246000fd5b6000918252602080832090910192909255828152600990915260408082208490558582528120556008805480613a3257634e487b7160e01b600052603160045260246000fd5b6001900381819060005260206000200160009055905550505050565b6000613a59836119a1565b6001600160a01b039093166000908152600660209081526040808320868452825280832085905593825260079052919091209190915550565b828054613a9e906144f3565b90600052602060002090601f016020900481019282613ac05760008555613b06565b82601f10613ad95782800160ff19823516178555613b06565b82800160010185558215613b06579182015b82811115613b06578235825591602001919060010190613aeb565b50613b12929150613b8a565b5090565b828054613b22906144f3565b90600052602060002090601f016020900481019282613b445760008555613b06565b82601f10613b5d57805160ff1916838001178555613b06565b82800160010185558215613b06579182015b82811115613b06578251825591602001919060010190613b6f565b5b80821115613b125760008155600101613b8b565b6000613bb2613bad84614329565b6142f8565b9050828152838383011115613bc657600080fd5b828260208301376000602084830101529392505050565b8035801515811461081557600080fd5b60008083601f840112613bfe578182fd5b50813567ffffffffffffffff811115613c15578182fd5b602083019150836020828501011115613c2d57600080fd5b9250929050565b600082601f830112613c44578081fd5b61159f83833560208501613b9f565b600082601f830112613c63578081fd5b8151613c71613bad82614329565b818152846020838601011115613c85578283fd5b61088c8260208301602087016144c7565b600060208284031215613ca7578081fd5b813561159f8161459f565b60008060408385031215613cc4578081fd5b8235613ccf8161459f565b91506020830135613cdf8161459f565b809150509250929050565b600080600060608486031215613cfe578081fd5b8335613d098161459f565b92506020840135613d198161459f565b929592945050506040919091013590565b60008060008060808587031215613d3f578081fd5b8435613d4a8161459f565b93506020850135613d5a8161459f565b925060408501359150606085013567ffffffffffffffff811115613d7c578182fd5b8501601f81018713613d8c578182fd5b613d9b87823560208401613b9f565b91505092959194509250565b60008060408385031215613db9578182fd5b8235613dc48161459f565b9150613dd260208401613bdd565b90509250929050565b600080600060608486031215613def578283fd5b8335613dfa8161459f565b92506020840135613e0a8161459f565b91506040840135613e1a8161459f565b809150509250925092565b60008060008060808587031215613e3a578384fd5b8435613e458161459f565b9350602085013567ffffffffffffffff80821115613e61578485fd5b613e6d88838901613c34565b94506040870135915080821115613e82578384fd5b50613e8f87828801613c34565b949793965093946060013593505050565b60008060008060008060c08789031215613eb8578182fd5b8635613ec38161459f565b9550602087013567ffffffffffffffff80821115613edf578384fd5b613eeb8a838b01613c34565b96506040890135915080821115613f00578384fd5b50613f0d89828a01613c34565b945050606087013592506080870135915060a087013590509295509295509295565b60008060408385031215613f41578182fd5b8235613f4c8161459f565b946020939093013593505050565b600060208284031215613f6b578081fd5b813561159f816145b7565b600060208284031215613f87578081fd5b815161159f816145b7565b600060208284031215613fa3578081fd5b5035919050565b600060208284031215613fbb578081fd5b5051919050565b600080600080600060608688031215613fd9578283fd5b85359450602086013567ffffffffffffffff80821115613ff7578485fd5b61400389838a01613bed565b9096509450604088013591508082111561401b578283fd5b5061402888828901613bed565b969995985093965092949392505050565b600080600080600080600080610100898b031215614055578586fd5b88519750602089015167ffffffffffffffff80821115614073578788fd5b61407f8c838d01613c53565b985060408b0151915080821115614094578788fd5b506140a18b828c01613c53565b965050606089015194506080890151935060a0890151925060c0890151915060e089015190509295985092959890939650565b600080604083850312156140e6578182fd5b50508035926020909101359150565b600080600060608486031215614109578081fd5b833592506020840135915061412060408501613bdd565b90509250925092565b60008060006060848603121561413d578081fd5b505081359360208301359350604090920135919050565b60008060008060808587031215614169578182fd5b5050823594602084013594506040840135936060013592509050565b6000815180845260208085019450808401835b838110156141b457815187529582019590820190600101614198565b509495945050505050565b600081518084526141d78160208601602086016144c7565b601f01601f19169290920160200192915050565b600083516141fd8184602088016144c7565b8351908301906142118183602088016144c7565b01949350505050565b60006001600160a01b0380871683528086166020840152508360408301526080606083015261199760808301846141bf565b60006060825261425f6060830186614185565b82810360208401526142718186614185565b9150506001600160a01b0383166040830152949350505050565b60006020825261159f60208301846141bf565b60006101008a83528060208401526142b88184018b6141bf565b905082810360408401526142cc818a6141bf565b60608401989098525050608081019490945260a084019290925260c083015260e0909101529392505050565b604051601f8201601f1916810167ffffffffffffffff8111828210171561432157614321614589565b604052919050565b600067ffffffffffffffff82111561434357614343614589565b50601f01601f191660200190565b600082198211156143645761436461455d565b500190565b60008261437857614378614573565b500490565b80825b600180861161438f57506143ba565b8187048211156143a1576143a161455d565b808616156143ae57918102915b9490941c938002614380565b94509492505050565b600061159f60001984846000826143dc5750600161159f565b816143e95750600061159f565b81600181146143ff576002811461440957614436565b600191505061159f565b60ff84111561441a5761441a61455d565b6001841b9150848211156144305761443061455d565b5061159f565b5060208310610133831016604e8410600b8410161715614469575081810a838111156144645761446461455d565b61159f565b614476848484600161437d565b8086048211156144885761448861455d565b02949350505050565b60008160001904831182151516156144ab576144ab61455d565b500290565b6000828210156144c2576144c261455d565b500390565b60005b838110156144e25781810151838201526020016144ca565b838111156120cb5750506000910152565b60028104600182168061450757607f821691505b6020821081141561452857634e487b7160e01b600052602260045260246000fd5b50919050565b60006000198214156145425761454261455d565b5060010190565b60008261455857614558614573565b500690565b634e487b7160e01b600052601160045260246000fd5b634e487b7160e01b600052601260045260246000fd5b634e487b7160e01b600052604160045260246000fd5b6001600160a01b03811681146145b457600080fd5b50565b6001600160e01b0319811681146145b457600080fdfe4f776e61626c653a2063616c6c6572206973206e6f7420746865206f776e657268747470733a2f2f6170692e76332e73747261696e7a2e746563682f73747261696e2fa2646970667358221220b6f896b05e246f4d8867fc0336b24e01a73e945a68395fe47f73ede530752c2464736f6c63430008020033",
  "linkReferences": {},
  "deployedLinkReferences": {}
}