{
  "_format": "hh-sol-artifact-1",
  "contractName": "StrainzAccessory",
  "sourceName": "contracts/StrainzAccessory.sol",
  "abi": [
    {
      "inputs": [],
      "stateMutability": "nonpayable",
      "type": "constructor"
    },
    {
      "anonymous": false,
      "inputs": [
        {
          "indexed": false,
          "internalType": "uint256",
          "name": "accessoryId",
          "type": "uint256"
        },
        {
          "indexed": false,
          "internalType": "uint256",
          "name": "strainId",
          "type": "uint256"
        }
      ],
      "name": "AccessoryAttached",
      "type": "event"
    },
    {
      "anonymous": false,
      "inputs": [
        {
          "indexed": true,
          "internalType": "address",
          "name": "owner",
          "type": "address"
        },
        {
          "indexed": true,
          "internalType": "address",
          "name": "approved",
          "type": "address"
        },
        {
          "indexed": true,
          "internalType": "uint256",
          "name": "tokenId",
          "type": "uint256"
        }
      ],
      "name": "Approval",
      "type": "event"
    },
    {
      "anonymous": false,
      "inputs": [
        {
          "indexed": true,
          "internalType": "address",
          "name": "owner",
          "type": "address"
        },
        {
          "indexed": true,
          "internalType": "address",
          "name": "operator",
          "type": "address"
        },
        {
          "indexed": false,
          "internalType": "bool",
          "name": "approved",
          "type": "bool"
        }
      ],
      "name": "ApprovalForAll",
      "type": "event"
    },
    {
      "anonymous": false,
      "inputs": [
        {
          "indexed": true,
          "internalType": "address",
          "name": "previousOwner",
          "type": "address"
        },
        {
          "indexed": true,
          "internalType": "address",
          "name": "newOwner",
          "type": "address"
        }
      ],
      "name": "OwnershipTransferred",
      "type": "event"
    },
    {
      "anonymous": false,
      "inputs": [
        {
          "indexed": true,
          "internalType": "address",
          "name": "from",
          "type": "address"
        },
        {
          "indexed": true,
          "internalType": "address",
          "name": "to",
          "type": "address"
        },
        {
          "indexed": true,
          "internalType": "uint256",
          "name": "tokenId",
          "type": "uint256"
        }
      ],
      "name": "Transfer",
      "type": "event"
    },
    {
      "inputs": [
        {
          "internalType": "uint256",
          "name": "",
          "type": "uint256"
        },
        {
          "internalType": "uint256",
          "name": "",
          "type": "uint256"
        }
      ],
      "name": "accessoriesByStrainId",
      "outputs": [
        {
          "internalType": "uint256",
          "name": "",
          "type": "uint256"
        }
      ],
      "stateMutability": "view",
      "type": "function"
    },
    {
      "inputs": [
        {
          "internalType": "uint256",
          "name": "",
          "type": "uint256"
        }
      ],
      "name": "accessoryTypeByTokenId",
      "outputs": [
        {
          "internalType": "uint256",
          "name": "",
          "type": "uint256"
        }
      ],
      "stateMutability": "view",
      "type": "function"
    },
    {
      "inputs": [
        {
          "internalType": "uint256",
          "name": "",
          "type": "uint256"
        }
      ],
      "name": "allowed",
      "outputs": [
        {
          "internalType": "address",
          "name": "",
          "type": "address"
        }
      ],
      "stateMutability": "view",
      "type": "function"
    },
    {
      "inputs": [
        {
          "internalType": "address",
          "name": "to",
          "type": "address"
        },
        {
          "internalType": "uint256",
          "name": "tokenId",
          "type": "uint256"
        }
      ],
      "name": "approve",
      "outputs": [],
      "stateMutability": "nonpayable",
      "type": "function"
    },
    {
      "inputs": [
        {
          "internalType": "uint256",
          "name": "accessoryId",
          "type": "uint256"
        },
        {
          "internalType": "uint256",
          "name": "strainId",
          "type": "uint256"
        }
      ],
      "name": "attachAccessory",
      "outputs": [],
      "stateMutability": "nonpayable",
      "type": "function"
    },
    {
      "inputs": [
        {
          "internalType": "address",
          "name": "owner",
          "type": "address"
        }
      ],
      "name": "balanceOf",
      "outputs": [
        {
          "internalType": "uint256",
          "name": "",
          "type": "uint256"
        }
      ],
      "stateMutability": "view",
      "type": "function"
    },
    {
      "inputs": [
        {
          "internalType": "uint256",
          "name": "strain1Id",
          "type": "uint256"
        },
        {
          "internalType": "uint256",
          "name": "strain2Id",
          "type": "uint256"
        },
        {
          "internalType": "uint256",
          "name": "newStrainId",
          "type": "uint256"
        }
      ],
      "name": "breedAccessories",
      "outputs": [],
      "stateMutability": "nonpayable",
      "type": "function"
    },
    {
      "inputs": [
        {
          "internalType": "uint256",
          "name": "bonus",
          "type": "uint256"
        }
      ],
      "name": "createNewAccessory",
      "outputs": [],
      "stateMutability": "nonpayable",
      "type": "function"
    },
    {
      "inputs": [
        {
          "internalType": "uint256",
          "name": "strainId",
          "type": "uint256"
        }
      ],
      "name": "detachAll",
      "outputs": [],
      "stateMutability": "nonpayable",
      "type": "function"
    },
    {
      "inputs": [
        {
          "internalType": "uint256",
          "name": "strainId",
          "type": "uint256"
        }
      ],
      "name": "getAccessoriesByStrainId",
      "outputs": [
        {
          "internalType": "uint256[]",
          "name": "",
          "type": "uint256[]"
        }
      ],
      "stateMutability": "view",
      "type": "function"
    },
    {
      "inputs": [
        {
          "internalType": "uint256",
          "name": "tokenId",
          "type": "uint256"
        }
      ],
      "name": "getApproved",
      "outputs": [
        {
          "internalType": "address",
          "name": "",
          "type": "address"
        }
      ],
      "stateMutability": "view",
      "type": "function"
    },
    {
      "inputs": [
        {
          "internalType": "uint256",
          "name": "strainId",
          "type": "uint256"
        },
        {
          "internalType": "uint256",
          "name": "timeSinceLastHarvest",
          "type": "uint256"
        }
      ],
      "name": "getHarvestableAccessoryAmount",
      "outputs": [
        {
          "internalType": "uint256",
          "name": "",
          "type": "uint256"
        }
      ],
      "stateMutability": "view",
      "type": "function"
    },
    {
      "inputs": [
        {
          "internalType": "uint256",
          "name": "",
          "type": "uint256"
        }
      ],
      "name": "growBonusForType",
      "outputs": [
        {
          "internalType": "uint256",
          "name": "",
          "type": "uint256"
        }
      ],
      "stateMutability": "view",
      "type": "function"
    },
    {
      "inputs": [
        {
          "internalType": "address",
          "name": "owner",
          "type": "address"
        },
        {
          "internalType": "address",
          "name": "operator",
          "type": "address"
        }
      ],
      "name": "isApprovedForAll",
      "outputs": [
        {
          "internalType": "bool",
          "name": "",
          "type": "bool"
        }
      ],
      "stateMutability": "view",
      "type": "function"
    },
    {
      "inputs": [
        {
          "internalType": "address",
          "name": "user",
          "type": "address"
        },
        {
          "internalType": "contract IAccessoryV2",
          "name": "accessoryV2",
          "type": "address"
        }
      ],
      "name": "migrate",
      "outputs": [],
      "stateMutability": "nonpayable",
      "type": "function"
    },
    {
      "inputs": [
        {
          "internalType": "uint256[]",
          "name": "oldIds",
          "type": "uint256[]"
        },
        {
          "internalType": "uint256[]",
          "name": "newIds",
          "type": "uint256[]"
        },
        {
          "internalType": "contract IAccessoryV2",
          "name": "accessoryV2",
          "type": "address"
        }
      ],
      "name": "migrateMint",
      "outputs": [],
      "stateMutability": "nonpayable",
      "type": "function"
    },
    {
      "inputs": [],
      "name": "name",
      "outputs": [
        {
          "internalType": "string",
          "name": "",
          "type": "string"
        }
      ],
      "stateMutability": "view",
      "type": "function"
    },
    {
      "inputs": [
        {
          "internalType": "address",
          "name": "",
          "type": "address"
        },
        {
          "internalType": "address",
          "name": "",
          "type": "address"
        },
        {
          "internalType": "uint256",
          "name": "",
          "type": "uint256"
        },
        {
          "internalType": "bytes",
          "name": "",
          "type": "bytes"
        }
      ],
      "name": "onERC721Received",
      "outputs": [
        {
          "internalType": "bytes4",
          "name": "",
          "type": "bytes4"
        }
      ],
      "stateMutability": "pure",
      "type": "function"
    },
    {
      "inputs": [],
      "name": "owner",
      "outputs": [
        {
          "internalType": "address",
          "name": "",
          "type": "address"
        }
      ],
      "stateMutability": "view",
      "type": "function"
    },
    {
      "inputs": [
        {
          "internalType": "uint256",
          "name": "tokenId",
          "type": "uint256"
        }
      ],
      "name": "ownerOf",
      "outputs": [
        {
          "internalType": "address",
          "name": "",
          "type": "address"
        }
      ],
      "stateMutability": "view",
      "type": "function"
    },
    {
      "inputs": [],
      "name": "renounceOwnership",
      "outputs": [],
      "stateMutability": "nonpayable",
      "type": "function"
    },
    {
      "inputs": [
        {
          "internalType": "address",
          "name": "from",
          "type": "address"
        },
        {
          "internalType": "address",
          "name": "to",
          "type": "address"
        },
        {
          "internalType": "uint256",
          "name": "tokenId",
          "type": "uint256"
        }
      ],
      "name": "safeTransferFrom",
      "outputs": [],
      "stateMutability": "nonpayable",
      "type": "function"
    },
    {
      "inputs": [
        {
          "internalType": "address",
          "name": "from",
          "type": "address"
        },
        {
          "internalType": "address",
          "name": "to",
          "type": "address"
        },
        {
          "internalType": "uint256",
          "name": "tokenId",
          "type": "uint256"
        },
        {
          "internalType": "bytes",
          "name": "_data",
          "type": "bytes"
        }
      ],
      "name": "safeTransferFrom",
      "outputs": [],
      "stateMutability": "nonpayable",
      "type": "function"
    },
    {
      "inputs": [
        {
          "internalType": "uint256",
          "name": "accessoryType",
          "type": "uint256"
        },
        {
          "internalType": "uint256",
          "name": "bonus",
          "type": "uint256"
        }
      ],
      "name": "setAccessoryBonus",
      "outputs": [],
      "stateMutability": "nonpayable",
      "type": "function"
    },
    {
      "inputs": [
        {
          "internalType": "address[]",
          "name": "newAllowed",
          "type": "address[]"
        }
      ],
      "name": "setAllowed",
      "outputs": [],
      "stateMutability": "nonpayable",
      "type": "function"
    },
    {
      "inputs": [
        {
          "internalType": "address",
          "name": "operator",
          "type": "address"
        },
        {
          "internalType": "bool",
          "name": "approved",
          "type": "bool"
        }
      ],
      "name": "setApprovalForAll",
      "outputs": [],
      "stateMutability": "nonpayable",
      "type": "function"
    },
    {
      "inputs": [
        {
          "internalType": "address",
          "name": "_strainzNFT",
          "type": "address"
        }
      ],
      "name": "setNFT",
      "outputs": [],
      "stateMutability": "nonpayable",
      "type": "function"
    },
    {
      "inputs": [],
      "name": "strainzNFT",
      "outputs": [
        {
          "internalType": "contract StrainzNFT",
          "name": "",
          "type": "address"
        }
      ],
      "stateMutability": "view",
      "type": "function"
    },
    {
      "inputs": [
        {
          "internalType": "bytes4",
          "name": "interfaceId",
          "type": "bytes4"
        }
      ],
      "name": "supportsInterface",
      "outputs": [
        {
          "internalType": "bool",
          "name": "",
          "type": "bool"
        }
      ],
      "stateMutability": "view",
      "type": "function"
    },
    {
      "inputs": [],
      "name": "symbol",
      "outputs": [
        {
          "internalType": "string",
          "name": "",
          "type": "string"
        }
      ],
      "stateMutability": "view",
      "type": "function"
    },
    {
      "inputs": [
        {
          "internalType": "uint256",
          "name": "",
          "type": "uint256"
        }
      ],
      "name": "timeOfLastAttachment",
      "outputs": [
        {
          "internalType": "uint256",
          "name": "",
          "type": "uint256"
        }
      ],
      "stateMutability": "view",
      "type": "function"
    },
    {
      "inputs": [
        {
          "internalType": "uint256",
          "name": "index",
          "type": "uint256"
        }
      ],
      "name": "tokenByIndex",
      "outputs": [
        {
          "internalType": "uint256",
          "name": "",
          "type": "uint256"
        }
      ],
      "stateMutability": "view",
      "type": "function"
    },
    {
      "inputs": [
        {
          "internalType": "address",
          "name": "owner",
          "type": "address"
        },
        {
          "internalType": "uint256",
          "name": "index",
          "type": "uint256"
        }
      ],
      "name": "tokenOfOwnerByIndex",
      "outputs": [
        {
          "internalType": "uint256",
          "name": "",
          "type": "uint256"
        }
      ],
      "stateMutability": "view",
      "type": "function"
    },
    {
      "inputs": [
        {
          "internalType": "uint256",
          "name": "tokenId",
          "type": "uint256"
        }
      ],
      "name": "tokenURI",
      "outputs": [
        {
          "internalType": "string",
          "name": "",
          "type": "string"
        }
      ],
      "stateMutability": "view",
      "type": "function"
    },
    {
      "inputs": [],
      "name": "totalSupply",
      "outputs": [
        {
          "internalType": "uint256",
          "name": "",
          "type": "uint256"
        }
      ],
      "stateMutability": "view",
      "type": "function"
    },
    {
      "inputs": [
        {
          "internalType": "address",
          "name": "from",
          "type": "address"
        },
        {
          "internalType": "address",
          "name": "to",
          "type": "address"
        },
        {
          "internalType": "uint256",
          "name": "tokenId",
          "type": "uint256"
        }
      ],
      "name": "transferFrom",
      "outputs": [],
      "stateMutability": "nonpayable",
      "type": "function"
    },
    {
      "inputs": [
        {
          "internalType": "address",
          "name": "newOwner",
          "type": "address"
        }
      ],
      "name": "transferOwnership",
      "outputs": [],
      "stateMutability": "nonpayable",
      "type": "function"
    }
  ],
  "bytecode": "0x608060405260006010553480156200001657600080fd5b50604080518082018252601181527053747261696e7a204163636573736f727960781b6020808301918252835180850190945260098452684143434553534f525960b81b90840152815191929162000071916000916200071e565b508051620000879060019060208401906200071e565b50505060006200009c6200011460201b60201c565b600a80546001600160a01b0319166001600160a01b038316908117909155604051919250906000907f8be0079c531659141344cd1fd0a4f28419497f9722a3daafe3b4186f6b6457e0908290a350620000f6601162000118565b62000102601962000118565b6200010e602562000118565b6200086a565b3390565b600a546001600160a01b03163314620001785760405162461bcd60e51b815260206004820181905260248201527f4f776e61626c653a2063616c6c6572206973206e6f7420746865206f776e657260448201526064015b60405180910390fd5b600a601054106200018857600080fd5b601080549060006200019a8362000836565b909155505060105460009081526011602052604081208290555b6014811015620001f557601054620001df90620001d9600a546001600160a01b031690565b620001f9565b5080620001ec8162000836565b915050620001b4565b5050565b600060105483111580156200020e5750600083115b6200021857600080fd5b6200022f600c6200026f60201b62001c981760201c565b600062000248600c6200027860201b62001ca11760201c565b90506200025683826200027c565b6000818152600d60205260409020849055905092915050565b80546001019055565b5490565b6001600160a01b038216620002d45760405162461bcd60e51b815260206004820181905260248201527f4552433732313a206d696e7420746f20746865207a65726f206164647265737360448201526064016200016f565b6000818152600260205260409020546001600160a01b0316156200033b5760405162461bcd60e51b815260206004820152601c60248201527f4552433732313a20746f6b656e20616c7265616479206d696e7465640000000060448201526064016200016f565b6200034960008383620003d2565b6001600160a01b038216600090815260036020526040812080546001929062000374908490620007c4565b909155505060008181526002602052604080822080546001600160a01b0319166001600160a01b03861690811790915590518392907fddf252ad1be2c89b69c2b068fc378daa952ba7f163c4a11628f55a4df523b3ef908290a45050565b620003ea838383620004b460201b6200088d1760201c565b6001600160a01b03831662000448576200044281600880546000838152600960205260408120829055600182018355919091527ff3f7a9fe364faab93b216da50a3214154f22a0a2b415b23a84c8169e8b636ee30155565b6200046e565b816001600160a01b0316836001600160a01b0316146200046e576200046e8382620004b9565b6001600160a01b0382166200048e57620004888162000566565b620004b4565b826001600160a01b0316826001600160a01b031614620004b457620004b4828262000644565b505050565b60006001620004d3846200069560201b6200151e1760201c565b620004df9190620007df565b60008381526007602052604090205490915080821462000533576001600160a01b03841660009081526006602090815260408083208584528252808320548484528184208190558352600790915290208190555b5060009182526007602090815260408084208490556001600160a01b039094168352600681528383209183525290812055565b6008546000906200057a90600190620007df565b60008381526009602052604081205460088054939450909284908110620005b157634e487b7160e01b600052603260045260246000fd5b906000526020600020015490508060088381548110620005e157634e487b7160e01b600052603260045260246000fd5b60009182526020808320909101929092558281526009909152604080822084905585825281205560088054806200062857634e487b7160e01b600052603160045260246000fd5b6001900381819060005260206000200160009055905550505050565b60006200065c836200069560201b6200151e1760201c565b6001600160a01b039093166000908152600660209081526040808320868452825280832085905593825260079052919091209190915550565b60006001600160a01b038216620007025760405162461bcd60e51b815260206004820152602a60248201527f4552433732313a2062616c616e636520717565727920666f7220746865207a65604482015269726f206164647265737360b01b60648201526084016200016f565b506001600160a01b031660009081526003602052604090205490565b8280546200072c90620007f9565b90600052602060002090601f0160209004810192826200075057600085556200079b565b82601f106200076b57805160ff19168380011785556200079b565b828001600101855582156200079b579182015b828111156200079b5782518255916020019190600101906200077e565b50620007a9929150620007ad565b5090565b5b80821115620007a95760008155600101620007ae565b60008219821115620007da57620007da62000854565b500190565b600082821015620007f457620007f462000854565b500390565b6002810460018216806200080e57607f821691505b602082108114156200083057634e487b7160e01b600052602260045260246000fd5b50919050565b60006000198214156200084d576200084d62000854565b5060010190565b634e487b7160e01b600052601160045260246000fd5b6132da806200087a6000396000f3fe608060405234801561001057600080fd5b50600436106102775760003560e01c806363079d59116101605780639d0cd89e116100d8578063cb7bcb4d1161008c578063e985e9c511610071578063e985e9c51461058c578063f2fde38b146105c8578063f56e9c66146105db57610277565b8063cb7bcb4d14610566578063e5aa7c2e1461057957610277565b8063b81a453a116100bd578063b81a453a1461052d578063b88d4fde14610540578063c87b56dd1461055357610277565b80639d0cd89e14610507578063a22cb4651461051a57610277565b8063715018a61161012f5780638bd88dda116101145780638bd88dda146104ce5780638da5cb5b146104ee57806395d89b41146104ff57610277565b8063715018a6146104a65780637e2077ec146104ae57610277565b806363079d591461045a5780636352211e1461046d578063706908ff1461048057806370a082311461049357610277565b806323b872dd116101f357806342842e0e116101c257806347d2707e116101a757806347d2707e146104215780634f6ccce7146104345780635a22f03e1461044757610277565b806342842e0e146103fb578063477aceb11461040e57610277565b806323b872dd146103a25780632b6d06a4146103b55780632f745c59146103c85780633f74e68d146103db57610277565b80631068361f1161024a57806318160ddd1161022f57806318160ddd1461035d5780631cd6f9ce1461036f578063214296e81461038f57610277565b80631068361f146102f9578063150b7a021461030c57610277565b806301ffc9a71461027c57806306fdde03146102a4578063081812fc146102b9578063095ea7b3146102e4575b600080fd5b61028f61028a366004612f45565b6105ee565b60405190151581526020015b60405180910390f35b6102ac610634565b60405161029b91906130d4565b6102cc6102c7366004612f7d565b6106c6565b6040516001600160a01b03909116815260200161029b565b6102f76102f2366004612da6565b610760565b005b6102f7610307366004612d94565b610892565b61034461031a366004612c0d565b7ff0b9e5ba0000000000000000000000000000000000000000000000000000000095945050505050565b6040516001600160e01b0319909116815260200161029b565b6008545b60405190815260200161029b565b61038261037d366004612f7d565b610b9a565b60405161029b9190613090565b6102cc61039d366004612f7d565b610bfc565b6102f76103b0366004612bcd565b610c26565b6102f76103c3366004612fce565b610cad565b6103616103d6366004612da6565b610d9a565b6103616103e9366004612f7d565b600e6020526000908152604090205481565b6102f7610409366004612bcd565b610e45565b6102f761041c366004612ed0565b610e60565b6102f761042f366004612fad565b6110a1565b610361610442366004612f7d565b6111f4565b610361610455366004612fad565b6112a6565b6102f7610468366004612f7d565b6113c3565b6102cc61047b366004612f7d565b611493565b6012546102cc906001600160a01b031681565b6103616104a1366004612b5d565b61151e565b6102f76115b8565b6103616104bc366004612f7d565b60116020526000908152604090205481565b6103616104dc366004612f7d565b600d6020526000908152604090205481565b600a546001600160a01b03166102cc565b6102ac61165c565b6102f7610515366004612f7d565b61166b565b6102f7610528366004612d63565b611797565b6102f761053b366004612fad565b611869565b6102f761054e366004612ca7565b6118d5565b6102ac610561366004612f7d565b61195d565b610361610574366004612fad565b611a53565b6102f7610587366004612dd1565b611a84565b61028f61059a366004612b95565b6001600160a01b03918216600090815260056020908152604080832093909416825291909152205460ff1690565b6102f76105d6366004612b5d565b611aea565b6102f76105e9366004612b5d565b611c1c565b60006001600160e01b031982167f780e9d6300000000000000000000000000000000000000000000000000000000148061062c575061062c82611ca5565b90505b919050565b606060008054610643906131ca565b80601f016020809104026020016040519081016040528092919081815260200182805461066f906131ca565b80156106bc5780601f10610691576101008083540402835291602001916106bc565b820191906000526020600020905b81548152906001019060200180831161069f57829003601f168201915b5050505050905090565b6000818152600260205260408120546001600160a01b03166107445760405162461bcd60e51b815260206004820152602c60248201527f4552433732313a20617070726f76656420717565727920666f72206e6f6e657860448201526b34b9ba32b73a103a37b5b2b760a11b60648201526084015b60405180910390fd5b506000908152600460205260409020546001600160a01b031690565b600061076b82611493565b9050806001600160a01b0316836001600160a01b031614156107f55760405162461bcd60e51b815260206004820152602160248201527f4552433732313a20617070726f76616c20746f2063757272656e74206f776e6560448201527f7200000000000000000000000000000000000000000000000000000000000000606482015260840161073b565b336001600160a01b03821614806108115750610811813361059a565b6108835760405162461bcd60e51b815260206004820152603860248201527f4552433732313a20617070726f76652063616c6c6572206973206e6f74206f7760448201527f6e6572206e6f7220617070726f76656420666f7220616c6c0000000000000000606482015260840161073b565b61088d8383611d40565b505050565b6000805b600b5481101561090157336001600160a01b0316600b82815481106108cb57634e487b7160e01b600052603260045260246000fd5b6000918252602090912001546001600160a01b031614156108ef5760019150610901565b806108f981613205565b915050610896565b508061090c57600080fd5b6040517f70a082310000000000000000000000000000000000000000000000000000000081526001600160a01b0384811660048301526000916109ae91603291908616906370a082319060240160206040518083038186803b15801561097157600080fd5b505afa158015610985573d6000803e3d6000fd5b505050506040513d601f19601f820116820180604052508101906109a99190612f95565b611dae565b905060005b81811015610b93576040517f2f745c590000000000000000000000000000000000000000000000000000000081526001600160a01b0386811660048301526000602483018190529190861690632f745c599060440160206040518083038186803b158015610a2057600080fd5b505afa158015610a34573d6000803e3d6000fd5b505050506040513d601f19601f82011682018060405250810190610a589190612f95565b6040517f23b872dd0000000000000000000000000000000000000000000000000000000081526001600160a01b03888116600483015230602483015260448201839052919250908616906323b872dd90606401600060405180830381600087803b158015610ac557600080fd5b505af1158015610ad9573d6000803e3d6000fd5b50506040517f8bd88dda00000000000000000000000000000000000000000000000000000000815260048101849052600092506001600160a01b0388169150638bd88dda9060240160206040518083038186803b158015610b3957600080fd5b505afa158015610b4d573d6000803e3d6000fd5b505050506040513d601f19601f82011682018060405250810190610b719190612f95565b9050610b7d8188611dc6565b5050508080610b8b90613205565b9150506109b3565b5050505050565b6000818152600f6020908152604091829020805483518184028101840190945280845260609392830182828015610bf057602002820191906000526020600020905b815481526020019060010190808311610bdc575b50505050509050919050565b600b8181548110610c0c57600080fd5b6000918252602090912001546001600160a01b0316905081565b610c303382611e21565b610ca25760405162461bcd60e51b815260206004820152603160248201527f4552433732313a207472616e736665722063616c6c6572206973206e6f74206f60448201527f776e6572206e6f7220617070726f766564000000000000000000000000000000606482015260840161073b565b61088d838383611f18565b6000805b600b54811015610d1c57336001600160a01b0316600b8281548110610ce657634e487b7160e01b600052603260045260246000fd5b6000918252602090912001546001600160a01b03161415610d0a5760019150610d1c565b80610d1481613205565b915050610cb1565b5080610d2757600080fd5b6000848152600f6020526040808220858352912060015b6010548111610d91576000610d5384836120f0565b90506000610d6184846120f0565b9050818015610d6d5750805b15610d7c57610d7c838861216f565b50508080610d8990613205565b915050610d3e565b50505050505050565b6000610da58361151e565b8210610e195760405162461bcd60e51b815260206004820152602b60248201527f455243373231456e756d657261626c653a206f776e657220696e646578206f7560448201527f74206f6620626f756e6473000000000000000000000000000000000000000000606482015260840161073b565b506001600160a01b03821660009081526006602090815260408083208484529091529020545b92915050565b61088d838383604051806020016040528060008152506118d5565b6000805b600b54811015610ecf57336001600160a01b0316600b8281548110610e9957634e487b7160e01b600052603260045260246000fd5b6000918252602090912001546001600160a01b03161415610ebd5760019150610ecf565b80610ec781613205565b915050610e64565b5080610eda57600080fd5b60005b8451811015610b93576000836001600160a01b0316631cd6f9ce878481518110610f1757634e487b7160e01b600052603260045260246000fd5b60200260200101516040518263ffffffff1660e01b8152600401610f3d91815260200190565b60006040518083038186803b158015610f5557600080fd5b505afa158015610f69573d6000803e3d6000fd5b505050506040513d6000823e601f3d908101601f19168201604052610f919190810190612e40565b905060005b815181101561108c576000856001600160a01b0316638bd88dda848481518110610fd057634e487b7160e01b600052603260045260246000fd5b60200260200101516040518263ffffffff1660e01b8152600401610ff691815260200190565b60206040518083038186803b15801561100e57600080fd5b505afa158015611022573d6000803e3d6000fd5b505050506040513d601f19601f820116820180604052508101906110469190612f95565b90506110798188868151811061106c57634e487b7160e01b600052603260045260246000fd5b602002602001015161216f565b508061108481613205565b915050610f96565b5050808061109990613205565b915050610edd565b336110ab83611493565b6001600160a01b0316146110be57600080fd5b6012546040516331a9108f60e11b81526004810183905233916001600160a01b031690636352211e9060240160206040518083038186803b15801561110257600080fd5b505afa158015611116573d6000803e3d6000fd5b505050506040513d601f19601f8201168201806040525081019061113a9190612b79565b6001600160a01b03161461114d57600080fd5b6000818152600f60209081526040808320858452600d9092529091205461117491906120f0565b1561117e57600080fd5b611189333084610c26565b6000818152600f60209081526040808320805460018101825590845282842001859055848352600e82529182902042905581518481529081018390527fbbf74ef0f04ad66f234ae0551ef5d620cf45bf4339261965ad3a6eab3c91d644910160405180910390a15050565b60006111ff60085490565b82106112735760405162461bcd60e51b815260206004820152602c60248201527f455243373231456e756d657261626c653a20676c6f62616c20696e646578206f60448201527f7574206f6620626f756e64730000000000000000000000000000000000000000606482015260840161073b565b6008828154811061129457634e487b7160e01b600052603260045260246000fd5b90600052602060002001549050919050565b6000806112b284610b9a565b90506000805b82518110156113ba576000600d60008584815181106112e757634e487b7160e01b600052603260045260246000fd5b602002602001015181526020019081526020016000205490506000601160008381526020019081526020016000205490506000600e600087868151811061133e57634e487b7160e01b600052603260045260246000fd5b602002602001015181526020019081526020016000205490508060001415611368575050506113a8565b600061137d6113778342613187565b8a611dae565b90506201518061138d8483613168565b6113979190613154565b6113a1908761313c565b9550505050505b806113b281613205565b9150506112b8565b50949350505050565b600a546001600160a01b0316331461141d5760405162461bcd60e51b815260206004820181905260248201527f4f776e61626c653a2063616c6c6572206973206e6f7420746865206f776e6572604482015260640161073b565b600a6010541061142c57600080fd5b6010805490600061143c83613205565b909155505060105460009081526011602052604081208290555b601481101561148f5761147c601054611477600a546001600160a01b031690565b611dc6565b508061148781613205565b915050611456565b5050565b6000818152600260205260408120546001600160a01b03168061062c5760405162461bcd60e51b815260206004820152602960248201527f4552433732313a206f776e657220717565727920666f72206e6f6e657869737460448201527f656e7420746f6b656e0000000000000000000000000000000000000000000000606482015260840161073b565b60006001600160a01b03821661159c5760405162461bcd60e51b815260206004820152602a60248201527f4552433732313a2062616c616e636520717565727920666f7220746865207a6560448201527f726f206164647265737300000000000000000000000000000000000000000000606482015260840161073b565b506001600160a01b031660009081526003602052604090205490565b600a546001600160a01b031633146116125760405162461bcd60e51b815260206004820181905260248201527f4f776e61626c653a2063616c6c6572206973206e6f7420746865206f776e6572604482015260640161073b565b600a546040516000916001600160a01b0316907f8be0079c531659141344cd1fd0a4f28419497f9722a3daafe3b4186f6b6457e0908390a3600a80546001600160a01b0319169055565b606060018054610643906131ca565b6000805b600b548110156116da57336001600160a01b0316600b82815481106116a457634e487b7160e01b600052603260045260246000fd5b6000918252602090912001546001600160a01b031614156116c857600191506116da565b806116d281613205565b91505061166f565b50806116e557600080fd5b6000828152600f602090815260408083208054825181850281018501909352808352919290919083018282801561173b57602002820191906000526020600020905b815481526020019060010190808311611727575b5050505050905060005b81518110156117915761177f82828151811061177157634e487b7160e01b600052603260045260246000fd5b6020026020010151856121af565b8061178981613205565b915050611745565b50505050565b6001600160a01b0382163314156117f05760405162461bcd60e51b815260206004820152601960248201527f4552433732313a20617070726f766520746f2063616c6c657200000000000000604482015260640161073b565b3360008181526005602090815260408083206001600160a01b0387168085529252909120805460ff1916841515179055906001600160a01b03167f17307eab39ab6107e8899845ad3d59bd9653f200f220920489ca2b5937696c318360405161185d911515815260200190565b60405180910390a35050565b600a546001600160a01b031633146118c35760405162461bcd60e51b815260206004820181905260248201527f4f776e61626c653a2063616c6c6572206973206e6f7420746865206f776e6572604482015260640161073b565b60009182526011602052604090912055565b6118df3383611e21565b6119515760405162461bcd60e51b815260206004820152603160248201527f4552433732313a207472616e736665722063616c6c6572206973206e6f74206f60448201527f776e6572206e6f7220617070726f766564000000000000000000000000000000606482015260840161073b565b6117918484848461226a565b6000818152600260205260409020546060906001600160a01b03166119ea5760405162461bcd60e51b815260206004820152602f60248201527f4552433732314d657461646174613a2055524920717565727920666f72206e6f60448201527f6e6578697374656e7420746f6b656e0000000000000000000000000000000000606482015260840161073b565b6000611a0160408051602081019091526000815290565b90506000815111611a215760405180602001604052806000815250611a4c565b80611a2b846122f3565b604051602001611a3c929190613025565b6040516020818303038152906040525b9392505050565b600f6020528160005260406000208181548110611a6f57600080fd5b90600052602060002001600091509150505481565b600a546001600160a01b03163314611ade5760405162461bcd60e51b815260206004820181905260248201527f4f776e61626c653a2063616c6c6572206973206e6f7420746865206f776e6572604482015260640161073b565b61088d600b8383612a79565b600a546001600160a01b03163314611b445760405162461bcd60e51b815260206004820181905260248201527f4f776e61626c653a2063616c6c6572206973206e6f7420746865206f776e6572604482015260640161073b565b6001600160a01b038116611bc05760405162461bcd60e51b815260206004820152602660248201527f4f776e61626c653a206e6577206f776e657220697320746865207a65726f206160448201527f6464726573730000000000000000000000000000000000000000000000000000606482015260840161073b565b600a546040516001600160a01b038084169216907f8be0079c531659141344cd1fd0a4f28419497f9722a3daafe3b4186f6b6457e090600090a3600a80546001600160a01b0319166001600160a01b0392909216919091179055565b600a546001600160a01b03163314611c765760405162461bcd60e51b815260206004820181905260248201527f4f776e61626c653a2063616c6c6572206973206e6f7420746865206f776e6572604482015260640161073b565b601280546001600160a01b0319166001600160a01b0392909216919091179055565b80546001019055565b5490565b60006001600160e01b031982167f80ac58cd000000000000000000000000000000000000000000000000000000001480611d0857506001600160e01b031982167f5b5e139f00000000000000000000000000000000000000000000000000000000145b8061062c57507f01ffc9a7000000000000000000000000000000000000000000000000000000006001600160e01b031983161461062c565b600081815260046020526040902080546001600160a01b0319166001600160a01b0384169081179091558190611d7582611493565b6001600160a01b03167f8c5be1e5ebec7d5bd14f71427d1e84f3dd0314c0f7b2291e5b200ac8c7c3b92560405160405180910390a45050565b600081831015611dbf575081610e3f565b5080610e3f565b60006010548311158015611dda5750600083115b611de357600080fd5b611df1600c80546001019055565b6000611dfc600c5490565b9050611e088382612442565b6000818152600d60205260409020849055905092915050565b6000818152600260205260408120546001600160a01b0316611e9a5760405162461bcd60e51b815260206004820152602c60248201527f4552433732313a206f70657261746f7220717565727920666f72206e6f6e657860448201526b34b9ba32b73a103a37b5b2b760a11b606482015260840161073b565b6000611ea583611493565b9050806001600160a01b0316846001600160a01b03161480611ee05750836001600160a01b0316611ed5846106c6565b6001600160a01b0316145b80611f1057506001600160a01b0380821660009081526005602090815260408083209388168352929052205460ff165b949350505050565b826001600160a01b0316611f2b82611493565b6001600160a01b031614611fa75760405162461bcd60e51b815260206004820152602960248201527f4552433732313a207472616e73666572206f6620746f6b656e2074686174206960448201527f73206e6f74206f776e0000000000000000000000000000000000000000000000606482015260840161073b565b6001600160a01b0382166120225760405162461bcd60e51b8152602060048201526024808201527f4552433732313a207472616e7366657220746f20746865207a65726f2061646460448201527f7265737300000000000000000000000000000000000000000000000000000000606482015260840161073b565b61202d838383612590565b612038600082611d40565b6001600160a01b0383166000908152600360205260408120805460019290612061908490613187565b90915550506001600160a01b038216600090815260036020526040812080546001929061208f90849061313c565b909155505060008181526002602052604080822080546001600160a01b0319166001600160a01b0386811691821790925591518493918716917fddf252ad1be2c89b69c2b068fc378daa952ba7f163c4a11628f55a4df523b3ef91a4505050565b6000805b8354811015612165576000600d600086848154811061212357634e487b7160e01b600052603260045260246000fd5b906000526020600020015481526020019081526020016000205490508381141561215257600192505050610e3f565b508061215d81613205565b9150506120f4565b5060009392505050565b600061217b8330611dc6565b6000928352600f60209081526040808520805460018101825590865282862001839055918452600e90529091204290555050565b6000818152600f60205260408120906121c8828561264d565b905060008112156121d857600080fd5b6121e282826126b0565b6012546040516331a9108f60e11b8152600481018590526117919130916001600160a01b0390911690636352211e9060240160206040518083038186803b15801561222c57600080fd5b505afa158015612240573d6000803e3d6000fd5b505050506040513d601f19601f820116820180604052508101906122649190612b79565b86611f18565b612275848484611f18565b6122818484848461275c565b6117915760405162461bcd60e51b815260206004820152603260248201527f4552433732313a207472616e7366657220746f206e6f6e20455243373231526560448201527f63656976657220696d706c656d656e7465720000000000000000000000000000606482015260840161073b565b606081612334575060408051808201909152600181527f3000000000000000000000000000000000000000000000000000000000000000602082015261062f565b8160005b811561235e578061234881613205565b91506123579050600a83613154565b9150612338565b60008167ffffffffffffffff81111561238757634e487b7160e01b600052604160045260246000fd5b6040519080825280601f01601f1916602001820160405280156123b1576020820181803683370190505b5090505b8415611f10576123c6600183613187565b91506123d3600a86613220565b6123de90603061313c565b60f81b81838151811061240157634e487b7160e01b600052603260045260246000fd5b60200101907effffffffffffffffffffffffffffffffffffffffffffffffffffffffffffff1916908160001a90535061243b600a86613154565b94506123b5565b6001600160a01b0382166124985760405162461bcd60e51b815260206004820181905260248201527f4552433732313a206d696e7420746f20746865207a65726f2061646472657373604482015260640161073b565b6000818152600260205260409020546001600160a01b0316156124fd5760405162461bcd60e51b815260206004820152601c60248201527f4552433732313a20746f6b656e20616c7265616479206d696e74656400000000604482015260640161073b565b61250960008383612590565b6001600160a01b038216600090815260036020526040812080546001929061253290849061313c565b909155505060008181526002602052604080822080546001600160a01b0319166001600160a01b03861690811790915590518392907fddf252ad1be2c89b69c2b068fc378daa952ba7f163c4a11628f55a4df523b3ef908290a45050565b6001600160a01b0383166125eb576125e681600880546000838152600960205260408120829055600182018355919091527ff3f7a9fe364faab93b216da50a3214154f22a0a2b415b23a84c8169e8b636ee30155565b61260e565b816001600160a01b0316836001600160a01b03161461260e5761260e83826128bf565b6001600160a01b03821661262a576126258161295c565b61088d565b826001600160a01b0316826001600160a01b03161461088d5761088d8282612a35565b6000805b83548110156126a5578284828154811061267b57634e487b7160e01b600052603260045260246000fd5b90600052602060002001541415612693579050610e3f565b8061269d81613205565b915050612651565b506000199392505050565b815481106126bd5761148f565b815482906126cd90600190613187565b815481106126eb57634e487b7160e01b600052603260045260246000fd5b906000526020600020015482828154811061271657634e487b7160e01b600052603260045260246000fd5b90600052602060002001819055508180548061274257634e487b7160e01b600052603160045260246000fd5b600190038181906000526020600020016000905590555050565b60006001600160a01b0384163b156128b457604051630a85bd0160e11b81526001600160a01b0385169063150b7a02906127a0903390899088908890600401613054565b602060405180830381600087803b1580156127ba57600080fd5b505af19250505080156127ea575060408051601f3d908101601f191682019092526127e791810190612f61565b60015b61289a573d808015612818576040519150601f19603f3d011682016040523d82523d6000602084013e61281d565b606091505b5080516128925760405162461bcd60e51b815260206004820152603260248201527f4552433732313a207472616e7366657220746f206e6f6e20455243373231526560448201527f63656976657220696d706c656d656e7465720000000000000000000000000000606482015260840161073b565b805181602001fd5b6001600160e01b031916630a85bd0160e11b149050611f10565b506001949350505050565b600060016128cc8461151e565b6128d69190613187565b600083815260076020526040902054909150808214612929576001600160a01b03841660009081526006602090815260408083208584528252808320548484528184208190558352600790915290208190555b5060009182526007602090815260408084208490556001600160a01b039094168352600681528383209183525290812055565b60085460009061296e90600190613187565b600083815260096020526040812054600880549394509092849081106129a457634e487b7160e01b600052603260045260246000fd5b9060005260206000200154905080600883815481106129d357634e487b7160e01b600052603260045260246000fd5b6000918252602080832090910192909255828152600990915260408082208490558582528120556008805480612a1957634e487b7160e01b600052603160045260246000fd5b6001900381819060005260206000200160009055905550505050565b6000612a408361151e565b6001600160a01b039093166000908152600660209081526040808320868452825280832085905593825260079052919091209190915550565b828054828255906000526020600020908101928215612acc579160200282015b82811115612acc5781546001600160a01b0319166001600160a01b03843516178255602090920191600190910190612a99565b50612ad8929150612adc565b5090565b5b80821115612ad85760008155600101612add565b600082601f830112612b01578081fd5b81356020612b16612b1183613118565b6130e7565b8281528181019085830183850287018401881015612b32578586fd5b855b85811015612b5057813584529284019290840190600101612b34565b5090979650505050505050565b600060208284031215612b6e578081fd5b8135611a4c81613276565b600060208284031215612b8a578081fd5b8151611a4c81613276565b60008060408385031215612ba7578081fd5b8235612bb281613276565b91506020830135612bc281613276565b809150509250929050565b600080600060608486031215612be1578081fd5b8335612bec81613276565b92506020840135612bfc81613276565b929592945050506040919091013590565b600080600080600060808688031215612c24578081fd5b8535612c2f81613276565b94506020860135612c3f81613276565b935060408601359250606086013567ffffffffffffffff80821115612c62578283fd5b818801915088601f830112612c75578283fd5b813581811115612c83578384fd5b896020828501011115612c94578384fd5b9699959850939650602001949392505050565b60008060008060808587031215612cbc578384fd5b8435612cc781613276565b9350602085810135612cd881613276565b935060408601359250606086013567ffffffffffffffff80821115612cfb578384fd5b818801915088601f830112612d0e578384fd5b813581811115612d2057612d20613260565b612d32601f8201601f191685016130e7565b91508082528984828501011115612d47578485fd5b8084840185840137810190920192909252939692955090935050565b60008060408385031215612d75578182fd5b8235612d8081613276565b915060208301358015158114612bc2578182fd5b60008060408385031215612ba7578182fd5b60008060408385031215612db8578182fd5b8235612dc381613276565b946020939093013593505050565b60008060208385031215612de3578182fd5b823567ffffffffffffffff80821115612dfa578384fd5b818501915085601f830112612e0d578384fd5b813581811115612e1b578485fd5b8660208083028501011115612e2e578485fd5b60209290920196919550909350505050565b60006020808385031215612e52578182fd5b825167ffffffffffffffff811115612e68578283fd5b8301601f81018513612e78578283fd5b8051612e86612b1182613118565b8181528381019083850185840285018601891015612ea2578687fd5b8694505b83851015612ec4578051835260019490940193918501918501612ea6565b50979650505050505050565b600080600060608486031215612ee4578081fd5b833567ffffffffffffffff80821115612efb578283fd5b612f0787838801612af1565b94506020860135915080821115612f1c578283fd5b50612f2986828701612af1565b9250506040840135612f3a81613276565b809150509250925092565b600060208284031215612f56578081fd5b8135611a4c8161328e565b600060208284031215612f72578081fd5b8151611a4c8161328e565b600060208284031215612f8e578081fd5b5035919050565b600060208284031215612fa6578081fd5b5051919050565b60008060408385031215612fbf578182fd5b50508035926020909101359150565b600080600060608486031215612fe2578081fd5b505081359360208301359350604090920135919050565b6000815180845261301181602086016020860161319e565b601f01601f19169290920160200192915050565b6000835161303781846020880161319e565b83519083019061304b81836020880161319e565b01949350505050565b60006001600160a01b038087168352808616602084015250836040830152608060608301526130866080830184612ff9565b9695505050505050565b6020808252825182820181905260009190848201906040850190845b818110156130c8578351835292840192918401916001016130ac565b50909695505050505050565b600060208252611a4c6020830184612ff9565b604051601f8201601f1916810167ffffffffffffffff8111828210171561311057613110613260565b604052919050565b600067ffffffffffffffff82111561313257613132613260565b5060209081020190565b6000821982111561314f5761314f613234565b500190565b6000826131635761316361324a565b500490565b600081600019048311821515161561318257613182613234565b500290565b60008282101561319957613199613234565b500390565b60005b838110156131b95781810151838201526020016131a1565b838111156117915750506000910152565b6002810460018216806131de57607f821691505b602082108114156131ff57634e487b7160e01b600052602260045260246000fd5b50919050565b600060001982141561321957613219613234565b5060010190565b60008261322f5761322f61324a565b500690565b634e487b7160e01b600052601160045260246000fd5b634e487b7160e01b600052601260045260246000fd5b634e487b7160e01b600052604160045260246000fd5b6001600160a01b038116811461328b57600080fd5b50565b6001600160e01b03198116811461328b57600080fdfea2646970667358221220583af747d83f72ad9f90ab4467d5399a712baaeabd66d9af750d046a8d7165f764736f6c63430008020033",
  "linkReferences": {},
  "deployedLinkReferences": {}
}