{
  "_format": "hh-sol-artifact-1",
  "contractName": "StrainzMarketplace",
  "sourceName": "contracts/StrainzMarketplace.sol",
  "abi": [
    {
      "inputs": [
        {
          "internalType": "address",
          "name": "_strainzToken",
          "type": "address"
        }
      ],
      "stateMutability": "nonpayable",
      "type": "constructor"
    },
    {
      "anonymous": false,
      "inputs": [
        {
          "indexed": false,
          "internalType": "uint256",
          "name": "offerId",
          "type": "uint256"
        },
        {
          "indexed": false,
          "internalType": "enum StrainzMarketplace.TradeStatus",
          "name": "status",
          "type": "uint8"
        }
      ],
      "name": "ERC721OfferStatusChange",
      "type": "event"
    },
    {
      "anonymous": false,
      "inputs": [
        {
          "indexed": false,
          "internalType": "uint256",
          "name": "tradeId",
          "type": "uint256"
        },
        {
          "indexed": false,
          "internalType": "enum StrainzMarketplace.TradeStatus",
          "name": "status",
          "type": "uint8"
        }
      ],
      "name": "ERC721TradeStatusChange",
      "type": "event"
    },
    {
      "anonymous": false,
      "inputs": [
        {
          "indexed": true,
          "internalType": "address",
          "name": "previousOwner",
          "type": "address"
        },
        {
          "indexed": true,
          "internalType": "address",
          "name": "newOwner",
          "type": "address"
        }
      ],
      "name": "OwnershipTransferred",
      "type": "event"
    },
    {
      "inputs": [
        {
          "internalType": "uint256",
          "name": "offerId",
          "type": "uint256"
        }
      ],
      "name": "cancelERC721Offer",
      "outputs": [],
      "stateMutability": "nonpayable",
      "type": "function"
    },
    {
      "inputs": [
        {
          "internalType": "uint256",
          "name": "tradeId",
          "type": "uint256"
        }
      ],
      "name": "cancelERC721Trade",
      "outputs": [],
      "stateMutability": "nonpayable",
      "type": "function"
    },
    {
      "inputs": [
        {
          "internalType": "uint256",
          "name": "",
          "type": "uint256"
        }
      ],
      "name": "erc721Offers",
      "outputs": [
        {
          "internalType": "uint256",
          "name": "id",
          "type": "uint256"
        },
        {
          "internalType": "address",
          "name": "offerer",
          "type": "address"
        },
        {
          "internalType": "address",
          "name": "nftContractAddress",
          "type": "address"
        },
        {
          "internalType": "uint256",
          "name": "tokenId",
          "type": "uint256"
        },
        {
          "internalType": "uint256",
          "name": "offerAmount",
          "type": "uint256"
        },
        {
          "internalType": "enum StrainzMarketplace.TradeStatus",
          "name": "status",
          "type": "uint8"
        },
        {
          "internalType": "address",
          "name": "seller",
          "type": "address"
        }
      ],
      "stateMutability": "view",
      "type": "function"
    },
    {
      "inputs": [
        {
          "internalType": "uint256",
          "name": "",
          "type": "uint256"
        }
      ],
      "name": "erc721Trades",
      "outputs": [
        {
          "internalType": "uint256",
          "name": "id",
          "type": "uint256"
        },
        {
          "internalType": "address",
          "name": "poster",
          "type": "address"
        },
        {
          "internalType": "address",
          "name": "nftContractAddress",
          "type": "address"
        },
        {
          "internalType": "uint256",
          "name": "tokenId",
          "type": "uint256"
        },
        {
          "internalType": "uint256",
          "name": "strainzTokenPrice",
          "type": "uint256"
        },
        {
          "internalType": "enum StrainzMarketplace.TradeStatus",
          "name": "status",
          "type": "uint8"
        },
        {
          "internalType": "address",
          "name": "buyer",
          "type": "address"
        }
      ],
      "stateMutability": "view",
      "type": "function"
    },
    {
      "inputs": [
        {
          "internalType": "uint256",
          "name": "offerId",
          "type": "uint256"
        }
      ],
      "name": "executeERC721Offer",
      "outputs": [],
      "stateMutability": "nonpayable",
      "type": "function"
    },
    {
      "inputs": [
        {
          "internalType": "uint256",
          "name": "tradeId",
          "type": "uint256"
        }
      ],
      "name": "executeERC721Trade",
      "outputs": [],
      "stateMutability": "nonpayable",
      "type": "function"
    },
    {
      "inputs": [],
      "name": "getOfferCount",
      "outputs": [
        {
          "internalType": "uint256",
          "name": "",
          "type": "uint256"
        }
      ],
      "stateMutability": "view",
      "type": "function"
    },
    {
      "inputs": [],
      "name": "getTradeCount",
      "outputs": [
        {
          "internalType": "uint256",
          "name": "",
          "type": "uint256"
        }
      ],
      "stateMutability": "view",
      "type": "function"
    },
    {
      "inputs": [],
      "name": "marketplaceFee",
      "outputs": [
        {
          "internalType": "uint256",
          "name": "",
          "type": "uint256"
        }
      ],
      "stateMutability": "view",
      "type": "function"
    },
    {
      "inputs": [
        {
          "internalType": "address",
          "name": "",
          "type": "address"
        },
        {
          "internalType": "address",
          "name": "",
          "type": "address"
        },
        {
          "internalType": "uint256",
          "name": "",
          "type": "uint256"
        },
        {
          "internalType": "bytes",
          "name": "",
          "type": "bytes"
        }
      ],
      "name": "onERC721Received",
      "outputs": [
        {
          "internalType": "bytes4",
          "name": "",
          "type": "bytes4"
        }
      ],
      "stateMutability": "pure",
      "type": "function"
    },
    {
      "inputs": [
        {
          "internalType": "address",
          "name": "nftContractAddress",
          "type": "address"
        },
        {
          "internalType": "uint256",
          "name": "tokenId",
          "type": "uint256"
        },
        {
          "internalType": "uint256",
          "name": "offerAmount",
          "type": "uint256"
        }
      ],
      "name": "openERC721Offer",
      "outputs": [],
      "stateMutability": "nonpayable",
      "type": "function"
    },
    {
      "inputs": [
        {
          "internalType": "address",
          "name": "nftContractAddress",
          "type": "address"
        },
        {
          "internalType": "uint256",
          "name": "tokenId",
          "type": "uint256"
        },
        {
          "internalType": "uint256",
          "name": "price",
          "type": "uint256"
        }
      ],
      "name": "openERC721Trade",
      "outputs": [],
      "stateMutability": "nonpayable",
      "type": "function"
    },
    {
      "inputs": [],
      "name": "owner",
      "outputs": [
        {
          "internalType": "address",
          "name": "",
          "type": "address"
        }
      ],
      "stateMutability": "view",
      "type": "function"
    },
    {
      "inputs": [],
      "name": "renounceOwnership",
      "outputs": [],
      "stateMutability": "nonpayable",
      "type": "function"
    },
    {
      "inputs": [
        {
          "internalType": "uint256",
          "name": "newFee",
          "type": "uint256"
        }
      ],
      "name": "setMarketplaceFee",
      "outputs": [],
      "stateMutability": "nonpayable",
      "type": "function"
    },
    {
      "inputs": [],
      "name": "strainzToken",
      "outputs": [
        {
          "internalType": "contract StrainzToken",
          "name": "",
          "type": "address"
        }
      ],
      "stateMutability": "view",
      "type": "function"
    },
    {
      "inputs": [
        {
          "internalType": "address",
          "name": "newOwner",
          "type": "address"
        }
      ],
      "name": "transferOwnership",
      "outputs": [],
      "stateMutability": "nonpayable",
      "type": "function"
    }
  ],
  "bytecode": "0x6080604052600a60055534801561001557600080fd5b506040516118ce3803806118ce8339810160408190526100349161009a565b600080546001600160a01b031916339081178255604051909182917f8be0079c531659141344cd1fd0a4f28419497f9722a3daafe3b4186f6b6457e0908290a350600680546001600160a01b0319166001600160a01b03929092169190911790556100c8565b6000602082840312156100ab578081fd5b81516001600160a01b03811681146100c1578182fd5b9392505050565b6117f7806100d76000396000f3fe608060405234801561001057600080fd5b506004361061011b5760003560e01c80639407ea98116100b2578063d048db3711610081578063f2fde38b11610066578063f2fde38b14610324578063f34632c914610337578063fe43e58d1461034a5761011b565b8063d048db37146102c0578063e673354c146102c85761011b565b80639407ea981461027f578063a3031b7714610292578063aa75de601461029a578063b48a8070146102ad5761011b565b8063715018a6116100ee578063715018a61461022c5780637d2a55b7146102345780637e9aa2c0146102475780638da5cb5b1461025a5761011b565b80631107f66414610120578063150b7a02146101355780632756d9b3146101a35780636a16696414610215575b600080fd5b61013361012e36600461164a565b61035d565b005b61016d6101433660046115b0565b7ff0b9e5ba0000000000000000000000000000000000000000000000000000000095945050505050565b6040517fffffffff0000000000000000000000000000000000000000000000000000000090911681526020015b60405180910390f35b6102026101b136600461169e565b600360208190526000918252604090912080546001820154600283015493830154600484015460059094015492946001600160a01b0392831694908316939192909160ff8116916101009091041687565b60405161019a97969594939291906116d8565b61021e60055481565b60405190815260200161019a565b610133610586565b61013361024236600461169e565b61063c565b61013361025536600461169e565b6109fe565b6000546001600160a01b03165b6040516001600160a01b03909116815260200161019a565b61013361028d36600461169e565b610bdc565b61021e610c3b565b6101336102a836600461169e565b610c4b565b6101336102bb36600461169e565b610f89565b61021e611194565b6102026102d636600461169e565b600460208190526000918252604090912080546001820154600283015460038401549484015460059094015492946001600160a01b039283169491831693909260ff82169161010090041687565b610133610332366004611571565b61119f565b61013361034536600461164a565b6112dd565b600654610267906001600160a01b031681565b61036b600280546001019055565b6006546040516323b872dd60e01b8152336004820152306024820152604481018390526001600160a01b03909116906323b872dd90606401602060405180830381600087803b1580156103bd57600080fd5b505af11580156103d1573d6000803e3d6000fd5b505050506040513d601f19601f820116820180604052508101906103f5919061167e565b50600061040160025490565b90506040518060e00160405280828152602001336001600160a01b03168152602001856001600160a01b031681526020018481526020018381526020016000600281111561045f57634e487b7160e01b600052602160045260246000fd5b815260006020918201819052838152600480835260409182902084518155928401516001808501805473ffffffffffffffffffffffffffffffffffffffff199081166001600160a01b0394851617909155938601516002808701805490961691909316179093556060850151600385015560808501519184019190915560a08401516005840180549193909260ff1990921691849081111561051157634e487b7160e01b600052602160045260246000fd5b021790555060c08201518160050160016101000a8154816001600160a01b0302191690836001600160a01b031602179055509050507f2c42962851711dda1bcfc3d13838de9cffdfa5ead85bdeefbc958c9175acfaa8816000604051610578929190611729565b60405180910390a150505050565b6000546001600160a01b031633146105e55760405162461bcd60e51b815260206004820181905260248201527f4f776e61626c653a2063616c6c6572206973206e6f7420746865206f776e657260448201526064015b60405180910390fd5b600080546040516001600160a01b03909116907f8be0079c531659141344cd1fd0a4f28419497f9722a3daafe3b4186f6b6457e0908390a36000805473ffffffffffffffffffffffffffffffffffffffff19169055565b6000818152600460208181526040808420815160e0810183528154815260018201546001600160a01b03908116948201949094526002808301549094169281019290925260038101546060830152928301546080820152600583015490929160a084019160ff16908111156106c157634e487b7160e01b600052602160045260246000fd5b60028111156106e057634e487b7160e01b600052602160045260246000fd5b81526005919091015461010090046001600160a01b0316602090910152905060008160a00151600281111561072557634e487b7160e01b600052602160045260246000fd5b1461072f57600080fd5b604081810151606083015191516331a9108f60e11b815260048101929092529033906001600160a01b03831690636352211e9060240160206040518083038186803b15801561077d57600080fd5b505afa158015610791573d6000803e3d6000fd5b505050506040513d601f19601f820116820180604052508101906107b59190611594565b6001600160a01b0316146107c857600080fd5b600083815260046020526040812060059081018054600160ff199091161774ffffffffffffffffffffffffffffffffffffffff00191633610100021790555460808401516064916108189161175d565b610822919061173d565b6006546040517f42966c68000000000000000000000000000000000000000000000000000000008152600481018390529192506001600160a01b0316906342966c6890602401600060405180830381600087803b15801561088257600080fd5b505af1158015610896573d6000803e3d6000fd5b505060065460808601516001600160a01b03909116925063a9059cbb915033906108c190859061177c565b6040517fffffffff0000000000000000000000000000000000000000000000000000000060e085901b1681526001600160a01b0390921660048301526024820152604401602060405180830381600087803b15801561091f57600080fd5b505af1158015610933573d6000803e3d6000fd5b505050506040513d601f19601f82011682018060405250810190610957919061167e565b5060208301516060840151604051632142170760e11b81523360048201526001600160a01b0392831660248201526044810191909152908316906342842e0e90606401600060405180830381600087803b1580156109b457600080fd5b505af11580156109c8573d6000803e3d6000fd5b505050507f2c42962851711dda1bcfc3d13838de9cffdfa5ead85bdeefbc958c9175acfaa8846001604051610578929190611729565b6000818152600360208181526040808420815160e0810183528154815260018201546001600160a01b03908116948201949094526002808301549094169281019290925292830154606082015260048301546080820152600583015490929160a084019160ff1690811115610a8357634e487b7160e01b600052602160045260246000fd5b6002811115610aa257634e487b7160e01b600052602160045260246000fd5b81526005919091015461010090046001600160a01b0390811660209283015290820151919250163314610ad457600080fd5b60008160a001516002811115610afa57634e487b7160e01b600052602160045260246000fd5b14610b0457600080fd5b604081810151602083015160608401519251632142170760e11b81523060048201526001600160a01b03918216602482015260448101939093529091908216906342842e0e90606401600060405180830381600087803b158015610b6757600080fd5b505af1158015610b7b573d6000803e3d6000fd5b50505060008481526003602052604090819020600501805460ff1916600290811790915590517f063013d0db83523caf2bbe63c42e48ebd60db20e00cb3c6bbeb5dc11b9bd1d009250610bcf918691611729565b60405180910390a1505050565b6000546001600160a01b03163314610c365760405162461bcd60e51b815260206004820181905260248201527f4f776e61626c653a2063616c6c6572206973206e6f7420746865206f776e657260448201526064016105dc565b600555565b6000610c4660015490565b905090565b6000818152600360208181526040808420815160e0810183528154815260018201546001600160a01b03908116948201949094526002808301549094169281019290925292830154606082015260048301546080820152600583015490929160a084019160ff1690811115610cd057634e487b7160e01b600052602160045260246000fd5b6002811115610cef57634e487b7160e01b600052602160045260246000fd5b81526005919091015461010090046001600160a01b0316602090910152905060008160a001516002811115610d3457634e487b7160e01b600052602160045260246000fd5b14610d3e57600080fd5b600060646005548360800151610d54919061175d565b610d5e919061173d565b6006546040517f79cc6790000000000000000000000000000000000000000000000000000000008152336004820152602481018390529192506001600160a01b0316906379cc679090604401600060405180830381600087803b158015610dc457600080fd5b505af1158015610dd8573d6000803e3d6000fd5b5050600654602085015160808601516001600160a01b0390921693506323b872dd92503391610e0890869061177c565b6040517fffffffff0000000000000000000000000000000000000000000000000000000060e086901b1681526001600160a01b0393841660048201529290911660248301526044820152606401602060405180830381600087803b158015610e6f57600080fd5b505af1158015610e83573d6000803e3d6000fd5b505050506040513d601f19601f82011682018060405250810190610ea7919061167e565b5060408281015160608401519151632142170760e11b81523060048201523360248201526044810192909252906001600160a01b038216906342842e0e90606401600060405180830381600087803b158015610f0257600080fd5b505af1158015610f16573d6000803e3d6000fd5b505050600085815260036020526040908190206005018054600160ff19909116811774ffffffffffffffffffffffffffffffffffffffff00191633610100021790915590517f063013d0db83523caf2bbe63c42e48ebd60db20e00cb3c6bbeb5dc11b9bd1d009250610578918791611729565b6000818152600460208181526040808420815160e0810183528154815260018201546001600160a01b03908116948201949094526002808301549094169281019290925260038101546060830152928301546080820152600583015490929160a084019160ff169081111561100e57634e487b7160e01b600052602160045260246000fd5b600281111561102d57634e487b7160e01b600052602160045260246000fd5b81526005919091015461010090046001600160a01b039081166020928301529082015191925016331461105f57600080fd5b60008160a00151600281111561108557634e487b7160e01b600052602160045260246000fd5b1461108f57600080fd5b600082815260046020526040902060050180546002919060ff1916600183021790555060065460808201516040517fa9059cbb00000000000000000000000000000000000000000000000000000000815233600482015260248101919091526001600160a01b039091169063a9059cbb90604401602060405180830381600087803b15801561111d57600080fd5b505af1158015611131573d6000803e3d6000fd5b505050506040513d601f19601f82011682018060405250810190611155919061167e565b507f2c42962851711dda1bcfc3d13838de9cffdfa5ead85bdeefbc958c9175acfaa8826002604051611188929190611729565b60405180910390a15050565b6000610c4660025490565b6000546001600160a01b031633146111f95760405162461bcd60e51b815260206004820181905260248201527f4f776e61626c653a2063616c6c6572206973206e6f7420746865206f776e657260448201526064016105dc565b6001600160a01b0381166112755760405162461bcd60e51b815260206004820152602660248201527f4f776e61626c653a206e6577206f776e657220697320746865207a65726f206160448201527f646472657373000000000000000000000000000000000000000000000000000060648201526084016105dc565b600080546040516001600160a01b03808516939216917f8be0079c531659141344cd1fd0a4f28419497f9722a3daafe3b4186f6b6457e091a36000805473ffffffffffffffffffffffffffffffffffffffff19166001600160a01b0392909216919091179055565b6040516331a9108f60e11b815260048101839052839033906001600160a01b03831690636352211e9060240160206040518083038186803b15801561132157600080fd5b505afa158015611335573d6000803e3d6000fd5b505050506040513d601f19601f820116820180604052508101906113599190611594565b6001600160a01b03161461136c57600080fd5b61137a600180546001019055565b6040516323b872dd60e01b8152336004820152306024820152604481018490526001600160a01b038216906323b872dd90606401600060405180830381600087803b1580156113c857600080fd5b505af11580156113dc573d6000803e3d6000fd5b5050505060006113eb60015490565b90506040518060e00160405280828152602001336001600160a01b03168152602001866001600160a01b031681526020018581526020018481526020016000600281111561144957634e487b7160e01b600052602160045260246000fd5b815260006020918201819052838152600380835260409182902084518155928401516001808501805473ffffffffffffffffffffffffffffffffffffffff199081166001600160a01b0394851617909155938601516002808701805490961691909316179093556060850151918401919091556080840151600484015560a08401516005840180549193909260ff199092169184908111156114fb57634e487b7160e01b600052602160045260246000fd5b021790555060c08201518160050160016101000a8154816001600160a01b0302191690836001600160a01b031602179055509050507f063013d0db83523caf2bbe63c42e48ebd60db20e00cb3c6bbeb5dc11b9bd1d00816000604051611562929190611729565b60405180910390a15050505050565b600060208284031215611582578081fd5b813561158d816117a9565b9392505050565b6000602082840312156115a5578081fd5b815161158d816117a9565b6000806000806000608086880312156115c7578081fd5b85356115d2816117a9565b945060208601356115e2816117a9565b935060408601359250606086013567ffffffffffffffff80821115611605578283fd5b818801915088601f830112611618578283fd5b813581811115611626578384fd5b896020828501011115611637578384fd5b9699959850939650602001949392505050565b60008060006060848603121561165e578283fd5b8335611669816117a9565b95602085013595506040909401359392505050565b60006020828403121561168f578081fd5b8151801515811461158d578182fd5b6000602082840312156116af578081fd5b5035919050565b600381106116d457634e487b7160e01b600052602160045260246000fd5b9052565b600060e0820190508882526001600160a01b038089166020840152808816604084015286606084015285608084015261171460a08401866116b6565b80841660c08401525098975050505050505050565b8281526040810161158d60208301846116b6565b60008261175857634e487b7160e01b81526012600452602481fd5b500490565b600081600019048311821515161561177757611777611793565b500290565b60008282101561178e5761178e611793565b500390565b634e487b7160e01b600052601160045260246000fd5b6001600160a01b03811681146117be57600080fd5b5056fea26469706673582212209f83e9ce16e74b6498ee07cf9adedf52023cc7878bbe3f3213b4347de5da7f1564736f6c63430008020033",
  "linkReferences": {},
  "deployedLinkReferences": {}
}