{
  "_format": "hh-sol-artifact-1",
  "contractName": "StrainzDNA",
  "sourceName": "contracts/StrainzNFT/StrainzDNA.sol",
  "abi": [
    {
      "inputs": [
        {
          "internalType": "uint256",
          "name": "value",
          "type": "uint256"
        },
        {
          "internalType": "uint256",
          "name": "min",
          "type": "uint256"
        },
        {
          "internalType": "uint256",
          "name": "max",
          "type": "uint256"
        }
      ],
      "name": "clamp",
      "outputs": [
        {
          "internalType": "uint256",
          "name": "",
          "type": "uint256"
        }
      ],
      "stateMutability": "pure",
      "type": "function"
    },
    {
      "inputs": [
        {
          "internalType": "uint256",
          "name": "dna",
          "type": "uint256"
        }
      ],
      "name": "getBlueGene",
      "outputs": [
        {
          "internalType": "uint256",
          "name": "",
          "type": "uint256"
        }
      ],
      "stateMutability": "pure",
      "type": "function"
    },
    {
      "inputs": [
        {
          "internalType": "uint256",
          "name": "dna",
          "type": "uint256"
        },
        {
          "internalType": "uint256",
          "name": "n",
          "type": "uint256"
        }
      ],
      "name": "getGene",
      "outputs": [
        {
          "internalType": "uint256",
          "name": "",
          "type": "uint256"
        }
      ],
      "stateMutability": "pure",
      "type": "function"
    },
    {
      "inputs": [
        {
          "internalType": "uint256",
          "name": "dna",
          "type": "uint256"
        }
      ],
      "name": "getGreenGene",
      "outputs": [
        {
          "internalType": "uint256",
          "name": "",
          "type": "uint256"
        }
      ],
      "stateMutability": "pure",
      "type": "function"
    },
    {
      "inputs": [
        {
          "internalType": "uint256",
          "name": "dna",
          "type": "uint256"
        }
      ],
      "name": "getRedGene",
      "outputs": [
        {
          "internalType": "uint256",
          "name": "",
          "type": "uint256"
        }
      ],
      "stateMutability": "pure",
      "type": "function"
    },
    {
      "inputs": [
        {
          "internalType": "uint256",
          "name": "dna1",
          "type": "uint256"
        },
        {
          "internalType": "uint256",
          "name": "dna2",
          "type": "uint256"
        }
      ],
      "name": "mixDNA",
      "outputs": [
        {
          "internalType": "uint256",
          "name": "",
          "type": "uint256"
        }
      ],
      "stateMutability": "view",
      "type": "function"
    }
  ],
  "bytecode": "0x608060405234801561001057600080fd5b5061076e806100206000396000f3fe608060405234801561001057600080fd5b50600436106100725760003560e01c80636cf683da116100505780636cf683da146100c25780639e422447146100d5578063a2f6031f146100e857610072565b80633538339f1461007757806354314d7c1461009c578063629b7d73146100af575b600080fd5b61008a61008536600461051e565b6100fb565b60405190815260200160405180910390f35b61008a6100aa36600461051e565b61010f565b61008a6100bd366004610536565b61013f565b61008a6100d0366004610536565b610174565b61008a6100e3366004610557565b610497565b61008a6100f636600461051e565b6104be565b60006101096103e8836106f8565b92915050565b60006103e861011e81846106f8565b61012b620f4240856106f8565b61013591906106e1565b610109919061059a565b6000600a61014e83600f6106e1565b61015990600a6105f4565b610163908561059a565b61016d91906106f8565b9392505050565b6000806101826101006104dc565b905060006040518061014001604052806007846101a088600061013f565b6101ab8a600061013f565b6101b591906106c2565b6101bf91906106c2565b6101c991906106f8565b6101d4906001610582565b81526020016007846101e788600161013f565b6101f28a600161013f565b6101fc91906106c2565b61020691906106c2565b61021091906106f8565b61021b906001610582565b815260200160068461022e88600261013f565b6102398a600261013f565b61024391906106c2565b61024d91906106c2565b61025791906106f8565b610262906001610582565b815260200160058461027588600361013f565b6102808a600361013f565b61028a91906106c2565b61029491906106c2565b61029e91906106f8565b6102a9906001610582565b8152602001600081526020016000815260200160008152602001610100846102d0886104be565b6102d98a6104be565b6102e391906106c2565b6102ed9190610582565b6102f791906106f8565b8152602001610100846103098861010f565b6103128a61010f565b61031c91906106c2565b6103269190610582565b61033091906106f8565b815260200161010084610342886100fb565b61034b8a6100fb565b61035591906106c2565b61035f9190610582565b61036991906106f8565b8152509050600061010082610120015161038391906106f8565b610100830151610395906103e86106c2565b60e08401516103a790620f42406106c2565b60c08501516103ba90633b9aca006106c2565b60a08601516103ce906402540be4006106c2565b60808701516103e29064174876e8006106c2565b60608801516103f69064e8d4a510006106c2565b604089015161040b906509184e72a0006106c2565b60208a015161042090655af3107a40006106c2565b8a516104339066038d7ea4c680006106c2565b61043d9190610582565b6104479190610582565b6104519190610582565b61045b9190610582565b6104659190610582565b61046f9190610582565b6104799190610582565b6104839190610582565b61048d9190610582565b9695505050505050565b60008284106104b4578184116104ad57836104af565b815b6104b6565b825b949350505050565b6000620f42406104ce81846106f8565b61012b633b9aca00856106f8565b60008144426040516020016104fb929190918252602082015260400190565b6040516020818303038152906040528051906020012060001c61010991906106f8565b60006020828403121561052f578081fd5b5035919050565b60008060408385031215610548578081fd5b50508035926020909101359150565b60008060006060848603121561056b578081fd5b505081359360208301359350604090920135919050565b600082198211156105955761059561070c565b500190565b6000826105a9576105a9610722565b500490565b80825b60018086116105c057506105eb565b8187048211156105d2576105d261070c565b808616156105df57918102915b9490941c9380026105b1565b94509492505050565b600061016d600019848460008261060d5750600161016d565b8161061a5750600061016d565b8160018114610630576002811461063a57610667565b600191505061016d565b60ff84111561064b5761064b61070c565b6001841b9150848211156106615761066161070c565b5061016d565b5060208310610133831016604e8410600b841016171561069a575081810a838111156106955761069561070c565b61016d565b6106a784848460016105ae565b8086048211156106b9576106b961070c565b02949350505050565b60008160001904831182151516156106dc576106dc61070c565b500290565b6000828210156106f3576106f361070c565b500390565b60008261070757610707610722565b500690565b634e487b7160e01b600052601160045260246000fd5b634e487b7160e01b600052601260045260246000fdfea2646970667358221220d63248bd5d5cfdf61a6b204fd73fd2f384b9a340eac3899c3e32eabe78020fba64736f6c63430008020033",
  "linkReferences": {},
  "deployedLinkReferences": {}
}