{
  "_format": "hh-sol-artifact-1",
  "contractName": "StrainzMaster",
  "sourceName": "contracts/StrainzMaster.sol",
  "abi": [
    {
      "inputs": [],
      "stateMutability": "nonpayable",
      "type": "constructor"
    },
    {
      "anonymous": false,
      "inputs": [
        {
          "indexed": true,
          "internalType": "address",
          "name": "previousOwner",
          "type": "address"
        },
        {
          "indexed": true,
          "internalType": "address",
          "name": "newOwner",
          "type": "address"
        }
      ],
      "name": "OwnershipTransferred",
      "type": "event"
    },
    {
      "inputs": [
        {
          "internalType": "uint256",
          "name": "_allocPoint",
          "type": "uint256"
        },
        {
          "internalType": "contract IERC20",
          "name": "_lpToken",
          "type": "address"
        },
        {
          "internalType": "bool",
          "name": "_withUpdate",
          "type": "bool"
        }
      ],
      "name": "addSeedzPool",
      "outputs": [],
      "stateMutability": "nonpayable",
      "type": "function"
    },
    {
      "inputs": [
        {
          "internalType": "uint256[]",
          "name": "tokens",
          "type": "uint256[]"
        },
        {
          "internalType": "address[]",
          "name": "users",
          "type": "address[]"
        }
      ],
      "name": "blacklistCheaters",
      "outputs": [],
      "stateMutability": "nonpayable",
      "type": "function"
    },
    {
      "inputs": [
        {
          "internalType": "uint256",
          "name": "bonus",
          "type": "uint256"
        }
      ],
      "name": "createNewAccessory",
      "outputs": [],
      "stateMutability": "nonpayable",
      "type": "function"
    },
    {
      "inputs": [],
      "name": "migrate",
      "outputs": [],
      "stateMutability": "nonpayable",
      "type": "function"
    },
    {
      "inputs": [
        {
          "internalType": "address",
          "name": "receiver",
          "type": "address"
        },
        {
          "internalType": "string",
          "name": "prefix",
          "type": "string"
        },
        {
          "internalType": "string",
          "name": "postfix",
          "type": "string"
        },
        {
          "internalType": "uint256",
          "name": "dna",
          "type": "uint256"
        }
      ],
      "name": "mintPromotion",
      "outputs": [],
      "stateMutability": "nonpayable",
      "type": "function"
    },
    {
      "inputs": [],
      "name": "owner",
      "outputs": [
        {
          "internalType": "address",
          "name": "",
          "type": "address"
        }
      ],
      "stateMutability": "view",
      "type": "function"
    },
    {
      "inputs": [],
      "name": "renounceOwnership",
      "outputs": [],
      "stateMutability": "nonpayable",
      "type": "function"
    },
    {
      "inputs": [],
      "name": "seedzToken",
      "outputs": [
        {
          "internalType": "contract SeedzToken",
          "name": "",
          "type": "address"
        }
      ],
      "stateMutability": "view",
      "type": "function"
    },
    {
      "inputs": [
        {
          "internalType": "uint256",
          "name": "accessoryType",
          "type": "uint256"
        },
        {
          "internalType": "uint256",
          "name": "bonus",
          "type": "uint256"
        }
      ],
      "name": "setAccessoryBonus",
      "outputs": [],
      "stateMutability": "nonpayable",
      "type": "function"
    },
    {
      "inputs": [
        {
          "internalType": "uint256",
          "name": "newBreedFertilizerCost",
          "type": "uint256"
        }
      ],
      "name": "setBreedFertilizerCost",
      "outputs": [],
      "stateMutability": "nonpayable",
      "type": "function"
    },
    {
      "inputs": [
        {
          "internalType": "uint256",
          "name": "newBreedingCostFactor",
          "type": "uint256"
        }
      ],
      "name": "setBreedingCostFactor",
      "outputs": [],
      "stateMutability": "nonpayable",
      "type": "function"
    },
    {
      "inputs": [
        {
          "internalType": "uint256",
          "name": "newCompostFactor",
          "type": "uint256"
        }
      ],
      "name": "setCompostFactor",
      "outputs": [],
      "stateMutability": "nonpayable",
      "type": "function"
    },
    {
      "inputs": [
        {
          "internalType": "uint256",
          "name": "newGrowFactor",
          "type": "uint256"
        }
      ],
      "name": "setGrowFactor",
      "outputs": [],
      "stateMutability": "nonpayable",
      "type": "function"
    },
    {
      "inputs": [
        {
          "internalType": "uint256",
          "name": "newCost",
          "type": "uint256"
        },
        {
          "internalType": "uint256",
          "name": "newBoost",
          "type": "uint256"
        }
      ],
      "name": "setGrowFertilizerDetails",
      "outputs": [],
      "stateMutability": "nonpayable",
      "type": "function"
    },
    {
      "inputs": [
        {
          "internalType": "uint256",
          "name": "newFee",
          "type": "uint256"
        }
      ],
      "name": "setMarketplaceFee",
      "outputs": [],
      "stateMutability": "nonpayable",
      "type": "function"
    },
    {
      "inputs": [
        {
          "internalType": "bool",
          "name": "active",
          "type": "bool"
        }
      ],
      "name": "setMigration",
      "outputs": [],
      "stateMutability": "nonpayable",
      "type": "function"
    },
    {
      "inputs": [
        {
          "internalType": "uint256",
          "name": "_seedzPerBlock",
          "type": "uint256"
        }
      ],
      "name": "setSeedzPerBlock",
      "outputs": [],
      "stateMutability": "nonpayable",
      "type": "function"
    },
    {
      "inputs": [
        {
          "internalType": "uint256",
          "name": "_pid",
          "type": "uint256"
        },
        {
          "internalType": "uint256",
          "name": "_allocPoint",
          "type": "uint256"
        },
        {
          "internalType": "bool",
          "name": "_withUpdate",
          "type": "bool"
        }
      ],
      "name": "setSeedzPool",
      "outputs": [],
      "stateMutability": "nonpayable",
      "type": "function"
    },
    {
      "inputs": [],
      "name": "strainzAccessory",
      "outputs": [
        {
          "internalType": "contract StrainzAccessory",
          "name": "",
          "type": "address"
        }
      ],
      "stateMutability": "view",
      "type": "function"
    },
    {
      "inputs": [],
      "name": "strainzMarketplace",
      "outputs": [
        {
          "internalType": "contract StrainzMarketplace",
          "name": "",
          "type": "address"
        }
      ],
      "stateMutability": "view",
      "type": "function"
    },
    {
      "inputs": [],
      "name": "strainzNFT",
      "outputs": [
        {
          "internalType": "contract StrainzNFT",
          "name": "",
          "type": "address"
        }
      ],
      "stateMutability": "view",
      "type": "function"
    },
    {
      "inputs": [],
      "name": "strainzToken",
      "outputs": [
        {
          "internalType": "contract StrainzToken",
          "name": "",
          "type": "address"
        }
      ],
      "stateMutability": "view",
      "type": "function"
    },
    {
      "inputs": [
        {
          "internalType": "address",
          "name": "newOwner",
          "type": "address"
        }
      ],
      "name": "transferOwnership",
      "outputs": [],
      "stateMutability": "nonpayable",
      "type": "function"
    }
  ],
  "bytecode": "0x6080604052604051620000129062000208565b604051809103906000f0801580156200002f573d6000803e3d6000fd5b50600180546001600160a01b0319166001600160a01b03929092169190911790556040516200005e9062000216565b604051809103906000f0801580156200007b573d6000803e3d6000fd5b50600280546001600160a01b0319166001600160a01b03929092169190911790556040513390620000ac9062000224565b6001600160a01b039091168152602001604051809103906000f080158015620000d9573d6000803e3d6000fd5b50600380546001600160a01b0319166001600160a01b039290921691909117905560405133906200010a9062000232565b6001600160a01b039091168152602001604051809103906000f08015801562000137573d6000803e3d6000fd5b50600480546001600160a01b0319166001600160a01b0392909216919091179055604051620001669062000240565b604051809103906000f08015801562000183573d6000803e3d6000fd5b506005805460ff60a01b196001600160a01b03939093166001600160a01b03199091161791909116600160a01b179055348015620001c057600080fd5b50600080546001600160a01b031916339081178255604051909182917f8be0079c531659141344cd1fd0a4f28419497f9722a3daafe3b4186f6b6457e0908290a3506200024e565b6145b980620015f483390190565b6113ec8062005bad83390190565b6120f08062006f9983390190565b613138806200908983390190565b610d93806200c1c183390190565b611396806200025e6000396000f3fe608060405234801561001057600080fd5b506004361061018d5760003560e01c80636e486562116100e35780639407ea981161008c578063daf585b211610066578063daf585b214610314578063f2fde38b14610327578063fe43e58d1461033a5761018d565b80639407ea98146102db578063a0f26c69146102ee578063b81a453a146103015761018d565b80637f1e250c116100bd5780637f1e250c146102af5780638da5cb5b146102c25780638fd3ab80146102d35761018d565b80636e48656214610281578063706908ff14610294578063715018a6146102a75761018d565b80634346afbc1161014557806363079d591161011f57806363079d591461024857806364bce6db1461025b578063663a2d6d1461026e5761018d565b80634346afbc146101f357806355cc8627146102225780635b6988cb146102355761018d565b806329e844ec1161017657806329e844ec146101ba5780633dc1d792146101cd578063410b49d4146101e05761018d565b806316ed2ec0146101925780632883cc1f146101a7575b600080fd5b6101a56101a0366004611113565b61034d565b005b6101a56101b5366004611113565b610415565b6101a56101c8366004611143565b6104a7565b6101a56101db366004611113565b61057c565b6101a56101ee366004611015565b61060e565b600554610206906001600160a01b031681565b6040516001600160a01b03909116815260200160405180910390f35b600354610206906001600160a01b031681565b6101a5610243366004611113565b6106dd565b6101a5610256366004611113565b61076f565b6101a5610269366004611180565b610805565b6101a561027c366004611113565b6108d0565b6101a561028f3660046111a1565b610962565b600154610206906001600160a01b031681565b6101a5610a03565b6101a56102bd3660046110f9565b610aa2565b6000546001600160a01b0316610206565b6101a5610b23565b6101a56102e9366004611113565b610c21565b6101a56102fc366004611090565b610cb3565b6101a561030f366004611180565b610d4a565b600454610206906001600160a01b031681565b6101a5610335366004610ff2565b610de1565b600254610206906001600160a01b031681565b6000546001600160a01b0316331461039a5760405162461bcd60e51b8152602060048201819052602482015260008051602061134183398151915260448201526064015b60405180910390fd5b6001546040517f16ed2ec0000000000000000000000000000000000000000000000000000000008152600481018390526001600160a01b03909116906316ed2ec0906024015b600060405180830381600087803b1580156103fa57600080fd5b505af115801561040e573d6000803e3d6000fd5b5050505050565b6000546001600160a01b0316331461045d5760405162461bcd60e51b815260206004820181905260248201526000805160206113418339815191526044820152606401610391565b6001546040517f2883cc1f000000000000000000000000000000000000000000000000000000008152600481018390526001600160a01b0390911690632883cc1f906024016103e0565b6000546001600160a01b031633146104ef5760405162461bcd60e51b815260206004820181905260248201526000805160206113418339815191526044820152606401610391565b6003546040517f1eaaa045000000000000000000000000000000000000000000000000000000008152600481018590526001600160a01b038481166024830152831515604483015290911690631eaaa045906064015b600060405180830381600087803b15801561055f57600080fd5b505af1158015610573573d6000803e3d6000fd5b50505050505050565b6000546001600160a01b031633146105c45760405162461bcd60e51b815260206004820181905260248201526000805160206113418339815191526044820152606401610391565b6003546040517f3dc1d792000000000000000000000000000000000000000000000000000000008152600481018390526001600160a01b0390911690633dc1d792906024016103e0565b6000546001600160a01b031633146106565760405162461bcd60e51b815260206004820181905260248201526000805160206113418339815191526044820152606401610391565b6001546040517f410b49d40000000000000000000000000000000000000000000000000000000081526001600160a01b039091169063410b49d4906106a5908790879087908790600401611217565b600060405180830381600087803b1580156106bf57600080fd5b505af11580156106d3573d6000803e3d6000fd5b5050505050505050565b6000546001600160a01b031633146107255760405162461bcd60e51b815260206004820181905260248201526000805160206113418339815191526044820152606401610391565b6001546040517f5b6988cb000000000000000000000000000000000000000000000000000000008152600481018390526001600160a01b0390911690635b6988cb906024016103e0565b6000546001600160a01b031633146107b75760405162461bcd60e51b815260206004820181905260248201526000805160206113418339815191526044820152606401610391565b600480546040517f2e0c6fba0000000000000000000000000000000000000000000000000000000081529182018390523360248301526001600160a01b031690632e0c6fba906044016103e0565b6000546001600160a01b0316331461084d5760405162461bcd60e51b815260206004820181905260248201526000805160206113418339815191526044820152606401610391565b6003546040517f64bce6db00000000000000000000000000000000000000000000000000000000815260048101849052602481018390526001600160a01b03909116906364bce6db906044015b600060405180830381600087803b1580156108b457600080fd5b505af11580156108c8573d6000803e3d6000fd5b505050505050565b6000546001600160a01b031633146109185760405162461bcd60e51b815260206004820181905260248201526000805160206113418339815191526044820152606401610391565b6001546040517f663a2d6d000000000000000000000000000000000000000000000000000000008152600481018390526001600160a01b039091169063663a2d6d906024016103e0565b6000546001600160a01b031633146109aa5760405162461bcd60e51b815260206004820181905260248201526000805160206113418339815191526044820152606401610391565b6003546040517f64482f79000000000000000000000000000000000000000000000000000000008152600481018590526024810184905282151560448201526001600160a01b03909116906364482f7990606401610545565b6000546001600160a01b03163314610a4b5760405162461bcd60e51b815260206004820181905260248201526000805160206113418339815191526044820152606401610391565b600080546040516001600160a01b03909116907f8be0079c531659141344cd1fd0a4f28419497f9722a3daafe3b4186f6b6457e0908390a36000805473ffffffffffffffffffffffffffffffffffffffff19169055565b6000546001600160a01b03163314610aea5760405162461bcd60e51b815260206004820181905260248201526000805160206113418339815191526044820152606401610391565b60058054911515600160a01b027fffffffffffffffffffffff00ffffffffffffffffffffffffffffffffffffffff909216919091179055565b600554600160a01b900460ff16610b3957600080fd5b6001546040517fce5494bb0000000000000000000000000000000000000000000000000000000081523360048201526000916001600160a01b03169063ce5494bb90602401602060405180830381600087803b158015610b9857600080fd5b505af1158015610bac573d6000803e3d6000fd5b505050506040513d601f19601f82011682018060405250810190610bd0919061112b565b6002546040517f40c10f19000000000000000000000000000000000000000000000000000000008152336004820152602481018390529192506001600160a01b0316906340c10f19906044016103e0565b6000546001600160a01b03163314610c695760405162461bcd60e51b815260206004820181905260248201526000805160206113418339815191526044820152606401610391565b6005546040517f9407ea98000000000000000000000000000000000000000000000000000000008152600481018390526001600160a01b0390911690639407ea98906024016103e0565b6000546001600160a01b03163314610cfb5760405162461bcd60e51b815260206004820181905260248201526000805160206113418339815191526044820152606401610391565b6001546040517fa0f26c690000000000000000000000000000000000000000000000000000000081526001600160a01b039091169063a0f26c69906106a590879087908790879060040161125d565b6000546001600160a01b03163314610d925760405162461bcd60e51b815260206004820181905260248201526000805160206113418339815191526044820152606401610391565b600480546040517fb81a453a000000000000000000000000000000000000000000000000000000008152918201849052602482018390526001600160a01b03169063b81a453a9060440161089a565b6000546001600160a01b03163314610e295760405162461bcd60e51b815260206004820181905260248201526000805160206113418339815191526044820152606401610391565b6001600160a01b038116610ea55760405162461bcd60e51b815260206004820152602660248201527f4f776e61626c653a206e6577206f776e657220697320746865207a65726f206160448201527f64647265737300000000000000000000000000000000000000000000000000006064820152608401610391565b600080546040516001600160a01b03808516939216917f8be0079c531659141344cd1fd0a4f28419497f9722a3daafe3b4186f6b6457e091a36000805473ffffffffffffffffffffffffffffffffffffffff19166001600160a01b0392909216919091179055565b60008083601f840112610f1e578081fd5b50813567ffffffffffffffff811115610f35578182fd5b6020830191508360208083028501011115610f4f57600080fd5b9250929050565b80358015158114610f6657600080fd5b919050565b600082601f830112610f7b578081fd5b813567ffffffffffffffff80821115610f9657610f966112f9565b604051601f8301601f19908116603f01168101908282118183101715610fbe57610fbe6112f9565b81604052838152866020858801011115610fd6578485fd5b8360208701602083013792830160200193909352509392505050565b600060208284031215611003578081fd5b813561100e81611328565b9392505050565b6000806000806080858703121561102a578283fd5b843561103581611328565b9350602085013567ffffffffffffffff80821115611051578485fd5b61105d88838901610f6b565b94506040870135915080821115611072578384fd5b5061107f87828801610f6b565b949793965093946060013593505050565b600080600080604085870312156110a5578384fd5b843567ffffffffffffffff808211156110bc578586fd5b6110c888838901610f0d565b909650945060208701359150808211156110e0578384fd5b506110ed87828801610f0d565b95989497509550505050565b60006020828403121561110a578081fd5b61100e82610f56565b600060208284031215611124578081fd5b5035919050565b60006020828403121561113c578081fd5b5051919050565b600080600060608486031215611157578283fd5b83359250602084013561116981611328565b915061117760408501610f56565b90509250925092565b60008060408385031215611192578182fd5b50508035926020909101359150565b6000806000606084860312156111b5578283fd5b833592506020840135915061117760408501610f56565b60008151808452815b818110156111f1576020818501810151868301820152016111d5565b818111156112025782602083870101525b50601f01601f19169290920160200192915050565b60006001600160a01b03861682526080602083015261123960808301866111cc565b828103604084015261124b81866111cc565b91505082606083015295945050505050565b6000604082528460408301527f07ffffffffffffffffffffffffffffffffffffffffffffffffffffffffffffff851115611295578081fd5b60208086028088606086013783018381036060908101838601528101859052859083906080015b868210156112ec5782356112cf81611328565b6001600160a01b03168152918301916001919091019083016112bc565b9998505050505050505050565b7f4e487b7100000000000000000000000000000000000000000000000000000000600052604160045260246000fd5b6001600160a01b038116811461133d57600080fd5b5056fe4f776e61626c653a2063616c6c6572206973206e6f7420746865206f776e6572a264697066735822122098ac111eacb1dfb6e25b2ad815125979890a96def5428c2e99b30ff887bf432b64736f6c634300080200336080604052600a600b5563622c1f88600c556064600d556005600e55683635c9adc5dea00000600f55601480546001600160a01b03199081167359516426a8bb328d2f546b05421cbc047042e38f1790915560158054909116737f1addbb144363730a433a21acdab7b36f9882521790553480156200007d57600080fd5b506040518060400160405280600781526020016629ba3930b4b73d60c91b8152506040518060400160405280600781526020016629aa2920a4a72d60c91b8152508160009080519060200190620000d692919062000107565b508051620000ec90600190602084019062000107565b5050601180546001600160a01b0319163317905550620001ea565b8280546200011590620001ad565b90600052602060002090601f01602090048101928262000139576000855562000184565b82601f106200015457805160ff191683800117855562000184565b8280016001018555821562000184579182015b828111156200018457825182559160200191906001019062000167565b506200019292915062000196565b5090565b5b8082111562000192576000815560010162000197565b600281046001821680620001c257607f821691505b60208210811415620001e457634e487b7160e01b600052602260045260246000fd5b50919050565b6143bf80620001fa6000396000f3fe608060405234801561001057600080fd5b50600436106102de5760003560e01c80635b6988cb11610186578063a22cb465116100e3578063ce5494bb11610097578063e1bb725711610071578063e1bb7257146105dc578063e985e9c5146105e5578063fb3576fa14610621576102de565b8063ce5494bb1461059a578063df9eaecb146105ad578063e14285bb146105b5576102de565b8063b2b9b7c0116100c8578063b2b9b7c014610561578063b88d4fde14610574578063c87b56dd14610587576102de565b8063a22cb4651461053b578063a2f6031f1461054e576102de565b806370a082311161013a57806395d89b411161011f57806395d89b411461050d5780639e42244714610515578063a0f26c6914610528576102de565b806370a08231146104e7578063714cb50f146104fa576102de565b80636352211e1161016b5780636352211e146104ae578063663a2d6d146104c15780636cf683da146104d4576102de565b80635b6988cb14610488578063629b7d731461049b576102de565b806320603fed1161023f5780632f745c59116101f357806342842e0e116101cd57806342842e0e1461044f5780634f6ccce71461046257806354314d7c14610475576102de565b80632f745c59146104165780633538339f14610429578063410b49d41461043c576102de565b806323b872dd1161022457806323b872dd146103e75780632883cc1f146103fa5780632a8757bf1461040d576102de565b806320603fed146103c157806322fcdcf7146103d4576102de565b8063095ea7b3116102965780631424494d1161027b5780631424494d1461039357806316ed2ec0146103a657806318160ddd146103b9576102de565b8063095ea7b314610375578063130223941461038a576102de565b806304976ba6116102c757806304976ba61461032257806306fdde0314610335578063081812fc1461034a576102de565b806301ffc9a7146102e3578063037e37251461030b575b600080fd5b6102f66102f1366004613de6565b61062a565b60405190151581526020015b60405180910390f35b610314600c5481565b604051908152602001610302565b610314610330366004613e3a565b610670565b61033d6106ea565b6040516103029190614016565b61035d610358366004613e3a565b61077c565b6040516001600160a01b039091168152602001610302565b610388610383366004613d36565b610816565b005b610314600e5481565b6103886103a1366004613e3a565b610948565b6103886103b4366004613e3a565b610bd0565b600854610314565b6103146103cf366004613e3a565b610bec565b6103886103e2366004613f26565b610ca3565b6103886103f5366004613b42565b6110bf565b610388610408366004613e3a565b611146565b610314600f5481565b610314610424366004613d36565b611162565b610314610437366004613e3a565b61120d565b61038861044a366004613c2c565b61121b565b61038861045d366004613b42565b611249565b610314610470366004613e3a565b611264565b610314610483366004613e3a565b611316565b610388610496366004613e3a565b611346565b6103146104a9366004613f05565b611362565b61035d6104bc366004613e3a565b611397565b6103886104cf366004613e3a565b611422565b6103146104e2366004613f05565b61143e565b6103146104f5366004613aee565b611761565b610314610508366004613e3a565b6117fb565b61033d611a76565b610314610523366004613f5e565b611a85565b610388610536366004613d61565b611aaa565b610388610549366004613bff565b611bb2565b61031461055c366004613e3a565b611c84565b61031461056f366004613ca7565b611ca2565b610388610582366004613b82565b611dcd565b61033d610595366004613e3a565b611e5b565b6103146105a8366004613aee565b611f43565b6103886124a6565b6105c86105c3366004613e3a565b61263c565b604051610302989796959493929190614029565b610314600b5481565b6102f66105f3366004613b0a565b6001600160a01b03918216600090815260056020908152604080832093909416825291909152205460ff1690565b610314600d5481565b60006001600160e01b031982167f780e9d6300000000000000000000000000000000000000000000000000000000148061066857506106688261278d565b90505b919050565b60008181526010602052604081206006810154829061069c90610693904261423b565b620bdd80612828565b90506106e260106283d60083600b5486600501546106ba919061421c565b6106c4919061421c565b6106ce91906140f4565b84600501546106dd919061423b565b612840565b949350505050565b6060600080546106f99061427e565b80601f01602080910402602001604051908101604052809291908181526020018280546107259061427e565b80156107725780601f1061074757610100808354040283529160200191610772565b820191906000526020600020905b81548152906001019060200180831161075557829003601f168201915b5050505050905090565b6000818152600260205260408120546001600160a01b03166107fa5760405162461bcd60e51b815260206004820152602c60248201527f4552433732313a20617070726f76656420717565727920666f72206e6f6e657860448201526b34b9ba32b73a103a37b5b2b760a11b60648201526084015b60405180910390fd5b506000908152600460205260409020546001600160a01b031690565b600061082182611397565b9050806001600160a01b0316836001600160a01b031614156108ab5760405162461bcd60e51b815260206004820152602160248201527f4552433732313a20617070726f76616c20746f2063757272656e74206f776e6560448201527f720000000000000000000000000000000000000000000000000000000000000060648201526084016107f1565b336001600160a01b03821614806108c757506108c781336105f3565b6109395760405162461bcd60e51b815260206004820152603860248201527f4552433732313a20617070726f76652063616c6c6572206973206e6f74206f7760448201527f6e6572206e6f7220617070726f76656420666f7220616c6c000000000000000060648201526084016107f1565b6109438383612851565b505050565b3361095282611397565b6001600160a01b03161461096557600080fd5b60008181526010602090815260409182902060115483517fdaf585b2000000000000000000000000000000000000000000000000000000008152935191936001600160a01b039091169263daf585b292600480840193829003018186803b1580156109cf57600080fd5b505afa1580156109e3573d6000803e3d6000fd5b505050506040513d601f19601f82011682018060405250810190610a079190613e1e565b6001600160a01b0316639d0cd89e836040518263ffffffff1660e01b8152600401610a3491815260200190565b600060405180830381600087803b158015610a4e57600080fd5b505af1158015610a62573d6000803e3d6000fd5b50505050610a6f826128cc565b601160009054906101000a90046001600160a01b03166001600160a01b03166355cc86276040518163ffffffff1660e01b815260040160206040518083038186803b158015610abd57600080fd5b505afa158015610ad1573d6000803e3d6000fd5b505050506040513d601f19601f82011682018060405250810190610af59190613e1e565b6001600160a01b03166342c304b5336064600d548560050154670de0b6b3a7640000610b21919061421c565b610b2b919061421c565b610b3591906140f4565b6040516001600160e01b031960e085901b1681526001600160a01b0390921660048301526024820152604401600060405180830381600087803b158015610b7b57600080fd5b505af1158015610b8f573d6000803e3d6000fd5b505050507f30f6ee1c7b8eb7349c887acbbbd691fc92bd38eacc6341de20458431525e610c82604051610bc491815260200190565b60405180910390a15050565b6011546001600160a01b03163314610be757600080fd5b600d55565b600081815260106020526040812081610c0484610670565b90506000818360050154610c18919061423b565b90506000610c286104f587611397565b9050600160fa821115610c3d57506009610c8e565b60c8821115610c4e57506008610c8e565b6064821115610c5f57506007610c8e565b6032821115610c7057506005610c8e565b600a821115610c8157506003610c8e565b6005821115610c8e575060025b610c98838261421c565b979650505050505050565b33610cad84611397565b6001600160a01b0316148015610cd3575033610cc883611397565b6001600160a01b0316145b610cdc57600080fd5b6000838152601060205260408082208483529082206007808201549083015492939192600291610d0b916140dc565b610d1591906140f4565b9050601160009054906101000a90046001600160a01b03166001600160a01b031663fe43e58d6040518163ffffffff1660e01b815260040160206040518083038186803b158015610d6557600080fd5b505afa158015610d79573d6000803e3d6000fd5b505050506040513d601f19601f82011682018060405250810190610d9d9190613e1e565b6040517f79cc6790000000000000000000000000000000000000000000000000000000008152336004820152602481018390526001600160a01b0391909116906379cc679090604401600060405180830381600087803b158015610e0057600080fd5b505af1158015610e14573d6000803e3d6000fd5b505050506000610e25848487612980565b90506000600284600501548660050154610e3f91906140dc565b610e4991906140f4565b9050858015610e59575060808110155b1561107057601160009054906101000a90046001600160a01b03166001600160a01b03166355cc86276040518163ffffffff1660e01b815260040160206040518083038186803b158015610eac57600080fd5b505afa158015610ec0573d6000803e3d6000fd5b505050506040513d601f19601f82011682018060405250810190610ee49190613e1e565b600f546040517f0fa4b11100000000000000000000000000000000000000000000000000000000815233600482015260248101919091526001600160a01b039190911690630fa4b11190604401600060405180830381600087803b158015610f4b57600080fd5b505af1158015610f5f573d6000803e3d6000fd5b50505050601160009054906101000a90046001600160a01b03166001600160a01b031663daf585b26040518163ffffffff1660e01b815260040160206040518083038186803b158015610fb157600080fd5b505afa158015610fc5573d6000803e3d6000fd5b505050506040513d601f19601f82011682018060405250810190610fe99190613e1e565b855485546040517f2b6d06a400000000000000000000000000000000000000000000000000000000815260048101929092526024820152604481018490526001600160a01b039190911690632b6d06a490606401600060405180830381600087803b15801561105757600080fd5b505af115801561106b573d6000803e3d6000fd5b505050505b8454845460408051928352602083019190915281018390527f9ca383290f66cf05e07fed022366cb0e56f67485387cbc0a5911e8c6fc8045539060600160405180910390a15050505050505050565b6110c93382612b65565b61113b5760405162461bcd60e51b815260206004820152603160248201527f4552433732313a207472616e736665722063616c6c6572206973206e6f74206f60448201527f776e6572206e6f7220617070726f76656400000000000000000000000000000060648201526084016107f1565b610943838383612c58565b6011546001600160a01b0316331461115d57600080fd5b600f55565b600061116d83611761565b82106111e15760405162461bcd60e51b815260206004820152602b60248201527f455243373231456e756d657261626c653a206f776e657220696e646578206f7560448201527f74206f6620626f756e647300000000000000000000000000000000000000000060648201526084016107f1565b506001600160a01b03821660009081526006602090815260408083208484529091529020545b92915050565b60006106686103e8836142d4565b6011546001600160a01b0316331461123257600080fd5b61124284848484600060ff611ca2565b5050505050565b61094383838360405180602001604052806000815250611dcd565b600061126f60085490565b82106112e35760405162461bcd60e51b815260206004820152602c60248201527f455243373231456e756d657261626c653a20676c6f62616c20696e646578206f60448201527f7574206f6620626f756e6473000000000000000000000000000000000000000060648201526084016107f1565b6008828154811061130457634e487b7160e01b600052603260045260246000fd5b90600052602060002001549050919050565b60006103e861132581846142d4565b611332620f4240856142d4565b61133c919061423b565b61066891906140f4565b6011546001600160a01b0316331461135d57600080fd5b600c55565b6000600a61137183600f61423b565b61137c90600a61414e565b61138690856140f4565b61139091906142d4565b9392505050565b6000818152600260205260408120546001600160a01b0316806106685760405162461bcd60e51b815260206004820152602960248201527f4552433732313a206f776e657220717565727920666f72206e6f6e657869737460448201527f656e7420746f6b656e000000000000000000000000000000000000000000000060648201526084016107f1565b6011546001600160a01b0316331461143957600080fd5b600e55565b60008061144c610100612e3d565b9050600060405180610140016040528060078461146a886000611362565b6114758a6000611362565b61147f919061421c565b611489919061421c565b61149391906142d4565b61149e9060016140dc565b81526020016007846114b1886001611362565b6114bc8a6001611362565b6114c6919061421c565b6114d0919061421c565b6114da91906142d4565b6114e59060016140dc565b81526020016006846114f8886002611362565b6115038a6002611362565b61150d919061421c565b611517919061421c565b61152191906142d4565b61152c9060016140dc565b815260200160058461153f886003611362565b61154a8a6003611362565b611554919061421c565b61155e919061421c565b61156891906142d4565b6115739060016140dc565b81526020016000815260200160008152602001600081526020016101008461159a88611c84565b6115a38a611c84565b6115ad919061421c565b6115b791906140dc565b6115c191906142d4565b8152602001610100846115d388611316565b6115dc8a611316565b6115e6919061421c565b6115f091906140dc565b6115fa91906142d4565b81526020016101008461160c8861120d565b6116158a61120d565b61161f919061421c565b61162991906140dc565b61163391906142d4565b8152509050600061010082610120015161164d91906142d4565b61010083015161165f906103e861421c565b60e084015161167190620f424061421c565b60c085015161168490633b9aca0061421c565b60a0860151611698906402540be40061421c565b60808701516116ac9064174876e80061421c565b60608801516116c09064e8d4a5100061421c565b60408901516116d5906509184e72a00061421c565b60208a01516116ea90655af3107a400061421c565b8a516116fd9066038d7ea4c6800061421c565b61170791906140dc565b61171191906140dc565b61171b91906140dc565b61172591906140dc565b61172f91906140dc565b61173991906140dc565b61174391906140dc565b61174d91906140dc565b61175791906140dc565b9695505050505050565b60006001600160a01b0382166117df5760405162461bcd60e51b815260206004820152602a60248201527f4552433732313a2062616c616e636520717565727920666f7220746865207a6560448201527f726f20616464726573730000000000000000000000000000000000000000000060648201526084016107f1565b506001600160a01b031660009081526003602052604090205490565b60008181526010602052604081206006810154829061181a904261423b565b90506000601160009054906101000a90046001600160a01b03166001600160a01b03166355cc86276040518163ffffffff1660e01b815260040160206040518083038186803b15801561186c57600080fd5b505afa158015611880573d6000803e3d6000fd5b505050506040513d601f19601f820116820180604052508101906118a49190613e1e565b6001600160a01b03166302ca671d8685600601546040518363ffffffff1660e01b81526004016118de929190918252602082015260400190565b60206040518083038186803b1580156118f657600080fd5b505afa15801561190a573d6000803e3d6000fd5b505050506040513d601f19601f8201168201806040525081019061192e9190613e52565b90506000601160009054906101000a90046001600160a01b03166001600160a01b031663daf585b26040518163ffffffff1660e01b815260040160206040518083038186803b15801561198057600080fd5b505afa158015611994573d6000803e3d6000fd5b505050506040513d601f19601f820116820180604052508101906119b89190613e1e565b6040517f5a22f03e00000000000000000000000000000000000000000000000000000000815260048101889052602481018590526001600160a01b039190911690635a22f03e9060440160206040518083038186803b158015611a1a57600080fd5b505afa158015611a2e573d6000803e3d6000fd5b505050506040513d601f19601f82011682018060405250810190611a529190613e52565b90506000611a5f85612e7f565b905081611a6c84836140dc565b610c9891906140dc565b6060600180546106f99061427e565b6000828410611aa257818411611a9b5783611a9d565b815b6106e2565b509092915050565b6011546001600160a01b03163314611ac157600080fd5b60005b83811015611b3157600160126000878785818110611af257634e487b7160e01b600052603260045260246000fd5b90506020020135815260200190815260200160002060006101000a81548160ff0219169083151502179055508080611b29906142b9565b915050611ac4565b5060005b8181101561124257600160136000858585818110611b6357634e487b7160e01b600052603260045260246000fd5b9050602002016020810190611b789190613aee565b6001600160a01b031681526020810191909152604001600020805460ff191691151591909117905580611baa816142b9565b915050611b35565b6001600160a01b038216331415611c0b5760405162461bcd60e51b815260206004820152601960248201527f4552433732313a20617070726f766520746f2063616c6c65720000000000000060448201526064016107f1565b3360008181526005602090815260408083206001600160a01b0387168085529252909120805460ff1916841515179055906001600160a01b03167f17307eab39ab6107e8899845ad3d59bd9653f200f220920489ca2b5937696c3183604051611c78911515815260200190565b60405180910390a35050565b6000620f4240611c9481846142d4565b611332633b9aca00856142d4565b6000611cb2600a80546001019055565b6000611cbd600a5490565b9050611cc98882612f80565b604051806101000160405280828152602001888152602001878152602001868152602001858152602001848152602001428152602001600e5485611d0d919061421c565b90526000828152601060209081526040909120825181558282015180519192611d3e9260018501929091019061396c565b5060408201518051611d5a91600284019160209091019061396c565b50606082015160038201556080820151600482015560a0820151600582015560c0820151600682015560e0909101516007909101556040518181527f176b02bb2d12439ff7a20b59f402cca16c76f50508b13ef3166a600eb719354a9060200160405180910390a1979650505050505050565b611dd73383612b65565b611e495760405162461bcd60e51b815260206004820152603160248201527f4552433732313a207472616e736665722063616c6c6572206973206e6f74206f60448201527f776e6572206e6f7220617070726f76656400000000000000000000000000000060648201526084016107f1565b611e55848484846130db565b50505050565b6000818152600260205260409020546060906001600160a01b0316611ee85760405162461bcd60e51b815260206004820152602f60248201527f4552433732314d657461646174613a2055524920717565727920666f72206e6f60448201527f6e6578697374656e7420746f6b656e000000000000000000000000000000000060648201526084016107f1565b6000611ef2613164565b90506000815111611f125760405180602001604052806000815250611390565b80611f1c84613184565b604051602001611f2d929190613fb5565b6040516020818303038152906040529392505050565b6011546000906001600160a01b03163314611f5d57600080fd5b6014546040516370a0823160e01b81526001600160a01b038481166004830152600092611fe992603292909116906370a082319060240160206040518083038186803b158015611fac57600080fd5b505afa158015611fc0573d6000803e3d6000fd5b505050506040513d601f19601f82011682018060405250810190611fe49190613e52565b612828565b6001600160a01b0384166000908152601360205260408120549192509060ff1682156123765760005b83811015612374576014546040517f2f745c590000000000000000000000000000000000000000000000000000000081526001600160a01b038881166004830152600060248301819052921690632f745c599060440160206040518083038186803b15801561208057600080fd5b505afa158015612094573d6000803e3d6000fd5b505050506040513d601f19601f820116820180604052508101906120b89190613e52565b905060006120c5826132d3565b6014546040516323b872dd60e01b81526001600160a01b038b81166004830152306024830152604482018690529293509116906323b872dd90606401600060405180830381600087803b15801561211b57600080fd5b505af115801561212f573d6000803e3d6000fd5b50505060008381526012602052604090205460ff161590508015612151575083155b1561235f5760008160c0015142612168919061423b565b9050600062dd7c00828460a0015160ff612182919061421c565b61218c919061421c565b61219691906140f4565b90506121a281886140dc565b965060006121cd8b856020015186604001518760600151886080015161056f60108b60a00151612840565b90506121d884613426565b60008281526010602052604081206007019190915560608501516121fd906004611362565b6001149050600061221386606001516005611362565b6001149050600061222987606001516006611362565b600114905082806122375750815b8061223f5750805b1561235857601160009054906101000a90046001600160a01b03166001600160a01b031663daf585b26040518163ffffffff1660e01b815260040160206040518083038186803b15801561229257600080fd5b505afa1580156122a6573d6000803e3d6000fd5b505050506040513d601f19601f820116820180604052508101906122ca9190613e1e565b6040517f1acf8acd000000000000000000000000000000000000000000000000000000008152600481018690528415156024820152831515604482015282151560648201526001600160a01b039190911690631acf8acd90608401600060405180830381600087803b15801561233f57600080fd5b505af1158015612353573d6000803e3d6000fd5b505050505b5050505050505b5050808061236c906142b9565b915050612012565b505b6015546040516370a0823160e01b81526001600160a01b03878116600483015260009216906370a082319060240160206040518083038186803b1580156123bc57600080fd5b505afa1580156123d0573d6000803e3d6000fd5b505050506040513d601f19601f820116820180604052508101906123f49190613e52565b6015546040516323b872dd60e01b81526001600160a01b038981166004830152306024830152604482018490529293509116906323b872dd90606401602060405180830381600087803b15801561244a57600080fd5b505af115801561245e573d6000803e3d6000fd5b505050506040513d601f19601f820116820180604052508101906124829190613dca565b5061248d81846140dc565b92508161249a5782611757565b60009695505050505050565b60006124b133611761565b9050600081116124c057600080fd5b6000805b82811015612536576000601060006124dc3385611162565b815260200190815260200160002090506124f98160000154610bec565b8154612504906117fb565b61250e919061423b565b61251890846140dc565b4260069092019190915591508061252e816142b9565b9150506124c4565b50601160009054906101000a90046001600160a01b03166001600160a01b031663fe43e58d6040518163ffffffff1660e01b815260040160206040518083038186803b15801561258557600080fd5b505afa158015612599573d6000803e3d6000fd5b505050506040513d601f19601f820116820180604052508101906125bd9190613e1e565b6040517f40c10f19000000000000000000000000000000000000000000000000000000008152336004820152602481018390526001600160a01b0391909116906340c10f1990604401600060405180830381600087803b15801561262057600080fd5b505af1158015612634573d6000803e3d6000fd5b505050505050565b6010602052600090815260409020805460018201805491929161265e9061427e565b80601f016020809104026020016040519081016040528092919081815260200182805461268a9061427e565b80156126d75780601f106126ac576101008083540402835291602001916126d7565b820191906000526020600020905b8154815290600101906020018083116126ba57829003601f168201915b5050505050908060020180546126ec9061427e565b80601f01602080910402602001604051908101604052809291908181526020018280546127189061427e565b80156127655780601f1061273a57610100808354040283529160200191612765565b820191906000526020600020905b81548152906001019060200180831161274857829003601f168201915b5050505050908060030154908060040154908060050154908060060154908060070154905088565b60006001600160e01b031982167f80ac58cd0000000000000000000000000000000000000000000000000000000014806127f057506001600160e01b031982167f5b5e139f00000000000000000000000000000000000000000000000000000000145b8061066857507f01ffc9a7000000000000000000000000000000000000000000000000000000006001600160e01b0319831614610668565b600081831015612839575081611207565b5080611207565b600081831115612839575081611207565b6000818152600460205260409020805473ffffffffffffffffffffffffffffffffffffffff19166001600160a01b038416908117909155819061289382611397565b6001600160a01b03167f8c5be1e5ebec7d5bd14f71427d1e84f3dd0314c0f7b2291e5b200ac8c7c3b92560405160405180910390a45050565b60006128d782611397565b90506128e581600084613535565b6128f0600083612851565b6001600160a01b038116600090815260036020526040812080546001929061291990849061423b565b9091555050600082815260026020526040808220805473ffffffffffffffffffffffffffffffffffffffff19169055518391906001600160a01b038416907fddf252ad1be2c89b69c2b068fc378daa952ba7f163c4a11628f55a4df523b3ef908390a45050565b6000806129958560030154856003015461143e565b905060006129ab86600401548660040154612840565b6129b69060016140dc565b905060006129c56002436142d4565b600e546005890154911592506129da9161421c565b87600701546129e991906140dc565b6007880155600e546005870154612a00919061421c565b8660070154612a0f91906140dc565b6007870155610c983382612a265787600101612a2b565b886001015b8054612a369061427e565b80601f0160208091040260200160405190810160405280929190818152602001828054612a629061427e565b8015612aaf5780601f10612a8457610100808354040283529160200191612aaf565b820191906000526020600020905b815481529060010190602001808311612a9257829003601f168201915b505050505083612ac25789600201612ac7565b886002015b8054612ad29061427e565b80601f0160208091040260200160405190810160405280929190818152602001828054612afe9061427e565b8015612b4b5780601f10612b2057610100808354040283529160200191612b4b565b820191906000526020600020905b815481529060010190602001808311612b2e57829003601f168201915b5050505050868661056f8d600501548d600501548d6135f2565b6000818152600260205260408120546001600160a01b0316612bde5760405162461bcd60e51b815260206004820152602c60248201527f4552433732313a206f70657261746f7220717565727920666f72206e6f6e657860448201526b34b9ba32b73a103a37b5b2b760a11b60648201526084016107f1565b6000612be983611397565b9050806001600160a01b0316846001600160a01b03161480612c245750836001600160a01b0316612c198461077c565b6001600160a01b0316145b806106e257506001600160a01b0380821660009081526005602090815260408083209388168352929052205460ff166106e2565b826001600160a01b0316612c6b82611397565b6001600160a01b031614612ce75760405162461bcd60e51b815260206004820152602960248201527f4552433732313a207472616e73666572206f6620746f6b656e2074686174206960448201527f73206e6f74206f776e000000000000000000000000000000000000000000000060648201526084016107f1565b6001600160a01b038216612d625760405162461bcd60e51b8152602060048201526024808201527f4552433732313a207472616e7366657220746f20746865207a65726f2061646460448201527f726573730000000000000000000000000000000000000000000000000000000060648201526084016107f1565b612d6d838383613535565b612d78600082612851565b6001600160a01b0383166000908152600360205260408120805460019290612da190849061423b565b90915550506001600160a01b0382166000908152600360205260408120805460019290612dcf9084906140dc565b9091555050600081815260026020526040808220805473ffffffffffffffffffffffffffffffffffffffff19166001600160a01b0386811691821790925591518493918716917fddf252ad1be2c89b69c2b068fc378daa952ba7f163c4a11628f55a4df523b3ef91a4505050565b6000814442604051602001612e5c929190918252602082015260400190565b6040516020818303038152906040528051906020012060001c61066891906142d4565b600080612e95836006015442610693919061423b565b90506000600c548460050154612eab919061421c565b90506000633b9aca006422c2ed000084612ec5818661421c565b612ecf919061421c565b85612edb86601461421c565b612ee5919061421c565b612ef2906201518061421c565b612efc919061423b565b612f0691906140f4565b612f1091906140f4565b90506000620bdd80866006015442612f28919061423b565b1115612f7657661eb208c2dc000083876006015442612f47919061423b565b612f5490620bdd806140dc565b612f5e919061421c565b612f6990600a61421c565b612f7391906140f4565b90505b61175781836140dc565b6001600160a01b038216612fd65760405162461bcd60e51b815260206004820181905260248201527f4552433732313a206d696e7420746f20746865207a65726f206164647265737360448201526064016107f1565b6000818152600260205260409020546001600160a01b03161561303b5760405162461bcd60e51b815260206004820152601c60248201527f4552433732313a20746f6b656e20616c7265616479206d696e7465640000000060448201526064016107f1565b61304760008383613535565b6001600160a01b03821660009081526003602052604081208054600192906130709084906140dc565b9091555050600081815260026020526040808220805473ffffffffffffffffffffffffffffffffffffffff19166001600160a01b03861690811790915590518392907fddf252ad1be2c89b69c2b068fc378daa952ba7f163c4a11628f55a4df523b3ef908290a45050565b6130e6848484612c58565b6130f28484848461364f565b611e555760405162461bcd60e51b815260206004820152603260248201527f4552433732313a207472616e7366657220746f206e6f6e20455243373231526560448201527f63656976657220696d706c656d656e746572000000000000000000000000000060648201526084016107f1565b606060405180606001604052806023815260200161436760239139905090565b6060816131c5575060408051808201909152600181527f3000000000000000000000000000000000000000000000000000000000000000602082015261066b565b8160005b81156131ef57806131d9816142b9565b91506131e89050600a836140f4565b91506131c9565b60008167ffffffffffffffff81111561321857634e487b7160e01b600052604160045260246000fd5b6040519080825280601f01601f191660200182016040528015613242576020820181803683370190505b5090505b84156106e25761325760018361423b565b9150613264600a866142d4565b61326f9060306140dc565b60f81b81838151811061329257634e487b7160e01b600052603260045260246000fd5b60200101907effffffffffffffffffffffffffffffffffffffffffffffffffffffffffffff1916908160001a9053506132cc600a866140f4565b9450613246565b61331b60405180610100016040528060008152602001606081526020016060815260200160008152602001600081526020016000815260200160008152602001600081525090565b6014546040517fe14285bb0000000000000000000000000000000000000000000000000000000081526004810184905260009182918291829182918291829182916001600160a01b039091169063e14285bb9060240160006040518083038186803b15801561338957600080fd5b505afa15801561339d573d6000803e3d6000fd5b505050506040513d6000823e601f3d908101601f191682016040526133c59190810190613e6a565b9750975097509750975097509750975060405180610100016040528089815260200188815260200187815260200186815260200185815260200161340a601086612840565b8152602081019390935260409092015298975050505050505050565b60008160e001516103e8141561344d5760a082015161344690600561421c565b905061066b565b8160e001516107d014156134765760a082015161346b90600561421c565b61344690600261421c565b8160e00151610fa0141561349f5760a082015161349490600561421c565b61344690600361421c565b8160e00151611f4014156134c85760a08201516134bd90600561421c565b61344690600461421c565b8160e00151613e8014156134f15760a08201516134e690600561421c565b61344690600561421c565b8160e00151617d00141561351a5760a082015161350f90600561421c565b61344690600661421c565b60a082015161352a90600561421c565b61344690600761421c565b6001600160a01b0383166135905761358b81600880546000838152600960205260408120829055600182018355919091527ff3f7a9fe364faab93b216da50a3214154f22a0a2b415b23a84c8169e8b636ee30155565b6135b3565b816001600160a01b0316836001600160a01b0316146135b3576135b383826137b2565b6001600160a01b0382166135cf576135ca8161384f565b610943565b826001600160a01b0316826001600160a01b031614610943576109438282613928565b600080600261360185876140dc565b61360b91906140f4565b905082613631576029811161362157601061362c565b61362c60198261423b565b613646565b61364661363f82600a6140dc565b60ff612828565b95945050505050565b60006001600160a01b0384163b156137a757604051630a85bd0160e11b81526001600160a01b0385169063150b7a0290613693903390899088908890600401613fe4565b602060405180830381600087803b1580156136ad57600080fd5b505af19250505080156136dd575060408051601f3d908101601f191682019092526136da91810190613e02565b60015b61378d573d80801561370b576040519150601f19603f3d011682016040523d82523d6000602084013e613710565b606091505b5080516137855760405162461bcd60e51b815260206004820152603260248201527f4552433732313a207472616e7366657220746f206e6f6e20455243373231526560448201527f63656976657220696d706c656d656e746572000000000000000000000000000060648201526084016107f1565b805181602001fd5b6001600160e01b031916630a85bd0160e11b1490506106e2565b506001949350505050565b600060016137bf84611761565b6137c9919061423b565b60008381526007602052604090205490915080821461381c576001600160a01b03841660009081526006602090815260408083208584528252808320548484528184208190558352600790915290208190555b5060009182526007602090815260408084208490556001600160a01b039094168352600681528383209183525290812055565b6008546000906138619060019061423b565b6000838152600960205260408120546008805493945090928490811061389757634e487b7160e01b600052603260045260246000fd5b9060005260206000200154905080600883815481106138c657634e487b7160e01b600052603260045260246000fd5b600091825260208083209091019290925582815260099091526040808220849055858252812055600880548061390c57634e487b7160e01b600052603160045260246000fd5b6001900381819060005260206000200160009055905550505050565b600061393383611761565b6001600160a01b039093166000908152600660209081526040808320868452825280832085905593825260079052919091209190915550565b8280546139789061427e565b90600052602060002090601f01602090048101928261399a57600085556139e0565b82601f106139b357805160ff19168380011785556139e0565b828001600101855582156139e0579182015b828111156139e05782518255916020019190600101906139c5565b506139ec9291506139f0565b5090565b5b808211156139ec57600081556001016139f1565b6000613a18613a13846140b4565b614083565b9050828152838383011115613a2c57600080fd5b828260208301376000602084830101529392505050565b60008083601f840112613a54578182fd5b50813567ffffffffffffffff811115613a6b578182fd5b6020830191508360208083028501011115613a8557600080fd5b9250929050565b600082601f830112613a9c578081fd5b61139083833560208501613a05565b600082601f830112613abb578081fd5b8151613ac9613a13826140b4565b818152846020838601011115613add578283fd5b6106e2826020830160208701614252565b600060208284031215613aff578081fd5b81356113908161432a565b60008060408385031215613b1c578081fd5b8235613b278161432a565b91506020830135613b378161432a565b809150509250929050565b600080600060608486031215613b56578081fd5b8335613b618161432a565b92506020840135613b718161432a565b929592945050506040919091013590565b60008060008060808587031215613b97578081fd5b8435613ba28161432a565b93506020850135613bb28161432a565b925060408501359150606085013567ffffffffffffffff811115613bd4578182fd5b8501601f81018713613be4578182fd5b613bf387823560208401613a05565b91505092959194509250565b60008060408385031215613c11578182fd5b8235613c1c8161432a565b91506020830135613b3781614342565b60008060008060808587031215613c41578384fd5b8435613c4c8161432a565b9350602085013567ffffffffffffffff80821115613c68578485fd5b613c7488838901613a8c565b94506040870135915080821115613c89578384fd5b50613c9687828801613a8c565b949793965093946060013593505050565b60008060008060008060c08789031215613cbf578384fd5b8635613cca8161432a565b9550602087013567ffffffffffffffff80821115613ce6578586fd5b613cf28a838b01613a8c565b96506040890135915080821115613d07578586fd5b50613d1489828a01613a8c565b945050606087013592506080870135915060a087013590509295509295509295565b60008060408385031215613d48578182fd5b8235613d538161432a565b946020939093013593505050565b60008060008060408587031215613d76578182fd5b843567ffffffffffffffff80821115613d8d578384fd5b613d9988838901613a43565b90965094506020870135915080821115613db1578384fd5b50613dbe87828801613a43565b95989497509550505050565b600060208284031215613ddb578081fd5b815161139081614342565b600060208284031215613df7578081fd5b813561139081614350565b600060208284031215613e13578081fd5b815161139081614350565b600060208284031215613e2f578081fd5b81516113908161432a565b600060208284031215613e4b578081fd5b5035919050565b600060208284031215613e63578081fd5b5051919050565b600080600080600080600080610100898b031215613e86578586fd5b88519750602089015167ffffffffffffffff80821115613ea4578788fd5b613eb08c838d01613aab565b985060408b0151915080821115613ec5578788fd5b50613ed28b828c01613aab565b965050606089015194506080890151935060a0890151925060c0890151915060e089015190509295985092959890939650565b60008060408385031215613f17578182fd5b50508035926020909101359150565b600080600060608486031215613f3a578081fd5b83359250602084013591506040840135613f5381614342565b809150509250925092565b600080600060608486031215613f72578081fd5b505081359360208301359350604090920135919050565b60008151808452613fa1816020860160208601614252565b601f01601f19169290920160200192915050565b60008351613fc7818460208801614252565b835190830190613fdb818360208801614252565b01949350505050565b60006001600160a01b038087168352808616602084015250836040830152608060608301526117576080830184613f89565b6000602082526113906020830184613f89565b60006101008a83528060208401526140438184018b613f89565b90508281036040840152614057818a613f89565b60608401989098525050608081019490945260a084019290925260c083015260e0909101529392505050565b604051601f8201601f1916810167ffffffffffffffff811182821017156140ac576140ac614314565b604052919050565b600067ffffffffffffffff8211156140ce576140ce614314565b50601f01601f191660200190565b600082198211156140ef576140ef6142e8565b500190565b600082614103576141036142fe565b500490565b80825b600180861161411a5750614145565b81870482111561412c5761412c6142e8565b8086161561413957918102915b9490941c93800261410b565b94509492505050565b6000611390600019848460008261416757506001611390565b8161417457506000611390565b816001811461418a5760028114614194576141c1565b6001915050611390565b60ff8411156141a5576141a56142e8565b6001841b9150848211156141bb576141bb6142e8565b50611390565b5060208310610133831016604e8410600b84101617156141f4575081810a838111156141ef576141ef6142e8565b611390565b6142018484846001614108565b808604821115614213576142136142e8565b02949350505050565b6000816000190483118215151615614236576142366142e8565b500290565b60008282101561424d5761424d6142e8565b500390565b60005b8381101561426d578181015183820152602001614255565b83811115611e555750506000910152565b60028104600182168061429257607f821691505b602082108114156142b357634e487b7160e01b600052602260045260246000fd5b50919050565b60006000198214156142cd576142cd6142e8565b5060010190565b6000826142e3576142e36142fe565b500690565b634e487b7160e01b600052601160045260246000fd5b634e487b7160e01b600052601260045260246000fd5b634e487b7160e01b600052604160045260246000fd5b6001600160a01b038116811461433f57600080fd5b50565b801515811461433f57600080fd5b6001600160e01b03198116811461433f57600080fdfe68747470733a2f2f6170692e76332e73747261696e7a2e746563682f73747261696e2fa2646970667358221220b7002270eb2e7778274119d7c4e7bbcf1e202e3d850b59cb0d5c3dfecd87709d64736f6c6343000802003360806040523480156200001157600080fd5b506040518060400160405280600781526020016629ba3930b4b73d60c91b8152506040518060400160405280600781526020016629aa2920a4a72d60c91b81525081600390805190602001906200006a929190620000ed565b50805162000080906004906020840190620000ed565b505050600062000095620000e960201b60201c565b600580546001600160a01b0319166001600160a01b038316908117909155604051919250906000907f8be0079c531659141344cd1fd0a4f28419497f9722a3daafe3b4186f6b6457e0908290a350620001d0565b3390565b828054620000fb9062000193565b90600052602060002090601f0160209004810192826200011f57600085556200016a565b82601f106200013a57805160ff19168380011785556200016a565b828001600101855582156200016a579182015b828111156200016a5782518255916020019190600101906200014d565b50620001789291506200017c565b5090565b5b808211156200017857600081556001016200017d565b600281046001821680620001a857607f821691505b60208210811415620001ca57634e487b7160e01b600052602260045260246000fd5b50919050565b61120c80620001e06000396000f3fe608060405234801561001057600080fd5b50600436106101515760003560e01c806370a08231116100cd578063a457c2d711610081578063dd62ed3e11610066578063dd62ed3e1461029e578063e5aa7c2e146102d7578063f2fde38b146102ea57610151565b8063a457c2d714610278578063a9059cbb1461028b57610151565b806379cc6790116100b257806379cc67901461024c5780638da5cb5b1461025f57806395d89b411461027057610151565b806370a0823114610231578063715018a61461024457610151565b806323b872dd11610124578063395093511161010957806339509351146101f657806340c10f191461020957806342966c681461021e57610151565b806323b872dd146101d4578063313ce567146101e757610151565b806306fdde0314610156578063095ea7b31461017457806318160ddd14610197578063214296e8146101a9575b600080fd5b61015e6102fd565b60405161016b91906110e8565b60405180910390f35b610187610182366004611038565b61038f565b604051901515815260200161016b565b6002545b60405190815260200161016b565b6101bc6101b73660046110d0565b6103a5565b6040516001600160a01b03909116815260200161016b565b6101876101e2366004610ffd565b6103cf565b6040516004815260200161016b565b610187610204366004611038565b61049a565b61021c610217366004611038565b6104d1565b005b61021c61022c3660046110d0565b61055a565b61019b61023f366004610faa565b610567565b61021c610586565b61021c61025a366004611038565b610637565b6005546001600160a01b03166101bc565b61015e6106bb565b610187610286366004611038565b6106ca565b610187610299366004611038565b61077d565b61019b6102ac366004610fcb565b6001600160a01b03918216600090815260016020908152604080832093909416825291909152205490565b61021c6102e5366004611061565b61078a565b61021c6102f8366004610faa565b6107f0565b60606003805461030c9061116a565b80601f01602080910402602001604051908101604052809291908181526020018280546103389061116a565b80156103855780601f1061035a57610100808354040283529160200191610385565b820191906000526020600020905b81548152906001019060200180831161036857829003601f168201915b5050505050905090565b600061039c33848461092f565b50600192915050565b600681815481106103b557600080fd5b6000918252602090912001546001600160a01b0316905081565b60006103dc848484610a88565b6001600160a01b03841660009081526001602090815260408083203384529091529020548281101561047b5760405162461bcd60e51b815260206004820152602860248201527f45524332303a207472616e7366657220616d6f756e742065786365656473206160448201527f6c6c6f77616e636500000000000000000000000000000000000000000000000060648201526084015b60405180910390fd5b61048f853361048a8685611153565b61092f565b506001949350505050565b3360008181526001602090815260408083206001600160a01b0387168452909152812054909161039c91859061048a90869061113b565b6000805b60065481101561054057336001600160a01b03166006828154811061050a57634e487b7160e01b600052603260045260246000fd5b6000918252602090912001546001600160a01b0316141561052e5760019150610540565b80610538816111a5565b9150506104d5565b508061054b57600080fd5b6105558383610ca9565b505050565b6105643382610d88565b50565b6001600160a01b0381166000908152602081905260409020545b919050565b6005546001600160a01b031633146105e05760405162461bcd60e51b815260206004820181905260248201527f4f776e61626c653a2063616c6c6572206973206e6f7420746865206f776e65726044820152606401610472565b6005546040516000916001600160a01b0316907f8be0079c531659141344cd1fd0a4f28419497f9722a3daafe3b4186f6b6457e0908390a36005805473ffffffffffffffffffffffffffffffffffffffff19169055565b6000805b6006548110156106a657336001600160a01b03166006828154811061067057634e487b7160e01b600052603260045260246000fd5b6000918252602090912001546001600160a01b0316141561069457600191506106a6565b8061069e816111a5565b91505061063b565b50806106b157600080fd5b6105558383610d88565b60606004805461030c9061116a565b3360009081526001602090815260408083206001600160a01b0386168452909152812054828110156107645760405162461bcd60e51b815260206004820152602560248201527f45524332303a2064656372656173656420616c6c6f77616e63652062656c6f7760448201527f207a65726f0000000000000000000000000000000000000000000000000000006064820152608401610472565b610773338561048a8685611153565b5060019392505050565b600061039c338484610a88565b6005546001600160a01b031633146107e45760405162461bcd60e51b815260206004820181905260248201527f4f776e61626c653a2063616c6c6572206973206e6f7420746865206f776e65726044820152606401610472565b61055560068383610f0e565b6005546001600160a01b0316331461084a5760405162461bcd60e51b815260206004820181905260248201527f4f776e61626c653a2063616c6c6572206973206e6f7420746865206f776e65726044820152606401610472565b6001600160a01b0381166108c65760405162461bcd60e51b815260206004820152602660248201527f4f776e61626c653a206e6577206f776e657220697320746865207a65726f206160448201527f64647265737300000000000000000000000000000000000000000000000000006064820152608401610472565b6005546040516001600160a01b038084169216907f8be0079c531659141344cd1fd0a4f28419497f9722a3daafe3b4186f6b6457e090600090a36005805473ffffffffffffffffffffffffffffffffffffffff19166001600160a01b0392909216919091179055565b6001600160a01b0383166109aa5760405162461bcd60e51b8152602060048201526024808201527f45524332303a20617070726f76652066726f6d20746865207a65726f2061646460448201527f72657373000000000000000000000000000000000000000000000000000000006064820152608401610472565b6001600160a01b038216610a265760405162461bcd60e51b815260206004820152602260248201527f45524332303a20617070726f766520746f20746865207a65726f20616464726560448201527f73730000000000000000000000000000000000000000000000000000000000006064820152608401610472565b6001600160a01b0383811660008181526001602090815260408083209487168084529482529182902085905590518481527f8c5be1e5ebec7d5bd14f71427d1e84f3dd0314c0f7b2291e5b200ac8c7c3b92591015b60405180910390a3505050565b6001600160a01b038316610b045760405162461bcd60e51b815260206004820152602560248201527f45524332303a207472616e736665722066726f6d20746865207a65726f20616460448201527f64726573730000000000000000000000000000000000000000000000000000006064820152608401610472565b6001600160a01b038216610b805760405162461bcd60e51b815260206004820152602360248201527f45524332303a207472616e7366657220746f20746865207a65726f206164647260448201527f65737300000000000000000000000000000000000000000000000000000000006064820152608401610472565b6001600160a01b03831660009081526020819052604090205481811015610c0f5760405162461bcd60e51b815260206004820152602660248201527f45524332303a207472616e7366657220616d6f756e742065786365656473206260448201527f616c616e636500000000000000000000000000000000000000000000000000006064820152608401610472565b610c198282611153565b6001600160a01b038086166000908152602081905260408082209390935590851681529081208054849290610c4f90849061113b565b92505081905550826001600160a01b0316846001600160a01b03167fddf252ad1be2c89b69c2b068fc378daa952ba7f163c4a11628f55a4df523b3ef84604051610c9b91815260200190565b60405180910390a350505050565b6001600160a01b038216610cff5760405162461bcd60e51b815260206004820152601f60248201527f45524332303a206d696e7420746f20746865207a65726f2061646472657373006044820152606401610472565b8060026000828254610d11919061113b565b90915550506001600160a01b03821660009081526020819052604081208054839290610d3e90849061113b565b90915550506040518181526001600160a01b038316906000907fddf252ad1be2c89b69c2b068fc378daa952ba7f163c4a11628f55a4df523b3ef9060200160405180910390a35050565b6001600160a01b038216610e045760405162461bcd60e51b815260206004820152602160248201527f45524332303a206275726e2066726f6d20746865207a65726f2061646472657360448201527f73000000000000000000000000000000000000000000000000000000000000006064820152608401610472565b6001600160a01b03821660009081526020819052604090205481811015610e935760405162461bcd60e51b815260206004820152602260248201527f45524332303a206275726e20616d6f756e7420657863656564732062616c616e60448201527f63650000000000000000000000000000000000000000000000000000000000006064820152608401610472565b610e9d8282611153565b6001600160a01b03841660009081526020819052604081209190915560028054849290610ecb908490611153565b90915550506040518281526000906001600160a01b038516907fddf252ad1be2c89b69c2b068fc378daa952ba7f163c4a11628f55a4df523b3ef90602001610a7b565b828054828255906000526020600020908101928215610f6e579160200282015b82811115610f6e57815473ffffffffffffffffffffffffffffffffffffffff19166001600160a01b03843516178255602090920191600190910190610f2e565b50610f7a929150610f7e565b5090565b5b80821115610f7a5760008155600101610f7f565b80356001600160a01b038116811461058157600080fd5b600060208284031215610fbb578081fd5b610fc482610f93565b9392505050565b60008060408385031215610fdd578081fd5b610fe683610f93565b9150610ff460208401610f93565b90509250929050565b600080600060608486031215611011578081fd5b61101a84610f93565b925061102860208501610f93565b9150604084013590509250925092565b6000806040838503121561104a578182fd5b61105383610f93565b946020939093013593505050565b60008060208385031215611073578182fd5b823567ffffffffffffffff8082111561108a578384fd5b818501915085601f83011261109d578384fd5b8135818111156110ab578485fd5b86602080830285010111156110be578485fd5b60209290920196919550909350505050565b6000602082840312156110e1578081fd5b5035919050565b6000602080835283518082850152825b81811015611114578581018301518582016040015282016110f8565b818111156111255783604083870101525b50601f01601f1916929092016040019392505050565b6000821982111561114e5761114e6111c0565b500190565b600082821015611165576111656111c0565b500390565b60028104600182168061117e57607f821691505b6020821081141561119f57634e487b7160e01b600052602260045260246000fd5b50919050565b60006000198214156111b9576111b96111c0565b5060010190565b634e487b7160e01b600052601160045260246000fdfea26469706673582212208b5fd6e23b2cf9b36b636062b3e5b25e5877cbdaf9b01acd24f2cb079a640abb64736f6c634300080200336080604052681b1ae4d6e2ef50000060075560646008556706f05b59d3b200006009556000600c553480156200003457600080fd5b50604051620020f0380380620020f0833981016040819052620000579162000281565b6040518060400160405280600581526020016429b2b2b23d60d91b8152506040518060400160405280600581526020016429a2a2a22d60d91b8152508160039080519060200190620000ab929190620001db565b508051620000c1906004906020840190620001db565b5050600580546001600160a01b0319163317905550620000ec81691a784379d99db4200000620000f3565b5062000313565b6001600160a01b0382166200014e5760405162461bcd60e51b815260206004820152601f60248201527f45524332303a206d696e7420746f20746865207a65726f206164647265737300604482015260640160405180910390fd5b8060026000828254620001629190620002b1565b90915550506001600160a01b0382166000908152602081905260408120805483929062000191908490620002b1565b90915550506040518181526001600160a01b038316906000907fddf252ad1be2c89b69c2b068fc378daa952ba7f163c4a11628f55a4df523b3ef9060200160405180910390a35050565b828054620001e990620002d6565b90600052602060002090601f0160209004810192826200020d576000855562000258565b82601f106200022857805160ff191683800117855562000258565b8280016001018555821562000258579182015b82811115620002585782518255916020019190600101906200023b565b50620002669291506200026a565b5090565b5b808211156200026657600081556001016200026b565b60006020828403121562000293578081fd5b81516001600160a01b0381168114620002aa578182fd5b9392505050565b60008219821115620002d157634e487b7160e01b81526011600452602481fd5b500190565b600281046001821680620002eb57607f821691505b602082108114156200030d57634e487b7160e01b600052602260045260246000fd5b50919050565b611dcd80620003236000396000f3fe608060405234801561001057600080fd5b506004361061020b5760003560e01c8063441a3e701161012a57806393f1a40b116100bd578063dd62ed3e1161008c578063e2bbb15811610071578063e2bbb158146104d4578063ea292400146104e7578063f772459b146104f05761020b565b8063dd62ed3e14610488578063df23e160146104c15761020b565b806393f1a40b1461041357806395d89b411461045a578063a457c2d714610462578063a9059cbb146104755761020b565b806364482f79116100f957806364482f79146103bb57806364bce6db146103ce57806370a08231146103e1578063912db8141461040a5761020b565b8063441a3e701461037a57806351eb05a61461038d5780635312ea8e146103a0578063630b5ba1146103b35761020b565b806318160ddd116101a2578063313ce56711610171578063313ce5671461033257806339509351146103415780633dc1d7921461035457806342c304b5146103675761020b565b806318160ddd146102f15780631eaaa045146102f957806323b872dd1461030c578063251b57701461031f5761020b565b80630d20c266116101de5780630d20c266146102765780630fa4b111146102965780631526fe27146102ab57806317caf6f1146102e85761020b565b806302ca671d1461021057806306fdde0314610236578063081e3eda1461024b578063095ea7b314610253575b600080fd5b61022361021e366004611bf9565b6104f9565b6040519081526020015b60405180910390f35b61023e61056e565b60405161022d9190611c47565b600a54610223565b610266610261366004611b01565b610600565b604051901515815260200161022d565b610223610284366004611b64565b60066020526000908152604090205481565b6102a96102a4366004611b01565b610616565b005b6102be6102b9366004611b64565b6106c7565b604080516001600160a01b039095168552602085019390935291830152606082015260800161022d565b610223600c5481565b600254610223565b6102a9610307366004611bb8565b61070b565b61026661031a366004611ac1565b61084d565b6102a961032d366004611b64565b610918565b6040516012815260200161022d565b61026661034f366004611b01565b6109b8565b6102a9610362366004611b64565b6109ef565b6102a9610375366004611b01565b610a13565b6102a9610388366004611bf9565b610ac0565b6102a961039b366004611b64565b610ca7565b6102a96103ae366004611b64565b610e09565b6102a9610f27565b6102a96103c9366004611c1a565b610f4e565b6102a96103dc366004611bf9565b611000565b6102236103ef366004611a66565b6001600160a01b031660009081526020819052604090205490565b61022360095481565b610445610421366004611b94565b600b6020908152600092835260408084209091529082529020805460019091015482565b6040805192835260208301919091520161022d565b61023e611022565b610266610470366004611b01565b611031565b610266610483366004611b01565b6110e4565b610223610496366004611a89565b6001600160a01b03918216600090815260016020908152604080832093909416825291909152205490565b6102236104cf366004611b94565b6110f1565b6102a96104e2366004611bf9565b611280565b61022360075481565b61022360085481565b6000828152600660205260408120548190801561056457600061051c8286611434565b905060006105366105308362093a80611c9a565b4261144c565b905062015180600854838361054b9190611cf1565b6105559190611cd2565b61055f9190611cb2565b935050505b5090505b92915050565b60606003805461057d90611d08565b80601f01602080910402602001604051908101604052809291908181526020018280546105a990611d08565b80156105f65780601f106105cb576101008083540402835291602001916105f6565b820191906000526020600020905b8154815290600101906020018083116105d957829003601f168201915b5050505050905090565b600061060d33848461145d565b50600192915050565b600560009054906101000a90046001600160a01b03166001600160a01b031663706908ff6040518163ffffffff1660e01b815260040160206040518083038186803b15801561066457600080fd5b505afa158015610678573d6000803e3d6000fd5b505050506040513d601f19601f8201168201806040525081019061069c9190611b48565b6001600160a01b0316336001600160a01b0316146106b957600080fd5b6106c382826115b6565b5050565b600a81815481106106d757600080fd5b600091825260209091206004909102018054600182015460028301546003909301546001600160a01b039092169350919084565b6005546001600160a01b0316331461072257600080fd5b801561073057610730610f27565b82600c60008282546107429190611c9a565b9091555050604080516080810182526001600160a01b0393841681526020810194855243918101918252600060608201818152600a8054600181018255925291517fc65a7bb8d6351c1cf70c95a316cc6a92839c986682d98bc35f958f4883f9d2a8600490920291820180547fffffffffffffffffffffffff000000000000000000000000000000000000000016919096161790945593517fc65a7bb8d6351c1cf70c95a316cc6a92839c986682d98bc35f958f4883f9d2a9840155517fc65a7bb8d6351c1cf70c95a316cc6a92839c986682d98bc35f958f4883f9d2aa8301555090517fc65a7bb8d6351c1cf70c95a316cc6a92839c986682d98bc35f958f4883f9d2ab90910155565b600061085a84848461173c565b6001600160a01b0384166000908152600160209081526040808320338452909152902054828110156108f95760405162461bcd60e51b815260206004820152602860248201527f45524332303a207472616e7366657220616d6f756e742065786365656473206160448201527f6c6c6f77616e636500000000000000000000000000000000000000000000000060648201526084015b60405180910390fd5b61090d85336109088685611cf1565b61145d565b506001949350505050565b6007543360009081526020819052604090205481111561093757600080fd5b60008281526006602052604090205442906109559062093a80611c9a565b1061095f57600080fd5b61096933826115b6565b60008281526006602090815260409182902042905581513381529081018490527f4a57d801306de4358c54a2cb591d90ce72db18f2476014e9307f2144eb62928f910160405180910390a15050565b3360008181526001602090815260408083206001600160a01b0387168452909152812054909161060d918590610908908690611c9a565b6005546001600160a01b03163314610a0657600080fd5b610a0e610f27565b600955565b600560009054906101000a90046001600160a01b03166001600160a01b031663706908ff6040518163ffffffff1660e01b815260040160206040518083038186803b158015610a6157600080fd5b505afa158015610a75573d6000803e3d6000fd5b505050506040513d601f19601f82011682018060405250810190610a999190611b48565b6001600160a01b0316336001600160a01b031614610ab657600080fd5b6106c3828261194f565b6000600a8381548110610ae357634e487b7160e01b600052603260045260246000fd5b60009182526020808320868452600b825260408085203386529092529220805460049092029092019250831115610b5c5760405162461bcd60e51b815260206004820152601260248201527f77697468647261773a206e6f7420676f6f64000000000000000000000000000060448201526064016108f0565b610b6584610ca7565b6000816001015464e8d4a5100084600301548460000154610b869190611cd2565b610b909190611cb2565b610b9a9190611cf1565b9050610ba63382611a2e565b83826000016000828254610bba9190611cf1565b90915550506003830154825464e8d4a5100091610bd691611cd2565b610be09190611cb2565b6001830155825460405163a9059cbb60e01b8152336004820152602481018690526001600160a01b039091169063a9059cbb90604401602060405180830381600087803b158015610c3057600080fd5b505af1158015610c44573d6000803e3d6000fd5b505050506040513d601f19601f82011682018060405250810190610c689190611b2c565b50604051848152859033907ff279e6a1f5e320cca91135676d9cb6e44ca8a08c0b88342bcdb1144f6511b5689060200160405180910390a35050505050565b6000600a8281548110610cca57634e487b7160e01b600052603260045260246000fd5b9060005260206000209060040201905080600201544311610ceb5750610e06565b80546040516370a0823160e01b81523060048201526000916001600160a01b0316906370a082319060240160206040518083038186803b158015610d2e57600080fd5b505afa158015610d42573d6000803e3d6000fd5b505050506040513d601f19601f82011682018060405250810190610d669190611b7c565b905080610d7a575043600290910155610e06565b6000826002015443610d8c9190611cf1565b90506000600c54846001015460095484610da69190611cd2565b610db09190611cd2565b610dba9190611cb2565b9050610dc6308261194f565b82610dd68264e8d4a51000611cd2565b610de09190611cb2565b846003016000828254610df39190611c9a565b9091555050436002909401939093555050505b50565b6000600a8281548110610e2c57634e487b7160e01b600052603260045260246000fd5b60009182526020808320858452600b825260408085203380875293528085208054868255600182019690965560049485029092018054915163a9059cbb60e01b8152948501939093526024840185905291945092916001600160a01b039091169063a9059cbb90604401602060405180830381600087803b158015610eb057600080fd5b505af1158015610ec4573d6000803e3d6000fd5b505050506040513d601f19601f82011682018060405250810190610ee89190611b2c565b50604051818152849033907fbb757047c2b5f3974fe26b7c10f732e7bce710b0952a71082702781e62ae0595906020015b60405180910390a350505050565b600a5460005b818110156106c357610f3e81610ca7565b610f4781611d43565b9050610f2d565b6005546001600160a01b03163314610f6557600080fd5b8015610f7357610f73610f27565b81600a8481548110610f9557634e487b7160e01b600052603260045260246000fd5b906000526020600020906004020160010154600c54610fb49190611cf1565b610fbe9190611c9a565b600c8190555081600a8481548110610fe657634e487b7160e01b600052603260045260246000fd5b906000526020600020906004020160010181905550505050565b6005546001600160a01b0316331461101757600080fd5b600791909155600855565b60606004805461057d90611d08565b3360009081526001602090815260408083206001600160a01b0386168452909152812054828110156110cb5760405162461bcd60e51b815260206004820152602560248201527f45524332303a2064656372656173656420616c6c6f77616e63652062656c6f7760448201527f207a65726f00000000000000000000000000000000000000000000000000000060648201526084016108f0565b6110da33856109088685611cf1565b5060019392505050565b600061060d33848461173c565b600080600a848154811061111557634e487b7160e01b600052603260045260246000fd5b60009182526020808320878452600b825260408085206001600160a01b038981168752935280852060049485029092016003810154815492516370a0823160e01b8152309681019690965290965091949193919216906370a082319060240160206040518083038186803b15801561118c57600080fd5b505afa1580156111a0573d6000803e3d6000fd5b505050506040513d601f19601f820116820180604052508101906111c49190611b7c565b90508360020154431180156111d857508015155b156112485760008460020154436111ef9190611cf1565b90506000600c548660010154600954846112099190611cd2565b6112139190611cd2565b61121d9190611cb2565b90508261122f8264e8d4a51000611cd2565b6112399190611cb2565b6112439085611c9a565b935050505b6001830154835464e8d4a5100090611261908590611cd2565b61126b9190611cb2565b6112759190611cf1565b979650505050505050565b6000600a83815481106112a357634e487b7160e01b600052603260045260246000fd5b60009182526020808320868452600b825260408085203386529092529220600490910290910191506112d484610ca7565b80541561131e576000816001015464e8d4a51000846003015484600001546112fc9190611cd2565b6113069190611cb2565b6113109190611cf1565b905061131c3382611a2e565b505b81546040517f23b872dd000000000000000000000000000000000000000000000000000000008152336004820152306024820152604481018590526001600160a01b03909116906323b872dd90606401602060405180830381600087803b15801561138857600080fd5b505af115801561139c573d6000803e3d6000fd5b505050506040513d601f19601f820116820180604052508101906113c09190611b2c565b50828160000160008282546113d59190611c9a565b90915550506003820154815464e8d4a51000916113f191611cd2565b6113fb9190611cb2565b6001820155604051838152849033907f90890809c654f11d6e72a28fa60149770a0d11ec6c92319d6ceb2bb0a4ea1a1590602001610f19565b600081831115611445575081610568565b5080610568565b600081831015611445575081610568565b6001600160a01b0383166114d85760405162461bcd60e51b8152602060048201526024808201527f45524332303a20617070726f76652066726f6d20746865207a65726f2061646460448201527f726573730000000000000000000000000000000000000000000000000000000060648201526084016108f0565b6001600160a01b0382166115545760405162461bcd60e51b815260206004820152602260248201527f45524332303a20617070726f766520746f20746865207a65726f20616464726560448201527f737300000000000000000000000000000000000000000000000000000000000060648201526084016108f0565b6001600160a01b0383811660008181526001602090815260408083209487168084529482529182902085905590518481527f8c5be1e5ebec7d5bd14f71427d1e84f3dd0314c0f7b2291e5b200ac8c7c3b92591015b60405180910390a3505050565b6001600160a01b0382166116325760405162461bcd60e51b815260206004820152602160248201527f45524332303a206275726e2066726f6d20746865207a65726f2061646472657360448201527f730000000000000000000000000000000000000000000000000000000000000060648201526084016108f0565b6001600160a01b038216600090815260208190526040902054818110156116c15760405162461bcd60e51b815260206004820152602260248201527f45524332303a206275726e20616d6f756e7420657863656564732062616c616e60448201527f636500000000000000000000000000000000000000000000000000000000000060648201526084016108f0565b6116cb8282611cf1565b6001600160a01b038416600090815260208190526040812091909155600280548492906116f9908490611cf1565b90915550506040518281526000906001600160a01b038516907fddf252ad1be2c89b69c2b068fc378daa952ba7f163c4a11628f55a4df523b3ef906020016115a9565b6001600160a01b0383166117b85760405162461bcd60e51b815260206004820152602560248201527f45524332303a207472616e736665722066726f6d20746865207a65726f20616460448201527f647265737300000000000000000000000000000000000000000000000000000060648201526084016108f0565b6001600160a01b0382166118345760405162461bcd60e51b815260206004820152602360248201527f45524332303a207472616e7366657220746f20746865207a65726f206164647260448201527f657373000000000000000000000000000000000000000000000000000000000060648201526084016108f0565b6001600160a01b038316600090815260208190526040902054818110156118c35760405162461bcd60e51b815260206004820152602660248201527f45524332303a207472616e7366657220616d6f756e742065786365656473206260448201527f616c616e6365000000000000000000000000000000000000000000000000000060648201526084016108f0565b6118cd8282611cf1565b6001600160a01b038086166000908152602081905260408082209390935590851681529081208054849290611903908490611c9a565b92505081905550826001600160a01b0316846001600160a01b03167fddf252ad1be2c89b69c2b068fc378daa952ba7f163c4a11628f55a4df523b3ef84604051610f1991815260200190565b6001600160a01b0382166119a55760405162461bcd60e51b815260206004820152601f60248201527f45524332303a206d696e7420746f20746865207a65726f20616464726573730060448201526064016108f0565b80600260008282546119b79190611c9a565b90915550506001600160a01b038216600090815260208190526040812080548392906119e4908490611c9a565b90915550506040518181526001600160a01b038316906000907fddf252ad1be2c89b69c2b068fc378daa952ba7f163c4a11628f55a4df523b3ef9060200160405180910390a35050565b3060009081526020819052604090205480821115611a5657611a5130848361173c565b611a61565b611a6130848461173c565b505050565b600060208284031215611a77578081fd5b8135611a8281611d74565b9392505050565b60008060408385031215611a9b578081fd5b8235611aa681611d74565b91506020830135611ab681611d74565b809150509250929050565b600080600060608486031215611ad5578081fd5b8335611ae081611d74565b92506020840135611af081611d74565b929592945050506040919091013590565b60008060408385031215611b13578182fd5b8235611b1e81611d74565b946020939093013593505050565b600060208284031215611b3d578081fd5b8151611a8281611d89565b600060208284031215611b59578081fd5b8151611a8281611d74565b600060208284031215611b75578081fd5b5035919050565b600060208284031215611b8d578081fd5b5051919050565b60008060408385031215611ba6578182fd5b823591506020830135611ab681611d74565b600080600060608486031215611bcc578283fd5b833592506020840135611bde81611d74565b91506040840135611bee81611d89565b809150509250925092565b60008060408385031215611c0b578182fd5b50508035926020909101359150565b600080600060608486031215611c2e578283fd5b83359250602084013591506040840135611bee81611d89565b6000602080835283518082850152825b81811015611c7357858101830151858201604001528201611c57565b81811115611c845783604083870101525b50601f01601f1916929092016040019392505050565b60008219821115611cad57611cad611d5e565b500190565b600082611ccd57634e487b7160e01b81526012600452602481fd5b500490565b6000816000190483118215151615611cec57611cec611d5e565b500290565b600082821015611d0357611d03611d5e565b500390565b600281046001821680611d1c57607f821691505b60208210811415611d3d57634e487b7160e01b600052602260045260246000fd5b50919050565b6000600019821415611d5757611d57611d5e565b5060010190565b634e487b7160e01b600052601160045260246000fd5b6001600160a01b0381168114610e0657600080fd5b8015158114610e0657600080fdfea2646970667358221220651f89af49f49e1b4793e1edc6ca74d26d00366d440b8e512e488c72470758ad64736f6c6343000802003360806040526000600e553480156200001657600080fd5b50604051620031383803806200313883398101604081905262000039916200073e565b604080518082018252601181527053747261696e7a204163636573736f727960781b6020808301918252835180850190945260098452684143434553534f525960b81b908401528151919291620000939160009162000698565b508051620000a990600190602084019062000698565b5050601080546001600160a01b0319163317905550620000cb600a82620000ec565b620000d8601982620000ec565b620000e5603282620000ec565b5062000814565b6010546001600160a01b031633146200010457600080fd5b600a600e54106200011457600080fd5b600e80549060006200012683620007e0565b9091555050600e546000908152600f602052604081208390555b60148110156200016f57600e5462000159908362000174565b50806200016681620007e0565b91505062000140565b505050565b6000600e548311158015620001895750600083115b6200019357600080fd5b620001aa600a620001ea60201b6200145c1760201c565b6000620001c3600a620001f360201b620014651760201c565b9050620001d18382620001f7565b6000818152600b60205260409020849055905092915050565b80546001019055565b5490565b6001600160a01b038216620002535760405162461bcd60e51b815260206004820181905260248201527f4552433732313a206d696e7420746f20746865207a65726f206164647265737360448201526064015b60405180910390fd5b6000818152600260205260409020546001600160a01b031615620002ba5760405162461bcd60e51b815260206004820152601c60248201527f4552433732313a20746f6b656e20616c7265616479206d696e7465640000000060448201526064016200024a565b620002c86000838362000351565b6001600160a01b0382166000908152600360205260408120805460019290620002f39084906200076e565b909155505060008181526002602052604080822080546001600160a01b0319166001600160a01b03861690811790915590518392907fddf252ad1be2c89b69c2b068fc378daa952ba7f163c4a11628f55a4df523b3ef908290a45050565b620003698383836200016f60201b6200075a1760201c565b6001600160a01b038316620003c757620003c181600880546000838152600960205260408120829055600182018355919091527ff3f7a9fe364faab93b216da50a3214154f22a0a2b415b23a84c8169e8b636ee30155565b620003ed565b816001600160a01b0316836001600160a01b031614620003ed57620003ed838262000433565b6001600160a01b0382166200040d576200040781620004e0565b6200016f565b826001600160a01b0316826001600160a01b0316146200016f576200016f8282620005be565b600060016200044d846200060f60201b62000fba1760201c565b62000459919062000789565b600083815260076020526040902054909150808214620004ad576001600160a01b03841660009081526006602090815260408083208584528252808320548484528184208190558352600790915290208190555b5060009182526007602090815260408084208490556001600160a01b039094168352600681528383209183525290812055565b600854600090620004f49060019062000789565b600083815260096020526040812054600880549394509092849081106200052b57634e487b7160e01b600052603260045260246000fd5b9060005260206000200154905080600883815481106200055b57634e487b7160e01b600052603260045260246000fd5b6000918252602080832090910192909255828152600990915260408082208490558582528120556008805480620005a257634e487b7160e01b600052603160045260246000fd5b6001900381819060005260206000200160009055905550505050565b6000620005d6836200060f60201b62000fba1760201c565b6001600160a01b039093166000908152600660209081526040808320868452825280832085905593825260079052919091209190915550565b60006001600160a01b0382166200067c5760405162461bcd60e51b815260206004820152602a60248201527f4552433732313a2062616c616e636520717565727920666f7220746865207a65604482015269726f206164647265737360b01b60648201526084016200024a565b506001600160a01b031660009081526003602052604090205490565b828054620006a690620007a3565b90600052602060002090601f016020900481019282620006ca576000855562000715565b82601f10620006e557805160ff191683800117855562000715565b8280016001018555821562000715579182015b8281111562000715578251825591602001919060010190620006f8565b506200072392915062000727565b5090565b5b8082111562000723576000815560010162000728565b60006020828403121562000750578081fd5b81516001600160a01b038116811462000767578182fd5b9392505050565b60008219821115620007845762000784620007fe565b500190565b6000828210156200079e576200079e620007fe565b500390565b600281046001821680620007b857607f821691505b60208210811415620007da57634e487b7160e01b600052602260045260246000fd5b50919050565b6000600019821415620007f757620007f7620007fe565b5060010190565b634e487b7160e01b600052601160045260246000fd5b61291480620008246000396000f3fe608060405234801561001057600080fd5b50600436106101cf5760003560e01c806347d2707e1161010457806395d89b41116100a2578063b88d4fde11610071578063b88d4fde14610446578063c87b56dd14610459578063cb7bcb4d1461046c578063e985e9c51461047f576101cf565b806395d89b41146104055780639d0cd89e1461040d578063a22cb46514610420578063b81a453a14610433576101cf565b80636352211e116100de5780636352211e1461039f57806370a08231146103b25780637e2077ec146103c55780638bd88dda146103e5576101cf565b806347d2707e146103665780634f6ccce7146103795780635a22f03e1461038c576101cf565b80631cd6f9ce116101715780632e0c6fba1161014b5780632e0c6fba1461030d5780632f745c59146103205780633f74e68d1461033357806342842e0e14610353576101cf565b80631cd6f9ce146102c757806323b872dd146102e75780632b6d06a4146102fa576101cf565b8063095ea7b3116101ad578063095ea7b31461023c578063150b7a021461025157806318160ddd146102a25780631acf8acd146102b4576101cf565b806301ffc9a7146101d457806306fdde03146101fc578063081812fc14610211575b600080fd5b6101e76101e236600461257c565b6104bb565b60405190151581526020015b60405180910390f35b610204610501565b6040516101f39190612763565b61022461021f3660046125b4565b610593565b6040516001600160a01b0390911681526020016101f3565b61024f61024a366004612551565b61062d565b005b61028961025f3660046123aa565b7ff0b9e5ba0000000000000000000000000000000000000000000000000000000095945050505050565b6040516001600160e01b031990911681526020016101f3565b6008545b6040519081526020016101f3565b61024f6102c23660046125f0565b61075f565b6102da6102d53660046125b4565b61083b565b6040516101f3919061271f565b61024f6102f536600461236a565b61089d565b61024f61030836600461265d565b610924565b61024f61031b3660046125cc565b610a39565b6102a661032e366004612551565b610ab1565b6102a66103413660046125b4565b600c6020526000908152604090205481565b61024f61036136600461236a565b610b5c565b61024f61037436600461263c565b610b77565b6102a66103873660046125b4565b610d60565b6102a661039a36600461263c565b610e12565b6102246103ad3660046125b4565b610f2f565b6102a66103c03660046122fa565b610fba565b6102a66103d33660046125b4565b600f6020526000908152604090205481565b6102a66103f33660046125b4565b600b6020526000908152604090205481565b610204611054565b61024f61041b3660046125b4565b611063565b61024f61042e36600461251d565b6111b2565b61024f61044136600461263c565b611284565b61024f610454366004612444565b6112ad565b6102046104673660046125b4565b611335565b6102a661047a36600461263c565b61142b565b6101e761048d366004612332565b6001600160a01b03918216600090815260056020908152604080832093909416825291909152205460ff1690565b60006001600160e01b031982167f780e9d630000000000000000000000000000000000000000000000000000000014806104f957506104f982611469565b90505b919050565b60606000805461051090612804565b80601f016020809104026020016040519081016040528092919081815260200182805461053c90612804565b80156105895780601f1061055e57610100808354040283529160200191610589565b820191906000526020600020905b81548152906001019060200180831161056c57829003601f168201915b5050505050905090565b6000818152600260205260408120546001600160a01b03166106115760405162461bcd60e51b815260206004820152602c60248201527f4552433732313a20617070726f76656420717565727920666f72206e6f6e657860448201526b34b9ba32b73a103a37b5b2b760a11b60648201526084015b60405180910390fd5b506000908152600460205260409020546001600160a01b031690565b600061063882610f2f565b9050806001600160a01b0316836001600160a01b031614156106c25760405162461bcd60e51b815260206004820152602160248201527f4552433732313a20617070726f76616c20746f2063757272656e74206f776e6560448201527f72000000000000000000000000000000000000000000000000000000000000006064820152608401610608565b336001600160a01b03821614806106de57506106de813361048d565b6107505760405162461bcd60e51b815260206004820152603860248201527f4552433732313a20617070726f76652063616c6c6572206973206e6f74206f7760448201527f6e6572206e6f7220617070726f76656420666f7220616c6c00000000000000006064820152608401610608565b61075a8383611504565b505050565b601060009054906101000a90046001600160a01b03166001600160a01b031663706908ff6040518163ffffffff1660e01b815260040160206040518083038186803b1580156107ad57600080fd5b505afa1580156107c1573d6000803e3d6000fd5b505050506040513d601f19601f820116820180604052508101906107e59190612316565b6001600160a01b0316336001600160a01b03161461080257600080fd5b82156108135761081360038561157f565b81156108245761082460028561157f565b80156108355761083560018561157f565b50505050565b6000818152600d602090815260409182902080548351818402810184019094528084526060939283018282801561089157602002820191906000526020600020905b81548152602001906001019080831161087d575b50505050509050919050565b6108a733826115bf565b6109195760405162461bcd60e51b815260206004820152603160248201527f4552433732313a207472616e736665722063616c6c6572206973206e6f74206f60448201527f776e6572206e6f7220617070726f7665640000000000000000000000000000006064820152608401610608565b61075a8383836116b6565b601060009054906101000a90046001600160a01b03166001600160a01b031663706908ff6040518163ffffffff1660e01b815260040160206040518083038186803b15801561097257600080fd5b505afa158015610986573d6000803e3d6000fd5b505050506040513d601f19601f820116820180604052508101906109aa9190612316565b6001600160a01b0316336001600160a01b0316146109c757600080fd5b6000838152600d6020526040808220848352912060015b600e548111610a315760006109f3848361189b565b90506000610a01848461189b565b9050818015610a0d5750805b15610a1c57610a1c838761157f565b50508080610a299061283f565b9150506109de565b505050505050565b6010546001600160a01b03163314610a5057600080fd5b600a600e5410610a5f57600080fd5b600e8054906000610a6f8361283f565b9091555050600e546000908152600f602052604081208390555b601481101561075a57610a9e600e548361191a565b5080610aa98161283f565b915050610a89565b6000610abc83610fba565b8210610b305760405162461bcd60e51b815260206004820152602b60248201527f455243373231456e756d657261626c653a206f776e657220696e646578206f7560448201527f74206f6620626f756e64730000000000000000000000000000000000000000006064820152608401610608565b506001600160a01b03821660009081526006602090815260408083208484529091529020545b92915050565b61075a838383604051806020016040528060008152506112ad565b33610b8183610f2f565b6001600160a01b031614610b9457600080fd5b601054604080517f706908ff000000000000000000000000000000000000000000000000000000008152905133926001600160a01b03169163706908ff916004808301926020929190829003018186803b158015610bf157600080fd5b505afa158015610c05573d6000803e3d6000fd5b505050506040513d601f19601f82011682018060405250810190610c299190612316565b6001600160a01b0316636352211e836040518263ffffffff1660e01b8152600401610c5691815260200190565b60206040518083038186803b158015610c6e57600080fd5b505afa158015610c82573d6000803e3d6000fd5b505050506040513d601f19601f82011682018060405250810190610ca69190612316565b6001600160a01b031614610cb957600080fd5b6000818152600d60209081526040808320858452600b90925290912054610ce0919061189b565b15610cea57600080fd5b610cf533308461089d565b6000818152600d60209081526040808320805460018101825590845282842001859055848352600c82529182902042905581518481529081018390527fbbf74ef0f04ad66f234ae0551ef5d620cf45bf4339261965ad3a6eab3c91d644910160405180910390a15050565b6000610d6b60085490565b8210610ddf5760405162461bcd60e51b815260206004820152602c60248201527f455243373231456e756d657261626c653a20676c6f62616c20696e646578206f60448201527f7574206f6620626f756e647300000000000000000000000000000000000000006064820152608401610608565b60088281548110610e0057634e487b7160e01b600052603260045260246000fd5b90600052602060002001549050919050565b600080610e1e8461083b565b90506000805b8251811015610f26576000600b6000858481518110610e5357634e487b7160e01b600052603260045260246000fd5b602002602001015181526020019081526020016000205490506000600f60008381526020019081526020016000205490506000600c6000878681518110610eaa57634e487b7160e01b600052603260045260246000fd5b602002602001015181526020019081526020016000205490508060001415610ed457505050610f14565b6000610ee9610ee383426127c1565b8a611975565b905062015180610ef984836127a2565b610f03919061278e565b610f0d9087612776565b9550505050505b80610f1e8161283f565b915050610e24565b50949350505050565b6000818152600260205260408120546001600160a01b0316806104f95760405162461bcd60e51b815260206004820152602960248201527f4552433732313a206f776e657220717565727920666f72206e6f6e657869737460448201527f656e7420746f6b656e00000000000000000000000000000000000000000000006064820152608401610608565b60006001600160a01b0382166110385760405162461bcd60e51b815260206004820152602a60248201527f4552433732313a2062616c616e636520717565727920666f7220746865207a6560448201527f726f2061646472657373000000000000000000000000000000000000000000006064820152608401610608565b506001600160a01b031660009081526003602052604090205490565b60606001805461051090612804565b601060009054906101000a90046001600160a01b03166001600160a01b031663706908ff6040518163ffffffff1660e01b815260040160206040518083038186803b1580156110b157600080fd5b505afa1580156110c5573d6000803e3d6000fd5b505050506040513d601f19601f820116820180604052508101906110e99190612316565b6001600160a01b0316336001600160a01b03161461110657600080fd5b6000818152600d602090815260408083208054825181850281018501909352808352919290919083018282801561115c57602002820191906000526020600020905b815481526020019060010190808311611148575b5050505050905060005b815181101561075a576111a082828151811061119257634e487b7160e01b600052603260045260246000fd5b60200260200101518461198d565b806111aa8161283f565b915050611166565b6001600160a01b03821633141561120b5760405162461bcd60e51b815260206004820152601960248201527f4552433732313a20617070726f766520746f2063616c6c6572000000000000006044820152606401610608565b3360008181526005602090815260408083206001600160a01b0387168085529252909120805460ff1916841515179055906001600160a01b03167f17307eab39ab6107e8899845ad3d59bd9653f200f220920489ca2b5937696c3183604051611278911515815260200190565b60405180910390a35050565b6010546001600160a01b0316331461129b57600080fd5b6000918252600f602052604090912055565b6112b733836115bf565b6113295760405162461bcd60e51b815260206004820152603160248201527f4552433732313a207472616e736665722063616c6c6572206973206e6f74206f60448201527f776e6572206e6f7220617070726f7665640000000000000000000000000000006064820152608401610608565b61083584848484611acd565b6000818152600260205260409020546060906001600160a01b03166113c25760405162461bcd60e51b815260206004820152602f60248201527f4552433732314d657461646174613a2055524920717565727920666f72206e6f60448201527f6e6578697374656e7420746f6b656e00000000000000000000000000000000006064820152608401610608565b60006113d960408051602081019091526000815290565b905060008151116113f95760405180602001604052806000815250611424565b8061140384611b56565b6040516020016114149291906126b4565b6040516020818303038152906040525b9392505050565b600d602052816000526040600020818154811061144757600080fd5b90600052602060002001600091509150505481565b80546001019055565b5490565b60006001600160e01b031982167f80ac58cd0000000000000000000000000000000000000000000000000000000014806114cc57506001600160e01b031982167f5b5e139f00000000000000000000000000000000000000000000000000000000145b806104f957507f01ffc9a7000000000000000000000000000000000000000000000000000000006001600160e01b03198316146104f9565b6000818152600460205260409020805473ffffffffffffffffffffffffffffffffffffffff19166001600160a01b038416908117909155819061154682610f2f565b6001600160a01b03167f8c5be1e5ebec7d5bd14f71427d1e84f3dd0314c0f7b2291e5b200ac8c7c3b92560405160405180910390a45050565b600061158b833061191a565b6000928352600d60209081526040808520805460018101825590865282862001839055918452600c90529091204290555050565b6000818152600260205260408120546001600160a01b03166116385760405162461bcd60e51b815260206004820152602c60248201527f4552433732313a206f70657261746f7220717565727920666f72206e6f6e657860448201526b34b9ba32b73a103a37b5b2b760a11b6064820152608401610608565b600061164383610f2f565b9050806001600160a01b0316846001600160a01b0316148061167e5750836001600160a01b031661167384610593565b6001600160a01b0316145b806116ae57506001600160a01b0380821660009081526005602090815260408083209388168352929052205460ff165b949350505050565b826001600160a01b03166116c982610f2f565b6001600160a01b0316146117455760405162461bcd60e51b815260206004820152602960248201527f4552433732313a207472616e73666572206f6620746f6b656e2074686174206960448201527f73206e6f74206f776e00000000000000000000000000000000000000000000006064820152608401610608565b6001600160a01b0382166117c05760405162461bcd60e51b8152602060048201526024808201527f4552433732313a207472616e7366657220746f20746865207a65726f2061646460448201527f72657373000000000000000000000000000000000000000000000000000000006064820152608401610608565b6117cb838383611ca5565b6117d6600082611504565b6001600160a01b03831660009081526003602052604081208054600192906117ff9084906127c1565b90915550506001600160a01b038216600090815260036020526040812080546001929061182d908490612776565b9091555050600081815260026020526040808220805473ffffffffffffffffffffffffffffffffffffffff19166001600160a01b0386811691821790925591518493918716917fddf252ad1be2c89b69c2b068fc378daa952ba7f163c4a11628f55a4df523b3ef91a4505050565b6000805b8354811015611910576000600b60008684815481106118ce57634e487b7160e01b600052603260045260246000fd5b90600052602060002001548152602001908152602001600020549050838114156118fd57600192505050610b56565b50806119088161283f565b91505061189f565b5060009392505050565b6000600e54831115801561192e5750600083115b61193757600080fd5b611945600a80546001019055565b6000611950600a5490565b905061195c8382611d62565b6000818152600b60205260409020849055905092915050565b600081831015611986575081610b56565b5080610b56565b6000818152600d60205260408120906119a68285611ebd565b905060008112156119b657600080fd5b6119c08282611f20565b61083530601060009054906101000a90046001600160a01b03166001600160a01b031663706908ff6040518163ffffffff1660e01b815260040160206040518083038186803b158015611a1257600080fd5b505afa158015611a26573d6000803e3d6000fd5b505050506040513d601f19601f82011682018060405250810190611a4a9190612316565b6001600160a01b0316636352211e866040518263ffffffff1660e01b8152600401611a7791815260200190565b60206040518083038186803b158015611a8f57600080fd5b505afa158015611aa3573d6000803e3d6000fd5b505050506040513d601f19601f82011682018060405250810190611ac79190612316565b866116b6565b611ad88484846116b6565b611ae484848484611fcd565b6108355760405162461bcd60e51b815260206004820152603260248201527f4552433732313a207472616e7366657220746f206e6f6e20455243373231526560448201527f63656976657220696d706c656d656e74657200000000000000000000000000006064820152608401610608565b606081611b97575060408051808201909152600181527f300000000000000000000000000000000000000000000000000000000000000060208201526104fc565b8160005b8115611bc15780611bab8161283f565b9150611bba9050600a8361278e565b9150611b9b565b60008167ffffffffffffffff811115611bea57634e487b7160e01b600052604160045260246000fd5b6040519080825280601f01601f191660200182016040528015611c14576020820181803683370190505b5090505b84156116ae57611c296001836127c1565b9150611c36600a8661285a565b611c41906030612776565b60f81b818381518110611c6457634e487b7160e01b600052603260045260246000fd5b60200101907effffffffffffffffffffffffffffffffffffffffffffffffffffffffffffff1916908160001a905350611c9e600a8661278e565b9450611c18565b6001600160a01b038316611d0057611cfb81600880546000838152600960205260408120829055600182018355919091527ff3f7a9fe364faab93b216da50a3214154f22a0a2b415b23a84c8169e8b636ee30155565b611d23565b816001600160a01b0316836001600160a01b031614611d2357611d238382612130565b6001600160a01b038216611d3f57611d3a816121cd565b61075a565b826001600160a01b0316826001600160a01b03161461075a5761075a82826122a6565b6001600160a01b038216611db85760405162461bcd60e51b815260206004820181905260248201527f4552433732313a206d696e7420746f20746865207a65726f20616464726573736044820152606401610608565b6000818152600260205260409020546001600160a01b031615611e1d5760405162461bcd60e51b815260206004820152601c60248201527f4552433732313a20746f6b656e20616c7265616479206d696e746564000000006044820152606401610608565b611e2960008383611ca5565b6001600160a01b0382166000908152600360205260408120805460019290611e52908490612776565b9091555050600081815260026020526040808220805473ffffffffffffffffffffffffffffffffffffffff19166001600160a01b03861690811790915590518392907fddf252ad1be2c89b69c2b068fc378daa952ba7f163c4a11628f55a4df523b3ef908290a45050565b6000805b8354811015611f155782848281548110611eeb57634e487b7160e01b600052603260045260246000fd5b90600052602060002001541415611f03579050610b56565b80611f0d8161283f565b915050611ec1565b506000199392505050565b81548110611f2d57611fc9565b81548290611f3d906001906127c1565b81548110611f5b57634e487b7160e01b600052603260045260246000fd5b9060005260206000200154828281548110611f8657634e487b7160e01b600052603260045260246000fd5b906000526020600020018190555081805480611fb257634e487b7160e01b600052603160045260246000fd5b600190038181906000526020600020016000905590555b5050565b60006001600160a01b0384163b1561212557604051630a85bd0160e11b81526001600160a01b0385169063150b7a02906120119033908990889088906004016126e3565b602060405180830381600087803b15801561202b57600080fd5b505af192505050801561205b575060408051601f3d908101601f1916820190925261205891810190612598565b60015b61210b573d808015612089576040519150601f19603f3d011682016040523d82523d6000602084013e61208e565b606091505b5080516121035760405162461bcd60e51b815260206004820152603260248201527f4552433732313a207472616e7366657220746f206e6f6e20455243373231526560448201527f63656976657220696d706c656d656e74657200000000000000000000000000006064820152608401610608565b805181602001fd5b6001600160e01b031916630a85bd0160e11b1490506116ae565b506001949350505050565b6000600161213d84610fba565b61214791906127c1565b60008381526007602052604090205490915080821461219a576001600160a01b03841660009081526006602090815260408083208584528252808320548484528184208190558352600790915290208190555b5060009182526007602090815260408084208490556001600160a01b039094168352600681528383209183525290812055565b6008546000906121df906001906127c1565b6000838152600960205260408120546008805493945090928490811061221557634e487b7160e01b600052603260045260246000fd5b90600052602060002001549050806008838154811061224457634e487b7160e01b600052603260045260246000fd5b600091825260208083209091019290925582815260099091526040808220849055858252812055600880548061228a57634e487b7160e01b600052603160045260246000fd5b6001900381819060005260206000200160009055905550505050565b60006122b183610fba565b6001600160a01b039093166000908152600660209081526040808320868452825280832085905593825260079052919091209190915550565b803580151581146104fc57600080fd5b60006020828403121561230b578081fd5b8135611424816128b0565b600060208284031215612327578081fd5b8151611424816128b0565b60008060408385031215612344578081fd5b823561234f816128b0565b9150602083013561235f816128b0565b809150509250929050565b60008060006060848603121561237e578081fd5b8335612389816128b0565b92506020840135612399816128b0565b929592945050506040919091013590565b6000806000806000608086880312156123c1578081fd5b85356123cc816128b0565b945060208601356123dc816128b0565b935060408601359250606086013567ffffffffffffffff808211156123ff578283fd5b818801915088601f830112612412578283fd5b813581811115612420578384fd5b896020828501011115612431578384fd5b9699959850939650602001949392505050565b60008060008060808587031215612459578384fd5b8435612464816128b0565b93506020850135612474816128b0565b925060408501359150606085013567ffffffffffffffff80821115612497578283fd5b818701915087601f8301126124aa578283fd5b8135818111156124bc576124bc61289a565b604051601f8201601f19908116603f011681019083821181831017156124e4576124e461289a565b816040528281528a60208487010111156124fc578586fd5b82602086016020830137918201602001949094529598949750929550505050565b6000806040838503121561252f578182fd5b823561253a816128b0565b9150612548602084016122ea565b90509250929050565b60008060408385031215612563578182fd5b823561256e816128b0565b946020939093013593505050565b60006020828403121561258d578081fd5b8135611424816128c8565b6000602082840312156125a9578081fd5b8151611424816128c8565b6000602082840312156125c5578081fd5b5035919050565b600080604083850312156125de578182fd5b82359150602083013561235f816128b0565b60008060008060808587031215612605578182fd5b84359350612615602086016122ea565b9250612623604086016122ea565b9150612631606086016122ea565b905092959194509250565b6000806040838503121561264e578182fd5b50508035926020909101359150565b600080600060608486031215612671578081fd5b505081359360208301359350604090920135919050565b600081518084526126a08160208601602086016127d8565b601f01601f19169290920160200192915050565b600083516126c68184602088016127d8565b8351908301906126da8183602088016127d8565b01949350505050565b60006001600160a01b038087168352808616602084015250836040830152608060608301526127156080830184612688565b9695505050505050565b6020808252825182820181905260009190848201906040850190845b818110156127575783518352928401929184019160010161273b565b50909695505050505050565b6000602082526114246020830184612688565b600082198211156127895761278961286e565b500190565b60008261279d5761279d612884565b500490565b60008160001904831182151516156127bc576127bc61286e565b500290565b6000828210156127d3576127d361286e565b500390565b60005b838110156127f35781810151838201526020016127db565b838111156108355750506000910152565b60028104600182168061281857607f821691505b6020821081141561283957634e487b7160e01b600052602260045260246000fd5b50919050565b60006000198214156128535761285361286e565b5060010190565b60008261286957612869612884565b500690565b634e487b7160e01b600052601160045260246000fd5b634e487b7160e01b600052601260045260246000fd5b634e487b7160e01b600052604160045260246000fd5b6001600160a01b03811681146128c557600080fd5b50565b6001600160e01b0319811681146128c557600080fdfea2646970667358221220b1d142eac9a271ec44489421b7543c314502466141d9b1d347e863f15b91ffed64736f6c634300080200336080604052600a60025534801561001557600080fd5b50600380546001600160a01b03191633179055610d5c806100376000396000f3fe608060405234801561001057600080fd5b50600436106100885760003560e01c80639407ea981161005b5780639407ea9814610195578063a3031b77146101a8578063aa75de60146101b0578063f34632c9146101c357610088565b8063150b7a021461008d5780632756d9b3146100fb5780636a166964146101695780637e9aa2c014610180575b600080fd5b6100c561009b366004610b15565b7ff0b9e5ba0000000000000000000000000000000000000000000000000000000095945050505050565b6040517fffffffff0000000000000000000000000000000000000000000000000000000090911681526020015b60405180910390f35b610156610109366004610c03565b60016020819052600091825260409091208054918101546002820154600383015460048401546005909401546001600160a01b03938416949284169391929160ff82169161010090041687565b6040516100f29796959493929190610c3d565b61017260025481565b6040519081526020016100f2565b61019361018e366004610c03565b6101d6565b005b6101936101a3366004610c03565b6103b3565b600054610172565b6101936101be366004610c03565b6103cf565b6101936101d1366004610baf565b61083d565b6000818152600160208181526040808420815160e08101835281548152938101546001600160a01b03908116938501939093526002808201549093169184019190915260038101546060840152600481015460808401526005810154909160a084019160ff169081111561025a57634e487b7160e01b600052602160045260246000fd5b600281111561027957634e487b7160e01b600052602160045260246000fd5b81526005919091015461010090046001600160a01b03908116602092830152908201519192501633146102ab57600080fd5b60008160a0015160028111156102d157634e487b7160e01b600052602160045260246000fd5b146102db57600080fd5b6040818101516020830151606084015192516323b872dd60e01b81523060048201526001600160a01b03918216602482015260448101939093529091908216906323b872dd90606401600060405180830381600087803b15801561033e57600080fd5b505af1158015610352573d6000803e3d6000fd5b50505060008481526001602052604090819020600501805460ff1916600290811790915590517f063013d0db83523caf2bbe63c42e48ebd60db20e00cb3c6bbeb5dc11b9bd1d0092506103a6918691610c8e565b60405180910390a1505050565b6003546001600160a01b031633146103ca57600080fd5b600255565b6000818152600160208181526040808420815160e08101835281548152938101546001600160a01b03908116938501939093526002808201549093169184019190915260038101546060840152600481015460808401526005810154909160a084019160ff169081111561045357634e487b7160e01b600052602160045260246000fd5b600281111561047257634e487b7160e01b600052602160045260246000fd5b81526005919091015461010090046001600160a01b0316602090910152905060008160a0015160028111156104b757634e487b7160e01b600052602160045260246000fd5b146104c157600080fd5b6000606460025483608001516104d79190610cc2565b6104e19190610ca2565b9050600360009054906101000a90046001600160a01b03166001600160a01b031663fe43e58d6040518163ffffffff1660e01b815260040160206040518083038186803b15801561053157600080fd5b505afa158015610545573d6000803e3d6000fd5b505050506040513d601f19601f820116820180604052508101906105699190610af2565b6040517f79cc6790000000000000000000000000000000000000000000000000000000008152336004820152602481018390526001600160a01b0391909116906379cc679090604401600060405180830381600087803b1580156105cc57600080fd5b505af11580156105e0573d6000803e3d6000fd5b50505050600360009054906101000a90046001600160a01b03166001600160a01b031663fe43e58d6040518163ffffffff1660e01b815260040160206040518083038186803b15801561063257600080fd5b505afa158015610646573d6000803e3d6000fd5b505050506040513d601f19601f8201168201806040525081019061066a9190610af2565b6001600160a01b03166323b872dd33846020015184866080015161068e9190610ce1565b6040517fffffffff0000000000000000000000000000000000000000000000000000000060e086901b1681526001600160a01b0393841660048201529290911660248301526044820152606401602060405180830381600087803b1580156106f557600080fd5b505af1158015610709573d6000803e3d6000fd5b505050506040513d601f19601f8201168201806040525081019061072d9190610be3565b50604082810151606084015191517f42842e0e0000000000000000000000000000000000000000000000000000000081523060048201523360248201526044810192909252906001600160a01b038216906342842e0e90606401600060405180830381600087803b1580156107a157600080fd5b505af11580156107b5573d6000803e3d6000fd5b505050600085815260016020819052604091829020600501805460ff191682177fffffffffffffffffffffff0000000000000000000000000000000000000000ff16336101000217905590517f063013d0db83523caf2bbe63c42e48ebd60db20e00cb3c6bbeb5dc11b9bd1d00925061082f918791610c8e565b60405180910390a150505050565b6040517f6352211e00000000000000000000000000000000000000000000000000000000815260048101839052839033906001600160a01b03831690636352211e9060240160206040518083038186803b15801561089a57600080fd5b505afa1580156108ae573d6000803e3d6000fd5b505050506040513d601f19601f820116820180604052508101906108d29190610af2565b6001600160a01b0316146108e557600080fd5b6108f3600080546001019055565b6040516323b872dd60e01b8152336004820152306024820152604481018490526001600160a01b038216906323b872dd90606401600060405180830381600087803b15801561094157600080fd5b505af1158015610955573d6000803e3d6000fd5b50505050600061096460005490565b90506040518060e00160405280828152602001336001600160a01b03168152602001866001600160a01b03168152602001858152602001848152602001600060028111156109c257634e487b7160e01b600052602160045260246000fd5b8152600060209182018190528381526001808352604091829020845181559284015183820180546001600160a01b039283167fffffffffffffffffffffffff00000000000000000000000000000000000000009182161790915592850151600280860180549290931691909416179055606084015160038401556080840151600484015560a08401516005840180549193909260ff1990921691908490811115610a7c57634e487b7160e01b600052602160045260246000fd5b021790555060c08201518160050160016101000a8154816001600160a01b0302191690836001600160a01b031602179055509050507f063013d0db83523caf2bbe63c42e48ebd60db20e00cb3c6bbeb5dc11b9bd1d00816000604051610ae3929190610c8e565b60405180910390a15050505050565b600060208284031215610b03578081fd5b8151610b0e81610d0e565b9392505050565b600080600080600060808688031215610b2c578081fd5b8535610b3781610d0e565b94506020860135610b4781610d0e565b935060408601359250606086013567ffffffffffffffff80821115610b6a578283fd5b818801915088601f830112610b7d578283fd5b813581811115610b8b578384fd5b896020828501011115610b9c578384fd5b9699959850939650602001949392505050565b600080600060608486031215610bc3578283fd5b8335610bce81610d0e565b95602085013595506040909401359392505050565b600060208284031215610bf4578081fd5b81518015158114610b0e578182fd5b600060208284031215610c14578081fd5b5035919050565b60038110610c3957634e487b7160e01b600052602160045260246000fd5b9052565b600060e0820190508882526001600160a01b0380891660208401528088166040840152866060840152856080840152610c7960a0840186610c1b565b80841660c08401525098975050505050505050565b82815260408101610b0e6020830184610c1b565b600082610cbd57634e487b7160e01b81526012600452602481fd5b500490565b6000816000190483118215151615610cdc57610cdc610cf8565b500290565b600082821015610cf357610cf3610cf8565b500390565b634e487b7160e01b600052601160045260246000fd5b6001600160a01b0381168114610d2357600080fd5b5056fea2646970667358221220db8c8022557fd9b7b8757f4b04aae660e47485dc92f262d135a9daafd5b60ca664736f6c63430008020033",
  "linkReferences": {},
  "deployedLinkReferences": {}
}