{
  "_format": "hh-sol-artifact-1",
  "contractName": "StrainzMultisigVault",
  "sourceName": "contracts/Vaults/StrainzMultisigVault.sol",
  "abi": [
    {
      "inputs": [
        {
          "internalType": "contract StrainzMaster",
          "name": "_master",
          "type": "address"
        },
        {
          "internalType": "uint256",
          "name": "_vaultId",
          "type": "uint256"
        },
        {
          "internalType": "string",
          "name": "_name",
          "type": "string"
        },
        {
          "internalType": "uint256",
          "name": "_minSignersNeeded",
          "type": "uint256"
        },
        {
          "internalType": "address[]",
          "name": "_signers",
          "type": "address[]"
        },
        {
          "internalType": "string[]",
          "name": "_names",
          "type": "string[]"
        }
      ],
      "stateMutability": "nonpayable",
      "type": "constructor"
    },
    {
      "anonymous": false,
      "inputs": [
        {
          "indexed": false,
          "internalType": "uint256",
          "name": "proposalId",
          "type": "uint256"
        }
      ],
      "name": "ProposalCreated",
      "type": "event"
    },
    {
      "anonymous": false,
      "inputs": [
        {
          "indexed": false,
          "internalType": "uint256",
          "name": "proposalId",
          "type": "uint256"
        }
      ],
      "name": "ProposalExecuted",
      "type": "event"
    },
    {
      "anonymous": false,
      "inputs": [
        {
          "indexed": false,
          "internalType": "uint256",
          "name": "proposalId",
          "type": "uint256"
        }
      ],
      "name": "ProposalSigned",
      "type": "event"
    },
    {
      "inputs": [],
      "name": "getSigners",
      "outputs": [
        {
          "internalType": "address[]",
          "name": "",
          "type": "address[]"
        }
      ],
      "stateMutability": "view",
      "type": "function"
    },
    {
      "inputs": [
        {
          "internalType": "uint256",
          "name": "proposalId",
          "type": "uint256"
        }
      ],
      "name": "getSignersForProposal",
      "outputs": [
        {
          "internalType": "address[]",
          "name": "",
          "type": "address[]"
        }
      ],
      "stateMutability": "view",
      "type": "function"
    },
    {
      "inputs": [],
      "name": "harvest",
      "outputs": [],
      "stateMutability": "nonpayable",
      "type": "function"
    },
    {
      "inputs": [],
      "name": "minSignersNeeded",
      "outputs": [
        {
          "internalType": "uint256",
          "name": "",
          "type": "uint256"
        }
      ],
      "stateMutability": "view",
      "type": "function"
    },
    {
      "inputs": [],
      "name": "name",
      "outputs": [
        {
          "internalType": "string",
          "name": "",
          "type": "string"
        }
      ],
      "stateMutability": "view",
      "type": "function"
    },
    {
      "inputs": [],
      "name": "numberOfProposals",
      "outputs": [
        {
          "internalType": "uint256",
          "name": "",
          "type": "uint256"
        }
      ],
      "stateMutability": "view",
      "type": "function"
    },
    {
      "inputs": [
        {
          "internalType": "address",
          "name": "",
          "type": "address"
        },
        {
          "internalType": "address",
          "name": "",
          "type": "address"
        },
        {
          "internalType": "uint256",
          "name": "",
          "type": "uint256"
        },
        {
          "internalType": "bytes",
          "name": "",
          "type": "bytes"
        }
      ],
      "name": "onERC721Received",
      "outputs": [
        {
          "internalType": "bytes4",
          "name": "",
          "type": "bytes4"
        }
      ],
      "stateMutability": "pure",
      "type": "function"
    },
    {
      "inputs": [
        {
          "internalType": "uint256",
          "name": "",
          "type": "uint256"
        }
      ],
      "name": "proposals",
      "outputs": [
        {
          "internalType": "uint256",
          "name": "id",
          "type": "uint256"
        },
        {
          "internalType": "enum StrainzMultisigVault.ProposalType",
          "name": "proposalType",
          "type": "uint8"
        },
        {
          "internalType": "address",
          "name": "proposer",
          "type": "address"
        },
        {
          "internalType": "address",
          "name": "receiver",
          "type": "address"
        },
        {
          "internalType": "uint256",
          "name": "amount",
          "type": "uint256"
        },
        {
          "internalType": "uint256",
          "name": "tokenId",
          "type": "uint256"
        },
        {
          "internalType": "uint256",
          "name": "breedId1",
          "type": "uint256"
        },
        {
          "internalType": "uint256",
          "name": "breedId2",
          "type": "uint256"
        },
        {
          "internalType": "bool",
          "name": "executed",
          "type": "bool"
        }
      ],
      "stateMutability": "view",
      "type": "function"
    },
    {
      "inputs": [
        {
          "internalType": "uint256",
          "name": "breedId1",
          "type": "uint256"
        },
        {
          "internalType": "uint256",
          "name": "breedId2",
          "type": "uint256"
        }
      ],
      "name": "proposeBreed",
      "outputs": [],
      "stateMutability": "nonpayable",
      "type": "function"
    },
    {
      "inputs": [
        {
          "internalType": "address",
          "name": "receiver",
          "type": "address"
        },
        {
          "internalType": "uint256",
          "name": "tokenIdOrAmount",
          "type": "uint256"
        },
        {
          "internalType": "bool",
          "name": "nft",
          "type": "bool"
        }
      ],
      "name": "proposeWithdrawal",
      "outputs": [],
      "stateMutability": "nonpayable",
      "type": "function"
    },
    {
      "inputs": [
        {
          "internalType": "uint256",
          "name": "proposalId",
          "type": "uint256"
        }
      ],
      "name": "signProposal",
      "outputs": [],
      "stateMutability": "nonpayable",
      "type": "function"
    },
    {
      "inputs": [
        {
          "internalType": "address",
          "name": "",
          "type": "address"
        }
      ],
      "name": "signerNames",
      "outputs": [
        {
          "internalType": "string",
          "name": "",
          "type": "string"
        }
      ],
      "stateMutability": "view",
      "type": "function"
    },
    {
      "inputs": [
        {
          "internalType": "uint256",
          "name": "",
          "type": "uint256"
        }
      ],
      "name": "signers",
      "outputs": [
        {
          "internalType": "address",
          "name": "",
          "type": "address"
        }
      ],
      "stateMutability": "view",
      "type": "function"
    },
    {
      "inputs": [],
      "name": "vaultId",
      "outputs": [
        {
          "internalType": "uint256",
          "name": "",
          "type": "uint256"
        }
      ],
      "stateMutability": "view",
      "type": "function"
    }
  ],
  "bytecode": "0x608060405260006006553480156200001657600080fd5b5060405162001f2c38038062001f2c833981016040819052620000399162000380565b815183111580156200004b5750600183115b801562000059575060018251115b801562000067575060008451115b801562000075575081518151145b6200007f57600080fd5b60005b82518110156200018d576004838281518110620000af57634e487b7160e01b600052603260045260246000fd5b60209081029190910181015182546001810184556000938452919092200180546001600160a01b0319166001600160a01b0390921691909117905581518290829081106200010d57634e487b7160e01b600052603260045260246000fd5b6020026020010151600560008584815181106200013a57634e487b7160e01b600052603260045260246000fd5b60200260200101516001600160a01b03166001600160a01b03168152602001908152602001600020908051906020019062000177929190620001d9565b5080620001848162000535565b91505062000082565b5060038390558351620001a8906002906020870190620001d9565b5050506001929092555050600080546001600160a01b0319166001600160a01b03929092169190911790556200058c565b828054620001e790620004f8565b90600052602060002090601f0160209004810192826200020b576000855562000256565b82601f106200022657805160ff191683800117855562000256565b8280016001018555821562000256579182015b828111156200025657825182559160200191906001019062000239565b506200026492915062000268565b5090565b5b8082111562000264576000815560010162000269565b600082601f83011262000290578081fd5b81516020620002a9620002a383620004d2565b6200049f565b82815281810190858301855b85811015620002e257620002cf898684518b0101620002ef565b84529284019290840190600101620002b5565b5090979650505050505050565b600082601f83011262000300578081fd5b81516001600160401b038111156200031c576200031c6200055d565b602062000332601f8301601f191682016200049f565b828152858284870101111562000346578384fd5b835b838110156200036557858101830151828201840152820162000348565b838111156200037657848385840101525b5095945050505050565b60008060008060008060c0878903121562000399578182fd5b8651620003a68162000573565b60208881015160408a01519298509650906001600160401b0380821115620003cc578485fd5b620003da8b838c01620002ef565b965060608a0151955060808a0151915080821115620003f7578485fd5b818a0191508a601f8301126200040b578485fd5b81516200041c620002a382620004d2565b81815284810190848601868402860187018f101562000439578889fd5b8895505b8386101562000468578051620004538162000573565b8352600195909501949186019186016200043d565b5060a08d0151909750945050508083111562000482578384fd5b50506200049289828a016200027f565b9150509295509295509295565b604051601f8201601f191681016001600160401b0381118282101715620004ca57620004ca6200055d565b604052919050565b60006001600160401b03821115620004ee57620004ee6200055d565b5060209081020190565b6002810460018216806200050d57607f821691505b602082108114156200052f57634e487b7160e01b600052602260045260246000fd5b50919050565b60006000198214156200055657634e487b7160e01b81526011600452602481fd5b5060010190565b634e487b7160e01b600052604160045260246000fd5b6001600160a01b03811681146200058957600080fd5b50565b611990806200059c6000396000f3fe608060405234801561001057600080fd5b50600436106100ea5760003560e01c806349ef82741161008c5780639a103aea116100665780639a103aea1461027e578063ab27301614610291578063b1444a3e146102a4578063cf9e227c146102ad576100ea565b806349ef82741461024d5780638d7af4731461026057806394cf795e14610269576100ea565b80632079fb9a116100c85780632079fb9a146101ee57806333194c0a14610219578063373ce47f146102305780634641257d14610245576100ea565b8063013cf08b146100ef57806306fdde0314610170578063150b7a0214610185575b600080fd5b6101526100fd3660046116cc565b60076020526000908152604090208054600182015460028301546003840154600485015460058601546006870154600890970154959660ff808716976101009097046001600160a01b03908116979616951689565b60405161016799989796959493929190611820565b60405180910390f35b6101786102c0565b60405161016791906117ed565b6101bd6101933660046115b9565b7ff0b9e5ba0000000000000000000000000000000000000000000000000000000095945050505050565b6040517fffffffff000000000000000000000000000000000000000000000000000000009091168152602001610167565b6102016101fc3660046116cc565b61034e565b6040516001600160a01b039091168152602001610167565b61022260015481565b604051908152602001610167565b61024361023e366004611653565b610378565b005b61024361066e565b61024361025b36600461177f565b610758565b61022260065481565b6102716109c9565b60405161016791906117a0565b61017861028c366004611596565b610a2b565b61024361029f3660046116cc565b610a44565b61022260035481565b6102716102bb3660046116cc565b610b70565b600280546102cd906118bc565b80601f01602080910402602001604051908101604052809291908181526020018280546102f9906118bc565b80156103465780601f1061031b57610100808354040283529160200191610346565b820191906000526020600020905b81548152906001019060200180831161032957829003601f168201915b505050505081565b6004818154811061035e57600080fd5b6000918252602090912001546001600160a01b0316905081565b61038133610bdf565b61038a57600080fd5b6040805160018082528183019092526000916020808301908036833701905050905033816000815181106103ce57634e487b7160e01b600052603260045260246000fd5b6001600160a01b039092166020928302919091018201526040805161014081018252600080825292810183905290810182905260608082018390526080820183905260a0820183905260c0820183905260e0820183905261010082015261012081019190915282156104a35760408051610140810190915260065481526020810160018152602001336001600160a01b03168152602001866001600160a01b03168152602001600081526020018581526020016000815260200160008152602001838152602001600015158152509050610508565b60408051610140810190915260065481526020810160008152602001336001600160a01b03168152602001866001600160a01b031681526020018581526020016000815260200160008152602001600081526020018381526020016000151581525090505b60065460009081526007602090815260409091208251815590820151600180830180548594939260ff199091169083600281111561055657634e487b7160e01b600052602160045260246000fd5b0217905550604082015160018201805474ffffffffffffffffffffffffffffffffffffffff0019166101006001600160a01b03938416810291909117909155606084015160028401805473ffffffffffffffffffffffffffffffffffffffff191691909316179091556080830151600383015560a0830151600483015560c0830151600583015560e083015160068301558201518051610600916007840191602090910190611489565b5061012091909101516008909101805460ff191691151591909117905580516040519081527fc2c021f5d73c63c481d336fbbafec58f694fc45095f00b02d2deb8cca59afe079060200160405180910390a160068054906000610662836118f7565b91905055505050505050565b61067733610bdf565b61068057600080fd5b60008054906101000a90046001600160a01b03166001600160a01b031663706908ff6040518163ffffffff1660e01b815260040160206040518083038186803b1580156106cc57600080fd5b505afa1580156106e0573d6000803e3d6000fd5b505050506040513d601f19601f8201168201806040525081019061070491906116b0565b6001600160a01b031663df9eaecb6040518163ffffffff1660e01b8152600401600060405180830381600087803b15801561073e57600080fd5b505af1158015610752573d6000803e3d6000fd5b50505050565b61076133610bdf565b61076a57600080fd5b6040805160018082528183019092526000916020808301908036833701905050905033816000815181106107ae57634e487b7160e01b600052603260045260246000fd5b6001600160a01b039092166020928302919091018201526040805161014081018252600080825292810183905290810182905260608082018390526080820183905260a0820183905260c0820183905260e082018390526101008201526101208101919091525060408051610140810182526006548082526002602080840182815233858701526000606086018190526080860181905260a0860181905260c086018a905260e086018990526101008601889052610120860181905293845260079091529390912082518155925160018481018054949586959094919260ff19919091169184908111156108b257634e487b7160e01b600052602160045260246000fd5b0217905550604082015160018201805474ffffffffffffffffffffffffffffffffffffffff0019166101006001600160a01b03938416810291909117909155606084015160028401805473ffffffffffffffffffffffffffffffffffffffff191691909316179091556080830151600383015560a0830151600483015560c0830151600583015560e08301516006830155820151805161095c916007840191602090910190611489565b5061012091909101516008909101805460ff191691151591909117905580516040519081527fc2c021f5d73c63c481d336fbbafec58f694fc45095f00b02d2deb8cca59afe079060200160405180910390a1600680549060006109be836118f7565b919050555050505050565b60606004805480602002602001604051908101604052809291908181526020018280548015610a2157602002820191906000526020600020905b81546001600160a01b03168152600190910190602001808311610a03575b5050505050905090565b600560205260009081526040902080546102cd906118bc565b610a4d33610bdf565b610a5657600080fd5b6000818152600760205260409020600881015460ff1615610a7657600080fd5b610adc3382600701805480602002602001604051908101604052809291908181526020018280548015610ad257602002820191906000526020600020905b81546001600160a01b03168152600190910190602001808311610ab4575b5050505050610c49565b15610ae657600080fd5b6007810180546001810182556000918252602090912001805473ffffffffffffffffffffffffffffffffffffffff19163317905580546040517f2fa1288e649b358550efaaac334f3f084a183d541a084329b9fcf20f6a49e20791610b4e9190815260200190565b60405180910390a1600354600782015410610b6c57610b6c81610cbd565b5050565b600081815260076020818152604092839020909101805483518184028101840190945280845260609392830182828015610bd357602002820191906000526020600020905b81546001600160a01b03168152600190910190602001808311610bb5575b50505050509050919050565b6000610c43826004805480602002602001604051908101604052809291908181526020018280548015610ad2576020028201919060005260206000209081546001600160a01b03168152600190910190602001808311610ab4575050505050610c49565b92915050565b6000805b8251811015610cb357836001600160a01b0316838281518110610c8057634e487b7160e01b600052603260045260246000fd5b60200260200101516001600160a01b03161415610ca1576001915050610c43565b80610cab816118f7565b915050610c4d565b5060009392505050565b6000600182015460ff166002811115610ce657634e487b7160e01b600052602160045260246000fd5b1415610e1c5760008054906101000a90046001600160a01b03166001600160a01b031663fe43e58d6040518163ffffffff1660e01b815260040160206040518083038186803b158015610d3857600080fd5b505afa158015610d4c573d6000803e3d6000fd5b505050506040513d601f19601f82011682018060405250810190610d7091906116b0565b600282015460038301546040517fa9059cbb0000000000000000000000000000000000000000000000000000000081526001600160a01b039283166004820152602481019190915291169063a9059cbb90604401602060405180830381600087803b158015610dde57600080fd5b505af1158015610df2573d6000803e3d6000fd5b505050506040513d601f19601f82011682018060405250810190610e169190611694565b50611283565b60018082015460ff166002811115610e4457634e487b7160e01b600052602160045260246000fd5b1415610f5f5760008054906101000a90046001600160a01b03166001600160a01b031663706908ff6040518163ffffffff1660e01b815260040160206040518083038186803b158015610e9657600080fd5b505afa158015610eaa573d6000803e3d6000fd5b505050506040513d601f19601f82011682018060405250810190610ece91906116b0565b60028201546004808401546040517f42842e0e00000000000000000000000000000000000000000000000000000000815230928101929092526001600160a01b03928316602483015260448201529116906342842e0e90606401600060405180830381600087803b158015610f4257600080fd5b505af1158015610f56573d6000803e3d6000fd5b50505050611283565b6002600182015460ff166002811115610f8857634e487b7160e01b600052602160045260246000fd5b1415611283576000610f9d82600501546112d1565b90506000610fae83600601546112d1565b90506000610fc48360e001518360e00151611471565b905060008054906101000a90046001600160a01b03166001600160a01b031663fe43e58d6040518163ffffffff1660e01b815260040160206040518083038186803b15801561101257600080fd5b505afa158015611026573d6000803e3d6000fd5b505050506040513d601f19601f8201168201806040525081019061104a91906116b0565b6001600160a01b031663095ea7b360008054906101000a90046001600160a01b03166001600160a01b031663fe43e58d6040518163ffffffff1660e01b815260040160206040518083038186803b1580156110a457600080fd5b505afa1580156110b8573d6000803e3d6000fd5b505050506040513d601f19601f820116820180604052508101906110dc91906116b0565b6040517fffffffff0000000000000000000000000000000000000000000000000000000060e084901b1681526001600160a01b03909116600482015260248101849052604401602060405180830381600087803b15801561113c57600080fd5b505af1158015611150573d6000803e3d6000fd5b505050506040513d601f19601f820116820180604052508101906111749190611694565b5060008054906101000a90046001600160a01b03166001600160a01b031663706908ff6040518163ffffffff1660e01b815260040160206040518083038186803b1580156111c157600080fd5b505afa1580156111d5573d6000803e3d6000fd5b505050506040513d601f19601f820116820180604052508101906111f991906116b0565b835183516040517f22fcdcf700000000000000000000000000000000000000000000000000000000815260048101929092526024820152600060448201526001600160a01b0391909116906322fcdcf790606401600060405180830381600087803b15801561126757600080fd5b505af115801561127b573d6000803e3d6000fd5b505050505050505b60088101805460ff1916600117905580546040517f712ae1383f79ac853f8d882153778e0260ef8f03b504e2866e0593e04d2b291f916112c69190815260200190565b60405180910390a150565b61131960405180610100016040528060008152602001606081526020016060815260200160008152602001600081526020016000815260200160008152602001600081525090565b60008060008060008060008060008054906101000a90046001600160a01b03166001600160a01b031663706908ff6040518163ffffffff1660e01b815260040160206040518083038186803b15801561137157600080fd5b505afa158015611385573d6000803e3d6000fd5b505050506040513d601f19601f820116820180604052508101906113a991906116b0565b6001600160a01b031663e14285bb8b6040518263ffffffff1660e01b81526004016113d691815260200190565b60006040518083038186803b1580156113ee57600080fd5b505afa158015611402573d6000803e3d6000fd5b505050506040513d6000823e601f3d908101601f1916820160405261142a91908101906116e4565b60408051610100810182529889526020890197909752958701949094526060860192909252608085015260a084015260c083015260e08201529a9950505050505050505050565b600081831115611482575081610c43565b5080610c43565b8280548282559060005260206000209081019282156114eb579160200282015b828111156114eb578251825473ffffffffffffffffffffffffffffffffffffffff19166001600160a01b039091161782556020909201916001909101906114a9565b506114f79291506114fb565b5090565b5b808211156114f757600081556001016114fc565b600082601f830112611520578081fd5b815167ffffffffffffffff8082111561153b5761153b61191e565b604051601f8301601f19908116603f011681019082821181831017156115635761156361191e565b8160405283815286602085880101111561157b578485fd5b61158c846020830160208901611890565b9695505050505050565b6000602082840312156115a7578081fd5b81356115b281611934565b9392505050565b6000806000806000608086880312156115d0578081fd5b85356115db81611934565b945060208601356115eb81611934565b935060408601359250606086013567ffffffffffffffff8082111561160e578283fd5b818801915088601f830112611621578283fd5b81358181111561162f578384fd5b896020828501011115611640578384fd5b9699959850939650602001949392505050565b600080600060608486031215611667578283fd5b833561167281611934565b92506020840135915060408401356116898161194c565b809150509250925092565b6000602082840312156116a5578081fd5b81516115b28161194c565b6000602082840312156116c1578081fd5b81516115b281611934565b6000602082840312156116dd578081fd5b5035919050565b600080600080600080600080610100898b031215611700578283fd5b88519750602089015167ffffffffffffffff8082111561171e578485fd5b61172a8c838d01611510565b985060408b015191508082111561173f578485fd5b5061174c8b828c01611510565b965050606089015194506080890151935060a0890151925060c0890151915060e089015190509295985092959890939650565b60008060408385031215611791578182fd5b50508035926020909101359150565b6020808252825182820181905260009190848201906040850190845b818110156117e15783516001600160a01b0316835292840192918401916001016117bc565b50909695505050505050565b600060208252825180602084015261180c816040850160208701611890565b601f01601f19169190910160400192915050565b898152610120810160038a1061184657634e487b7160e01b600052602160045260246000fd5b60208201999099526001600160a01b039788166040820152959096166060860152608085019390935260a084019190915260c083015260e082015290151561010090910152919050565b60005b838110156118ab578181015183820152602001611893565b838111156107525750506000910152565b6002810460018216806118d057607f821691505b602082108114156118f157634e487b7160e01b600052602260045260246000fd5b50919050565b600060001982141561191757634e487b7160e01b81526011600452602481fd5b5060010190565b634e487b7160e01b600052604160045260246000fd5b6001600160a01b038116811461194957600080fd5b50565b801515811461194957600080fdfea2646970667358221220a2a40a01b18f74fc407dd0fedf490616e87d1b46b1cd697e6beb286b4bef6c2a64736f6c63430008020033",
  "linkReferences": {},
  "deployedLinkReferences": {}
}