{
  "_format": "hh-sol-artifact-1",
  "contractName": "StrainzMigration",
  "sourceName": "contracts/StrainzMigration.sol",
  "abi": [
    {
      "inputs": [
        {
          "internalType": "address",
          "name": "_nftV2",
          "type": "address"
        },
        {
          "internalType": "address",
          "name": "_strainzV2",
          "type": "address"
        },
        {
          "internalType": "address",
          "name": "_seedzV2",
          "type": "address"
        },
        {
          "internalType": "address",
          "name": "_accessoryV2",
          "type": "address"
        },
        {
          "internalType": "address",
          "name": "_nftV3",
          "type": "address"
        },
        {
          "internalType": "address",
          "name": "_strainzV3",
          "type": "address"
        },
        {
          "internalType": "address",
          "name": "_seedzV3",
          "type": "address"
        },
        {
          "internalType": "address",
          "name": "_accessoryV3",
          "type": "address"
        }
      ],
      "stateMutability": "nonpayable",
      "type": "constructor"
    },
    {
      "anonymous": false,
      "inputs": [
        {
          "indexed": true,
          "internalType": "address",
          "name": "previousOwner",
          "type": "address"
        },
        {
          "indexed": true,
          "internalType": "address",
          "name": "newOwner",
          "type": "address"
        }
      ],
      "name": "OwnershipTransferred",
      "type": "event"
    },
    {
      "inputs": [],
      "name": "accessoryV2",
      "outputs": [
        {
          "internalType": "contract IAccessoryV2",
          "name": "",
          "type": "address"
        }
      ],
      "stateMutability": "view",
      "type": "function"
    },
    {
      "inputs": [],
      "name": "accessoryV3",
      "outputs": [
        {
          "internalType": "contract StrainzAccessory",
          "name": "",
          "type": "address"
        }
      ],
      "stateMutability": "view",
      "type": "function"
    },
    {
      "inputs": [],
      "name": "migrateAccessories",
      "outputs": [],
      "stateMutability": "nonpayable",
      "type": "function"
    },
    {
      "inputs": [],
      "name": "migrateNFTs",
      "outputs": [],
      "stateMutability": "nonpayable",
      "type": "function"
    },
    {
      "inputs": [],
      "name": "migrateTokens",
      "outputs": [],
      "stateMutability": "nonpayable",
      "type": "function"
    },
    {
      "inputs": [],
      "name": "owner",
      "outputs": [
        {
          "internalType": "address",
          "name": "",
          "type": "address"
        }
      ],
      "stateMutability": "view",
      "type": "function"
    },
    {
      "inputs": [],
      "name": "renounceOwnership",
      "outputs": [],
      "stateMutability": "nonpayable",
      "type": "function"
    },
    {
      "inputs": [],
      "name": "seedzTokenV2",
      "outputs": [
        {
          "internalType": "contract ISeedzTokenV2",
          "name": "",
          "type": "address"
        }
      ],
      "stateMutability": "view",
      "type": "function"
    },
    {
      "inputs": [],
      "name": "seedzTokenV3",
      "outputs": [
        {
          "internalType": "contract SeedzToken",
          "name": "",
          "type": "address"
        }
      ],
      "stateMutability": "view",
      "type": "function"
    },
    {
      "inputs": [
        {
          "internalType": "bool",
          "name": "active",
          "type": "bool"
        }
      ],
      "name": "setMigration",
      "outputs": [],
      "stateMutability": "nonpayable",
      "type": "function"
    },
    {
      "inputs": [],
      "name": "strainzNFTV2",
      "outputs": [
        {
          "internalType": "contract IStrainzNFTV2",
          "name": "",
          "type": "address"
        }
      ],
      "stateMutability": "view",
      "type": "function"
    },
    {
      "inputs": [],
      "name": "strainzNFTV3",
      "outputs": [
        {
          "internalType": "contract StrainzNFT",
          "name": "",
          "type": "address"
        }
      ],
      "stateMutability": "view",
      "type": "function"
    },
    {
      "inputs": [],
      "name": "strainzTokenV2",
      "outputs": [
        {
          "internalType": "contract IStrainzTokenV2",
          "name": "",
          "type": "address"
        }
      ],
      "stateMutability": "view",
      "type": "function"
    },
    {
      "inputs": [],
      "name": "strainzTokenV3",
      "outputs": [
        {
          "internalType": "contract StrainzToken",
          "name": "",
          "type": "address"
        }
      ],
      "stateMutability": "view",
      "type": "function"
    },
    {
      "inputs": [
        {
          "internalType": "address",
          "name": "newOwner",
          "type": "address"
        }
      ],
      "name": "transferOwnership",
      "outputs": [],
      "stateMutability": "nonpayable",
      "type": "function"
    }
  ],
  "bytecode": "0x60806040526000805460ff60a01b1916600160a01b17905534801561002357600080fd5b50604051610bbe380380610bbe83398101604081905261004291610130565b600080546001600160a01b031916339081178255604051909182917f8be0079c531659141344cd1fd0a4f28419497f9722a3daafe3b4186f6b6457e0908290a350600180546001600160a01b03199081166001600160a01b039a8b1617909155600280548216988a16989098179097556003805488169689169690961790955560048054871694881694909417909355600580548616928716929092179091556006805485169186169190911790556007805484169185169190911790556008805490921692169190911790556101c6565b80516001600160a01b038116811461012b57600080fd5b919050565b600080600080600080600080610100898b03121561014c578384fd5b61015589610114565b975061016360208a01610114565b965061017160408a01610114565b955061017f60608a01610114565b945061018d60808a01610114565b935061019b60a08a01610114565b92506101a960c08a01610114565b91506101b760e08a01610114565b90509295985092959890939650565b6109e9806101d56000396000f3fe608060405234801561001057600080fd5b50600436106100f55760003560e01c806375bf53c61161009757806380658d1d1161006657806380658d1d146101c85780638da5cb5b146101d0578063e5fa6ce3146101e1578063f2fde38b146101f4576100f5565b806375bf53c61461017c57806379e6912f1461018f5780637b1eeb04146101a25780637f1e250c146101b5576100f5565b806364ed12d1116100d357806364ed12d11461014f5780636d3dfb9e14610162578063715018a61461016c5780637377578114610174576100f5565b8063294d75ed146100fa5780633c38e61f146101295780636028029c1461013c575b600080fd5b60075461010d906001600160a01b031681565b6040516001600160a01b03909116815260200160405180910390f35b60065461010d906001600160a01b031681565b60045461010d906001600160a01b031681565b60035461010d906001600160a01b031681565b61016a610207565b005b61016a6102a4565b61016a61035a565b60025461010d906001600160a01b031681565b60055461010d906001600160a01b031681565b60085461010d906001600160a01b031681565b61016a6101c336600461090e565b6103d0565b61016a610463565b6000546001600160a01b031661010d565b60015461010d906001600160a01b031681565b61016a6102023660046108e0565b6107a2565b600054600160a01b900460ff1661021d57600080fd5b600854600480546040517f1068361f00000000000000000000000000000000000000000000000000000000815233928101929092526001600160a01b03908116602483015290911690631068361f906044015b600060405180830381600087803b15801561028a57600080fd5b505af115801561029e573d6000803e3d6000fd5b50505050565b6000546001600160a01b031633146103035760405162461bcd60e51b815260206004820181905260248201527f4f776e61626c653a2063616c6c6572206973206e6f7420746865206f776e657260448201526064015b60405180910390fd5b600080546040516001600160a01b03909116907f8be0079c531659141344cd1fd0a4f28419497f9722a3daafe3b4186f6b6457e0908390a36000805473ffffffffffffffffffffffffffffffffffffffff19169055565b600054600160a01b900460ff1661037057600080fd5b600554600154600480546040517fc9d658f000000000000000000000000000000000000000000000000000000000815233928101929092526001600160a01b0392831660248301528216604482015291169063c9d658f090606401610270565b6000546001600160a01b0316331461042a5760405162461bcd60e51b815260206004820181905260248201527f4f776e61626c653a2063616c6c6572206973206e6f7420746865206f776e657260448201526064016102fa565b60008054911515600160a01b027fffffffffffffffffffffff00ffffffffffffffffffffffffffffffffffffffff909216919091179055565b600054600160a01b900460ff1661047957600080fd5b6002546040516370a0823160e01b81523360048201526000916001600160a01b0316906370a082319060240160206040518083038186803b1580156104bd57600080fd5b505afa1580156104d1573d6000803e3d6000fd5b505050506040513d601f19601f820116820180604052508101906104f59190610946565b6003546040516370a0823160e01b81523360048201529192506000916001600160a01b03909116906370a082319060240160206040518083038186803b15801561053e57600080fd5b505afa158015610552573d6000803e3d6000fd5b505050506040513d601f19601f820116820180604052508101906105769190610946565b6002546040516323b872dd60e01b8152336004820152306024820152604481018590529192506001600160a01b0316906323b872dd90606401602060405180830381600087803b1580156105c957600080fd5b505af11580156105dd573d6000803e3d6000fd5b505050506040513d601f19601f82011682018060405250810190610601919061092a565b506003546040516323b872dd60e01b8152336004820152306024820152604481018390526001600160a01b03909116906323b872dd90606401602060405180830381600087803b15801561065457600080fd5b505af1158015610668573d6000803e3d6000fd5b505050506040513d601f19601f8201168201806040525081019061068c919061092a565b506006546001600160a01b03166340c10f19336106ab8561271061095e565b6040517fffffffff0000000000000000000000000000000000000000000000000000000060e085901b1681526001600160a01b0390921660048301526024820152604401600060405180830381600087803b15801561070957600080fd5b505af115801561071d573d6000803e3d6000fd5b50506007546040517f40c10f19000000000000000000000000000000000000000000000000000000008152336004820152602481018590526001600160a01b0390911692506340c10f199150604401600060405180830381600087803b15801561078657600080fd5b505af115801561079a573d6000803e3d6000fd5b505050505050565b6000546001600160a01b031633146107fc5760405162461bcd60e51b815260206004820181905260248201527f4f776e61626c653a2063616c6c6572206973206e6f7420746865206f776e657260448201526064016102fa565b6001600160a01b0381166108785760405162461bcd60e51b815260206004820152602660248201527f4f776e61626c653a206e6577206f776e657220697320746865207a65726f206160448201527f646472657373000000000000000000000000000000000000000000000000000060648201526084016102fa565b600080546040516001600160a01b03808516939216917f8be0079c531659141344cd1fd0a4f28419497f9722a3daafe3b4186f6b6457e091a36000805473ffffffffffffffffffffffffffffffffffffffff19166001600160a01b0392909216919091179055565b6000602082840312156108f1578081fd5b81356001600160a01b0381168114610907578182fd5b9392505050565b60006020828403121561091f578081fd5b8135610907816109a2565b60006020828403121561093b578081fd5b8151610907816109a2565b600060208284031215610957578081fd5b5051919050565b600081600019048311821515161561099d577f4e487b710000000000000000000000000000000000000000000000000000000081526011600452602481fd5b500290565b80151581146109b057600080fd5b5056fea2646970667358221220b3a6b262115864b0ed7e99722fadef2ac6f9143d1e55b53a6e7b0084a04cde5d64736f6c63430008020033",
  "linkReferences": {},
  "deployedLinkReferences": {}
}