{
  "_format": "hh-sol-artifact-1",
  "contractName": "StrainzToken",
  "sourceName": "contracts/StrainzTokens/StrainzToken.sol",
  "abi": [
    {
      "inputs": [],
      "stateMutability": "nonpayable",
      "type": "constructor"
    },
    {
      "anonymous": false,
      "inputs": [
        {
          "indexed": true,
          "internalType": "address",
          "name": "owner",
          "type": "address"
        },
        {
          "indexed": true,
          "internalType": "address",
          "name": "spender",
          "type": "address"
        },
        {
          "indexed": false,
          "internalType": "uint256",
          "name": "value",
          "type": "uint256"
        }
      ],
      "name": "Approval",
      "type": "event"
    },
    {
      "anonymous": false,
      "inputs": [
        {
          "indexed": true,
          "internalType": "address",
          "name": "previousOwner",
          "type": "address"
        },
        {
          "indexed": true,
          "internalType": "address",
          "name": "newOwner",
          "type": "address"
        }
      ],
      "name": "OwnershipTransferred",
      "type": "event"
    },
    {
      "anonymous": false,
      "inputs": [
        {
          "indexed": true,
          "internalType": "address",
          "name": "from",
          "type": "address"
        },
        {
          "indexed": true,
          "internalType": "address",
          "name": "to",
          "type": "address"
        },
        {
          "indexed": false,
          "internalType": "uint256",
          "name": "value",
          "type": "uint256"
        }
      ],
      "name": "Transfer",
      "type": "event"
    },
    {
      "inputs": [
        {
          "internalType": "address",
          "name": "owner",
          "type": "address"
        },
        {
          "internalType": "address",
          "name": "spender",
          "type": "address"
        }
      ],
      "name": "allowance",
      "outputs": [
        {
          "internalType": "uint256",
          "name": "",
          "type": "uint256"
        }
      ],
      "stateMutability": "view",
      "type": "function"
    },
    {
      "inputs": [
        {
          "internalType": "uint256",
          "name": "",
          "type": "uint256"
        }
      ],
      "name": "allowed",
      "outputs": [
        {
          "internalType": "address",
          "name": "",
          "type": "address"
        }
      ],
      "stateMutability": "view",
      "type": "function"
    },
    {
      "inputs": [
        {
          "internalType": "address",
          "name": "spender",
          "type": "address"
        },
        {
          "internalType": "uint256",
          "name": "amount",
          "type": "uint256"
        }
      ],
      "name": "approve",
      "outputs": [
        {
          "internalType": "bool",
          "name": "",
          "type": "bool"
        }
      ],
      "stateMutability": "nonpayable",
      "type": "function"
    },
    {
      "inputs": [
        {
          "internalType": "address",
          "name": "account",
          "type": "address"
        }
      ],
      "name": "balanceOf",
      "outputs": [
        {
          "internalType": "uint256",
          "name": "",
          "type": "uint256"
        }
      ],
      "stateMutability": "view",
      "type": "function"
    },
    {
      "inputs": [
        {
          "internalType": "uint256",
          "name": "amount",
          "type": "uint256"
        }
      ],
      "name": "burn",
      "outputs": [],
      "stateMutability": "nonpayable",
      "type": "function"
    },
    {
      "inputs": [
        {
          "internalType": "address",
          "name": "from",
          "type": "address"
        },
        {
          "internalType": "uint256",
          "name": "amount",
          "type": "uint256"
        }
      ],
      "name": "burnFrom",
      "outputs": [],
      "stateMutability": "nonpayable",
      "type": "function"
    },
    {
      "inputs": [],
      "name": "decimals",
      "outputs": [
        {
          "internalType": "uint8",
          "name": "",
          "type": "uint8"
        }
      ],
      "stateMutability": "pure",
      "type": "function"
    },
    {
      "inputs": [
        {
          "internalType": "address",
          "name": "spender",
          "type": "address"
        },
        {
          "internalType": "uint256",
          "name": "subtractedValue",
          "type": "uint256"
        }
      ],
      "name": "decreaseAllowance",
      "outputs": [
        {
          "internalType": "bool",
          "name": "",
          "type": "bool"
        }
      ],
      "stateMutability": "nonpayable",
      "type": "function"
    },
    {
      "inputs": [
        {
          "internalType": "address",
          "name": "spender",
          "type": "address"
        },
        {
          "internalType": "uint256",
          "name": "addedValue",
          "type": "uint256"
        }
      ],
      "name": "increaseAllowance",
      "outputs": [
        {
          "internalType": "bool",
          "name": "",
          "type": "bool"
        }
      ],
      "stateMutability": "nonpayable",
      "type": "function"
    },
    {
      "inputs": [
        {
          "internalType": "address",
          "name": "receiver",
          "type": "address"
        },
        {
          "internalType": "uint256",
          "name": "amount",
          "type": "uint256"
        }
      ],
      "name": "mint",
      "outputs": [],
      "stateMutability": "nonpayable",
      "type": "function"
    },
    {
      "inputs": [],
      "name": "name",
      "outputs": [
        {
          "internalType": "string",
          "name": "",
          "type": "string"
        }
      ],
      "stateMutability": "view",
      "type": "function"
    },
    {
      "inputs": [],
      "name": "owner",
      "outputs": [
        {
          "internalType": "address",
          "name": "",
          "type": "address"
        }
      ],
      "stateMutability": "view",
      "type": "function"
    },
    {
      "inputs": [],
      "name": "renounceOwnership",
      "outputs": [],
      "stateMutability": "nonpayable",
      "type": "function"
    },
    {
      "inputs": [
        {
          "internalType": "address[]",
          "name": "newAllowed",
          "type": "address[]"
        }
      ],
      "name": "setAllowed",
      "outputs": [],
      "stateMutability": "nonpayable",
      "type": "function"
    },
    {
      "inputs": [],
      "name": "symbol",
      "outputs": [
        {
          "internalType": "string",
          "name": "",
          "type": "string"
        }
      ],
      "stateMutability": "view",
      "type": "function"
    },
    {
      "inputs": [],
      "name": "totalSupply",
      "outputs": [
        {
          "internalType": "uint256",
          "name": "",
          "type": "uint256"
        }
      ],
      "stateMutability": "view",
      "type": "function"
    },
    {
      "inputs": [
        {
          "internalType": "address",
          "name": "recipient",
          "type": "address"
        },
        {
          "internalType": "uint256",
          "name": "amount",
          "type": "uint256"
        }
      ],
      "name": "transfer",
      "outputs": [
        {
          "internalType": "bool",
          "name": "",
          "type": "bool"
        }
      ],
      "stateMutability": "nonpayable",
      "type": "function"
    },
    {
      "inputs": [
        {
          "internalType": "address",
          "name": "sender",
          "type": "address"
        },
        {
          "internalType": "address",
          "name": "recipient",
          "type": "address"
        },
        {
          "internalType": "uint256",
          "name": "amount",
          "type": "uint256"
        }
      ],
      "name": "transferFrom",
      "outputs": [
        {
          "internalType": "bool",
          "name": "",
          "type": "bool"
        }
      ],
      "stateMutability": "nonpayable",
      "type": "function"
    },
    {
      "inputs": [
        {
          "internalType": "address",
          "name": "newOwner",
          "type": "address"
        }
      ],
      "name": "transferOwnership",
      "outputs": [],
      "stateMutability": "nonpayable",
      "type": "function"
    }
  ],
  "bytecode": "0x60806040523480156200001157600080fd5b506040518060400160405280600781526020016629ba3930b4b73d60c91b8152506040518060400160405280600781526020016629aa2920a4a72d60c91b81525081600390805190602001906200006a929190620000ed565b50805162000080906004906020840190620000ed565b505050600062000095620000e960201b60201c565b600580546001600160a01b0319166001600160a01b038316908117909155604051919250906000907f8be0079c531659141344cd1fd0a4f28419497f9722a3daafe3b4186f6b6457e0908290a350620001d0565b3390565b828054620000fb9062000193565b90600052602060002090601f0160209004810192826200011f57600085556200016a565b82601f106200013a57805160ff19168380011785556200016a565b828001600101855582156200016a579182015b828111156200016a5782518255916020019190600101906200014d565b50620001789291506200017c565b5090565b5b808211156200017857600081556001016200017d565b600281046001821680620001a857607f821691505b60208210811415620001ca57634e487b7160e01b600052602260045260246000fd5b50919050565b61120c80620001e06000396000f3fe608060405234801561001057600080fd5b50600436106101515760003560e01c806370a08231116100cd578063a457c2d711610081578063dd62ed3e11610066578063dd62ed3e1461029e578063e5aa7c2e146102d7578063f2fde38b146102ea57610151565b8063a457c2d714610278578063a9059cbb1461028b57610151565b806379cc6790116100b257806379cc67901461024c5780638da5cb5b1461025f57806395d89b411461027057610151565b806370a0823114610231578063715018a61461024457610151565b806323b872dd11610124578063395093511161010957806339509351146101f657806340c10f191461020957806342966c681461021e57610151565b806323b872dd146101d4578063313ce567146101e757610151565b806306fdde0314610156578063095ea7b31461017457806318160ddd14610197578063214296e8146101a9575b600080fd5b61015e6102fd565b60405161016b91906110e8565b60405180910390f35b610187610182366004611038565b61038f565b604051901515815260200161016b565b6002545b60405190815260200161016b565b6101bc6101b73660046110d0565b6103a5565b6040516001600160a01b03909116815260200161016b565b6101876101e2366004610ffd565b6103cf565b6040516004815260200161016b565b610187610204366004611038565b61049a565b61021c610217366004611038565b6104d1565b005b61021c61022c3660046110d0565b61055a565b61019b61023f366004610faa565b610567565b61021c610586565b61021c61025a366004611038565b610637565b6005546001600160a01b03166101bc565b61015e6106bb565b610187610286366004611038565b6106ca565b610187610299366004611038565b61077d565b61019b6102ac366004610fcb565b6001600160a01b03918216600090815260016020908152604080832093909416825291909152205490565b61021c6102e5366004611061565b61078a565b61021c6102f8366004610faa565b6107f0565b60606003805461030c9061116a565b80601f01602080910402602001604051908101604052809291908181526020018280546103389061116a565b80156103855780601f1061035a57610100808354040283529160200191610385565b820191906000526020600020905b81548152906001019060200180831161036857829003601f168201915b5050505050905090565b600061039c33848461092f565b50600192915050565b600681815481106103b557600080fd5b6000918252602090912001546001600160a01b0316905081565b60006103dc848484610a88565b6001600160a01b03841660009081526001602090815260408083203384529091529020548281101561047b5760405162461bcd60e51b815260206004820152602860248201527f45524332303a207472616e7366657220616d6f756e742065786365656473206160448201527f6c6c6f77616e636500000000000000000000000000000000000000000000000060648201526084015b60405180910390fd5b61048f853361048a8685611153565b61092f565b506001949350505050565b3360008181526001602090815260408083206001600160a01b0387168452909152812054909161039c91859061048a90869061113b565b6000805b60065481101561054057336001600160a01b03166006828154811061050a57634e487b7160e01b600052603260045260246000fd5b6000918252602090912001546001600160a01b0316141561052e5760019150610540565b80610538816111a5565b9150506104d5565b508061054b57600080fd5b6105558383610ca9565b505050565b6105643382610d88565b50565b6001600160a01b0381166000908152602081905260409020545b919050565b6005546001600160a01b031633146105e05760405162461bcd60e51b815260206004820181905260248201527f4f776e61626c653a2063616c6c6572206973206e6f7420746865206f776e65726044820152606401610472565b6005546040516000916001600160a01b0316907f8be0079c531659141344cd1fd0a4f28419497f9722a3daafe3b4186f6b6457e0908390a36005805473ffffffffffffffffffffffffffffffffffffffff19169055565b6000805b6006548110156106a657336001600160a01b03166006828154811061067057634e487b7160e01b600052603260045260246000fd5b6000918252602090912001546001600160a01b0316141561069457600191506106a6565b8061069e816111a5565b91505061063b565b50806106b157600080fd5b6105558383610d88565b60606004805461030c9061116a565b3360009081526001602090815260408083206001600160a01b0386168452909152812054828110156107645760405162461bcd60e51b815260206004820152602560248201527f45524332303a2064656372656173656420616c6c6f77616e63652062656c6f7760448201527f207a65726f0000000000000000000000000000000000000000000000000000006064820152608401610472565b610773338561048a8685611153565b5060019392505050565b600061039c338484610a88565b6005546001600160a01b031633146107e45760405162461bcd60e51b815260206004820181905260248201527f4f776e61626c653a2063616c6c6572206973206e6f7420746865206f776e65726044820152606401610472565b61055560068383610f0e565b6005546001600160a01b0316331461084a5760405162461bcd60e51b815260206004820181905260248201527f4f776e61626c653a2063616c6c6572206973206e6f7420746865206f776e65726044820152606401610472565b6001600160a01b0381166108c65760405162461bcd60e51b815260206004820152602660248201527f4f776e61626c653a206e6577206f776e657220697320746865207a65726f206160448201527f64647265737300000000000000000000000000000000000000000000000000006064820152608401610472565b6005546040516001600160a01b038084169216907f8be0079c531659141344cd1fd0a4f28419497f9722a3daafe3b4186f6b6457e090600090a36005805473ffffffffffffffffffffffffffffffffffffffff19166001600160a01b0392909216919091179055565b6001600160a01b0383166109aa5760405162461bcd60e51b8152602060048201526024808201527f45524332303a20617070726f76652066726f6d20746865207a65726f2061646460448201527f72657373000000000000000000000000000000000000000000000000000000006064820152608401610472565b6001600160a01b038216610a265760405162461bcd60e51b815260206004820152602260248201527f45524332303a20617070726f766520746f20746865207a65726f20616464726560448201527f73730000000000000000000000000000000000000000000000000000000000006064820152608401610472565b6001600160a01b0383811660008181526001602090815260408083209487168084529482529182902085905590518481527f8c5be1e5ebec7d5bd14f71427d1e84f3dd0314c0f7b2291e5b200ac8c7c3b92591015b60405180910390a3505050565b6001600160a01b038316610b045760405162461bcd60e51b815260206004820152602560248201527f45524332303a207472616e736665722066726f6d20746865207a65726f20616460448201527f64726573730000000000000000000000000000000000000000000000000000006064820152608401610472565b6001600160a01b038216610b805760405162461bcd60e51b815260206004820152602360248201527f45524332303a207472616e7366657220746f20746865207a65726f206164647260448201527f65737300000000000000000000000000000000000000000000000000000000006064820152608401610472565b6001600160a01b03831660009081526020819052604090205481811015610c0f5760405162461bcd60e51b815260206004820152602660248201527f45524332303a207472616e7366657220616d6f756e742065786365656473206260448201527f616c616e636500000000000000000000000000000000000000000000000000006064820152608401610472565b610c198282611153565b6001600160a01b038086166000908152602081905260408082209390935590851681529081208054849290610c4f90849061113b565b92505081905550826001600160a01b0316846001600160a01b03167fddf252ad1be2c89b69c2b068fc378daa952ba7f163c4a11628f55a4df523b3ef84604051610c9b91815260200190565b60405180910390a350505050565b6001600160a01b038216610cff5760405162461bcd60e51b815260206004820152601f60248201527f45524332303a206d696e7420746f20746865207a65726f2061646472657373006044820152606401610472565b8060026000828254610d11919061113b565b90915550506001600160a01b03821660009081526020819052604081208054839290610d3e90849061113b565b90915550506040518181526001600160a01b038316906000907fddf252ad1be2c89b69c2b068fc378daa952ba7f163c4a11628f55a4df523b3ef9060200160405180910390a35050565b6001600160a01b038216610e045760405162461bcd60e51b815260206004820152602160248201527f45524332303a206275726e2066726f6d20746865207a65726f2061646472657360448201527f73000000000000000000000000000000000000000000000000000000000000006064820152608401610472565b6001600160a01b03821660009081526020819052604090205481811015610e935760405162461bcd60e51b815260206004820152602260248201527f45524332303a206275726e20616d6f756e7420657863656564732062616c616e60448201527f63650000000000000000000000000000000000000000000000000000000000006064820152608401610472565b610e9d8282611153565b6001600160a01b03841660009081526020819052604081209190915560028054849290610ecb908490611153565b90915550506040518281526000906001600160a01b038516907fddf252ad1be2c89b69c2b068fc378daa952ba7f163c4a11628f55a4df523b3ef90602001610a7b565b828054828255906000526020600020908101928215610f6e579160200282015b82811115610f6e57815473ffffffffffffffffffffffffffffffffffffffff19166001600160a01b03843516178255602090920191600190910190610f2e565b50610f7a929150610f7e565b5090565b5b80821115610f7a5760008155600101610f7f565b80356001600160a01b038116811461058157600080fd5b600060208284031215610fbb578081fd5b610fc482610f93565b9392505050565b60008060408385031215610fdd578081fd5b610fe683610f93565b9150610ff460208401610f93565b90509250929050565b600080600060608486031215611011578081fd5b61101a84610f93565b925061102860208501610f93565b9150604084013590509250925092565b6000806040838503121561104a578182fd5b61105383610f93565b946020939093013593505050565b60008060208385031215611073578182fd5b823567ffffffffffffffff8082111561108a578384fd5b818501915085601f83011261109d578384fd5b8135818111156110ab578485fd5b86602080830285010111156110be578485fd5b60209290920196919550909350505050565b6000602082840312156110e1578081fd5b5035919050565b6000602080835283518082850152825b81811015611114578581018301518582016040015282016110f8565b818111156111255783604083870101525b50601f01601f1916929092016040019392505050565b6000821982111561114e5761114e6111c0565b500190565b600082821015611165576111656111c0565b500390565b60028104600182168061117e57607f821691505b6020821081141561119f57634e487b7160e01b600052602260045260246000fd5b50919050565b60006000198214156111b9576111b96111c0565b5060010190565b634e487b7160e01b600052601160045260246000fdfea264697066735822122041dda91d32a20eefbaf22f04c21fd91b3ff29c3936f223b403712b57b4cf875864736f6c63430008020033",
  "linkReferences": {},
  "deployedLinkReferences": {}
}