{
  "_format": "hh-sol-artifact-1",
  "contractName": "SeedzToken",
  "sourceName": "contracts/StrainzTokens/SeedzToken.sol",
  "abi": [
    {
      "inputs": [],
      "stateMutability": "nonpayable",
      "type": "constructor"
    },
    {
      "anonymous": false,
      "inputs": [
        {
          "indexed": true,
          "internalType": "address",
          "name": "owner",
          "type": "address"
        },
        {
          "indexed": true,
          "internalType": "address",
          "name": "spender",
          "type": "address"
        },
        {
          "indexed": false,
          "internalType": "uint256",
          "name": "value",
          "type": "uint256"
        }
      ],
      "name": "Approval",
      "type": "event"
    },
    {
      "anonymous": false,
      "inputs": [
        {
          "indexed": true,
          "internalType": "address",
          "name": "user",
          "type": "address"
        },
        {
          "indexed": true,
          "internalType": "uint256",
          "name": "pid",
          "type": "uint256"
        },
        {
          "indexed": false,
          "internalType": "uint256",
          "name": "amount",
          "type": "uint256"
        }
      ],
      "name": "Deposit",
      "type": "event"
    },
    {
      "anonymous": false,
      "inputs": [
        {
          "indexed": true,
          "internalType": "address",
          "name": "user",
          "type": "address"
        },
        {
          "indexed": true,
          "internalType": "uint256",
          "name": "pid",
          "type": "uint256"
        },
        {
          "indexed": false,
          "internalType": "uint256",
          "name": "amount",
          "type": "uint256"
        }
      ],
      "name": "EmergencyWithdraw",
      "type": "event"
    },
    {
      "anonymous": false,
      "inputs": [
        {
          "indexed": false,
          "internalType": "address",
          "name": "buyer",
          "type": "address"
        },
        {
          "indexed": false,
          "internalType": "uint256",
          "name": "plantId",
          "type": "uint256"
        }
      ],
      "name": "FertilizerBought",
      "type": "event"
    },
    {
      "anonymous": false,
      "inputs": [
        {
          "indexed": true,
          "internalType": "address",
          "name": "previousOwner",
          "type": "address"
        },
        {
          "indexed": true,
          "internalType": "address",
          "name": "newOwner",
          "type": "address"
        }
      ],
      "name": "OwnershipTransferred",
      "type": "event"
    },
    {
      "anonymous": false,
      "inputs": [
        {
          "indexed": true,
          "internalType": "address",
          "name": "from",
          "type": "address"
        },
        {
          "indexed": true,
          "internalType": "address",
          "name": "to",
          "type": "address"
        },
        {
          "indexed": false,
          "internalType": "uint256",
          "name": "value",
          "type": "uint256"
        }
      ],
      "name": "Transfer",
      "type": "event"
    },
    {
      "anonymous": false,
      "inputs": [
        {
          "indexed": true,
          "internalType": "address",
          "name": "user",
          "type": "address"
        },
        {
          "indexed": true,
          "internalType": "uint256",
          "name": "pid",
          "type": "uint256"
        },
        {
          "indexed": false,
          "internalType": "uint256",
          "name": "amount",
          "type": "uint256"
        }
      ],
      "name": "Withdraw",
      "type": "event"
    },
    {
      "inputs": [
        {
          "internalType": "uint256",
          "name": "_allocPoint",
          "type": "uint256"
        },
        {
          "internalType": "contract IERC20",
          "name": "_lpToken",
          "type": "address"
        },
        {
          "internalType": "bool",
          "name": "_withUpdate",
          "type": "bool"
        }
      ],
      "name": "add",
      "outputs": [],
      "stateMutability": "nonpayable",
      "type": "function"
    },
    {
      "inputs": [
        {
          "internalType": "address",
          "name": "owner",
          "type": "address"
        },
        {
          "internalType": "address",
          "name": "spender",
          "type": "address"
        }
      ],
      "name": "allowance",
      "outputs": [
        {
          "internalType": "uint256",
          "name": "",
          "type": "uint256"
        }
      ],
      "stateMutability": "view",
      "type": "function"
    },
    {
      "inputs": [
        {
          "internalType": "uint256",
          "name": "",
          "type": "uint256"
        }
      ],
      "name": "allowed",
      "outputs": [
        {
          "internalType": "address",
          "name": "",
          "type": "address"
        }
      ],
      "stateMutability": "view",
      "type": "function"
    },
    {
      "inputs": [
        {
          "internalType": "address",
          "name": "spender",
          "type": "address"
        },
        {
          "internalType": "uint256",
          "name": "amount",
          "type": "uint256"
        }
      ],
      "name": "approve",
      "outputs": [
        {
          "internalType": "bool",
          "name": "",
          "type": "bool"
        }
      ],
      "stateMutability": "nonpayable",
      "type": "function"
    },
    {
      "inputs": [
        {
          "internalType": "address",
          "name": "account",
          "type": "address"
        }
      ],
      "name": "balanceOf",
      "outputs": [
        {
          "internalType": "uint256",
          "name": "",
          "type": "uint256"
        }
      ],
      "stateMutability": "view",
      "type": "function"
    },
    {
      "inputs": [
        {
          "internalType": "uint256",
          "name": "amount",
          "type": "uint256"
        }
      ],
      "name": "burn",
      "outputs": [],
      "stateMutability": "nonpayable",
      "type": "function"
    },
    {
      "inputs": [
        {
          "internalType": "address",
          "name": "from",
          "type": "address"
        },
        {
          "internalType": "uint256",
          "name": "amount",
          "type": "uint256"
        }
      ],
      "name": "burnFrom",
      "outputs": [],
      "stateMutability": "nonpayable",
      "type": "function"
    },
    {
      "inputs": [
        {
          "internalType": "uint256",
          "name": "plantId",
          "type": "uint256"
        }
      ],
      "name": "buyGrowFertilizer",
      "outputs": [],
      "stateMutability": "nonpayable",
      "type": "function"
    },
    {
      "inputs": [],
      "name": "decimals",
      "outputs": [
        {
          "internalType": "uint8",
          "name": "",
          "type": "uint8"
        }
      ],
      "stateMutability": "pure",
      "type": "function"
    },
    {
      "inputs": [
        {
          "internalType": "address",
          "name": "spender",
          "type": "address"
        },
        {
          "internalType": "uint256",
          "name": "subtractedValue",
          "type": "uint256"
        }
      ],
      "name": "decreaseAllowance",
      "outputs": [
        {
          "internalType": "bool",
          "name": "",
          "type": "bool"
        }
      ],
      "stateMutability": "nonpayable",
      "type": "function"
    },
    {
      "inputs": [
        {
          "internalType": "uint256",
          "name": "_pid",
          "type": "uint256"
        },
        {
          "internalType": "uint256",
          "name": "_amount",
          "type": "uint256"
        }
      ],
      "name": "deposit",
      "outputs": [],
      "stateMutability": "nonpayable",
      "type": "function"
    },
    {
      "inputs": [
        {
          "internalType": "uint256",
          "name": "_pid",
          "type": "uint256"
        }
      ],
      "name": "emergencyWithdraw",
      "outputs": [],
      "stateMutability": "nonpayable",
      "type": "function"
    },
    {
      "inputs": [
        {
          "internalType": "uint256",
          "name": "strainId",
          "type": "uint256"
        },
        {
          "internalType": "uint256",
          "name": "lastHarvest",
          "type": "uint256"
        }
      ],
      "name": "getHarvestableFertilizerAmount",
      "outputs": [
        {
          "internalType": "uint256",
          "name": "",
          "type": "uint256"
        }
      ],
      "stateMutability": "view",
      "type": "function"
    },
    {
      "inputs": [],
      "name": "growFertilizerBoost",
      "outputs": [
        {
          "internalType": "uint256",
          "name": "",
          "type": "uint256"
        }
      ],
      "stateMutability": "view",
      "type": "function"
    },
    {
      "inputs": [],
      "name": "growFertilizerCost",
      "outputs": [
        {
          "internalType": "uint256",
          "name": "",
          "type": "uint256"
        }
      ],
      "stateMutability": "view",
      "type": "function"
    },
    {
      "inputs": [
        {
          "internalType": "address",
          "name": "spender",
          "type": "address"
        },
        {
          "internalType": "uint256",
          "name": "addedValue",
          "type": "uint256"
        }
      ],
      "name": "increaseAllowance",
      "outputs": [
        {
          "internalType": "bool",
          "name": "",
          "type": "bool"
        }
      ],
      "stateMutability": "nonpayable",
      "type": "function"
    },
    {
      "inputs": [
        {
          "internalType": "uint256",
          "name": "",
          "type": "uint256"
        }
      ],
      "name": "lastTimeGrowFertilizerUsedOnPlant",
      "outputs": [
        {
          "internalType": "uint256",
          "name": "",
          "type": "uint256"
        }
      ],
      "stateMutability": "view",
      "type": "function"
    },
    {
      "inputs": [],
      "name": "massUpdatePools",
      "outputs": [],
      "stateMutability": "nonpayable",
      "type": "function"
    },
    {
      "inputs": [
        {
          "internalType": "address",
          "name": "receiver",
          "type": "address"
        },
        {
          "internalType": "uint256",
          "name": "amount",
          "type": "uint256"
        }
      ],
      "name": "mint",
      "outputs": [],
      "stateMutability": "nonpayable",
      "type": "function"
    },
    {
      "inputs": [],
      "name": "name",
      "outputs": [
        {
          "internalType": "string",
          "name": "",
          "type": "string"
        }
      ],
      "stateMutability": "view",
      "type": "function"
    },
    {
      "inputs": [],
      "name": "owner",
      "outputs": [
        {
          "internalType": "address",
          "name": "",
          "type": "address"
        }
      ],
      "stateMutability": "view",
      "type": "function"
    },
    {
      "inputs": [
        {
          "internalType": "uint256",
          "name": "_pid",
          "type": "uint256"
        },
        {
          "internalType": "address",
          "name": "_user",
          "type": "address"
        }
      ],
      "name": "pendingSeedz",
      "outputs": [
        {
          "internalType": "uint256",
          "name": "",
          "type": "uint256"
        }
      ],
      "stateMutability": "view",
      "type": "function"
    },
    {
      "inputs": [
        {
          "internalType": "uint256",
          "name": "",
          "type": "uint256"
        }
      ],
      "name": "poolInfo",
      "outputs": [
        {
          "internalType": "contract IERC20",
          "name": "lpToken",
          "type": "address"
        },
        {
          "internalType": "uint256",
          "name": "allocPoint",
          "type": "uint256"
        },
        {
          "internalType": "uint256",
          "name": "lastRewardBlock",
          "type": "uint256"
        },
        {
          "internalType": "uint256",
          "name": "accSeedzPerShare",
          "type": "uint256"
        }
      ],
      "stateMutability": "view",
      "type": "function"
    },
    {
      "inputs": [],
      "name": "poolLength",
      "outputs": [
        {
          "internalType": "uint256",
          "name": "",
          "type": "uint256"
        }
      ],
      "stateMutability": "view",
      "type": "function"
    },
    {
      "inputs": [],
      "name": "renounceOwnership",
      "outputs": [],
      "stateMutability": "nonpayable",
      "type": "function"
    },
    {
      "inputs": [],
      "name": "seedzPerBlock",
      "outputs": [
        {
          "internalType": "uint256",
          "name": "",
          "type": "uint256"
        }
      ],
      "stateMutability": "view",
      "type": "function"
    },
    {
      "inputs": [
        {
          "internalType": "uint256",
          "name": "_pid",
          "type": "uint256"
        },
        {
          "internalType": "uint256",
          "name": "_allocPoint",
          "type": "uint256"
        },
        {
          "internalType": "bool",
          "name": "_withUpdate",
          "type": "bool"
        }
      ],
      "name": "set",
      "outputs": [],
      "stateMutability": "nonpayable",
      "type": "function"
    },
    {
      "inputs": [
        {
          "internalType": "address[]",
          "name": "newAllowed",
          "type": "address[]"
        }
      ],
      "name": "setAllowed",
      "outputs": [],
      "stateMutability": "nonpayable",
      "type": "function"
    },
    {
      "inputs": [
        {
          "internalType": "uint256",
          "name": "newCost",
          "type": "uint256"
        },
        {
          "internalType": "uint256",
          "name": "newBoost",
          "type": "uint256"
        }
      ],
      "name": "setGrowFertilizerDetails",
      "outputs": [],
      "stateMutability": "nonpayable",
      "type": "function"
    },
    {
      "inputs": [
        {
          "internalType": "uint256",
          "name": "_seedzPerBlock",
          "type": "uint256"
        }
      ],
      "name": "setSeedzPerBlock",
      "outputs": [],
      "stateMutability": "nonpayable",
      "type": "function"
    },
    {
      "inputs": [],
      "name": "symbol",
      "outputs": [
        {
          "internalType": "string",
          "name": "",
          "type": "string"
        }
      ],
      "stateMutability": "view",
      "type": "function"
    },
    {
      "inputs": [],
      "name": "totalAllocPoint",
      "outputs": [
        {
          "internalType": "uint256",
          "name": "",
          "type": "uint256"
        }
      ],
      "stateMutability": "view",
      "type": "function"
    },
    {
      "inputs": [],
      "name": "totalSupply",
      "outputs": [
        {
          "internalType": "uint256",
          "name": "",
          "type": "uint256"
        }
      ],
      "stateMutability": "view",
      "type": "function"
    },
    {
      "inputs": [
        {
          "internalType": "address",
          "name": "recipient",
          "type": "address"
        },
        {
          "internalType": "uint256",
          "name": "amount",
          "type": "uint256"
        }
      ],
      "name": "transfer",
      "outputs": [
        {
          "internalType": "bool",
          "name": "",
          "type": "bool"
        }
      ],
      "stateMutability": "nonpayable",
      "type": "function"
    },
    {
      "inputs": [
        {
          "internalType": "address",
          "name": "sender",
          "type": "address"
        },
        {
          "internalType": "address",
          "name": "recipient",
          "type": "address"
        },
        {
          "internalType": "uint256",
          "name": "amount",
          "type": "uint256"
        }
      ],
      "name": "transferFrom",
      "outputs": [
        {
          "internalType": "bool",
          "name": "",
          "type": "bool"
        }
      ],
      "stateMutability": "nonpayable",
      "type": "function"
    },
    {
      "inputs": [
        {
          "internalType": "address",
          "name": "newOwner",
          "type": "address"
        }
      ],
      "name": "transferOwnership",
      "outputs": [],
      "stateMutability": "nonpayable",
      "type": "function"
    },
    {
      "inputs": [
        {
          "internalType": "uint256",
          "name": "_pid",
          "type": "uint256"
        }
      ],
      "name": "updatePool",
      "outputs": [],
      "stateMutability": "nonpayable",
      "type": "function"
    },
    {
      "inputs": [
        {
          "internalType": "uint256",
          "name": "",
          "type": "uint256"
        },
        {
          "internalType": "address",
          "name": "",
          "type": "address"
        }
      ],
      "name": "userInfo",
      "outputs": [
        {
          "internalType": "uint256",
          "name": "amount",
          "type": "uint256"
        },
        {
          "internalType": "uint256",
          "name": "rewardDebt",
          "type": "uint256"
        }
      ],
      "stateMutability": "view",
      "type": "function"
    },
    {
      "inputs": [
        {
          "internalType": "uint256",
          "name": "_pid",
          "type": "uint256"
        },
        {
          "internalType": "uint256",
          "name": "_amount",
          "type": "uint256"
        }
      ],
      "name": "withdraw",
      "outputs": [],
      "stateMutability": "nonpayable",
      "type": "function"
    }
  ],
  "bytecode": "0x6080604052681b1ae4d6e2ef50000060085560646009556706f05b59d3b20000600a556000600d553480156200003457600080fd5b506040518060400160405280600581526020016429b2b2b23d60d91b8152506040518060400160405280600581526020016429a2a2a22d60d91b8152508160039080519060200190620000899291906200020a565b5080516200009f9060049060208401906200020a565b5050506000620000b46200011e60201b60201c565b600580546001600160a01b0319166001600160a01b038316908117909155604051919250906000907f8be0079c531659141344cd1fd0a4f28419497f9722a3daafe3b4186f6b6457e0908290a3506200011833691a784379d99db420000062000122565b62000312565b3390565b6001600160a01b0382166200017d5760405162461bcd60e51b815260206004820152601f60248201527f45524332303a206d696e7420746f20746865207a65726f206164647265737300604482015260640160405180910390fd5b8060026000828254620001919190620002b0565b90915550506001600160a01b03821660009081526020819052604081208054839290620001c0908490620002b0565b90915550506040518181526001600160a01b038316906000907fddf252ad1be2c89b69c2b068fc378daa952ba7f163c4a11628f55a4df523b3ef9060200160405180910390a35050565b8280546200021890620002d5565b90600052602060002090601f0160209004810192826200023c576000855562000287565b82601f106200025757805160ff191683800117855562000287565b8280016001018555821562000287579182015b82811115620002875782518255916020019190600101906200026a565b506200029592915062000299565b5090565b5b808211156200029557600081556001016200029a565b60008219821115620002d057634e487b7160e01b81526011600452602481fd5b500190565b600281046001821680620002ea57607f821691505b602082108114156200030c57634e487b7160e01b600052602260045260246000fd5b50919050565b6122ff80620003226000396000f3fe608060405234801561001057600080fd5b50600436106102ad5760003560e01c80635312ea8e1161017b57806395d89b41116100d8578063e2bbb1581161008c578063ea29240011610071578063ea292400146105f3578063f2fde38b146105fc578063f772459b1461060f576102ad565b8063e2bbb158146105cd578063e5aa7c2e146105e0576102ad565b8063a9059cbb116100bd578063a9059cbb1461056e578063dd62ed3e14610581578063df23e160146105ba576102ad565b806395d89b4114610553578063a457c2d71461055b576102ad565b8063715018a61161012f5780638da5cb5b116101145780638da5cb5b146104f2578063912db8141461050357806393f1a40b1461050c576102ad565b8063715018a6146104d757806379cc6790146104df576102ad565b806364482f791161016057806364482f791461048857806364bce6db1461049b57806370a08231146104ae576102ad565b80635312ea8e1461046d578063630b5ba114610480576102ad565b8063214296e8116102295780633dc1d792116101dd57806342966c68116101c257806342966c6814610434578063441a3e701461044757806351eb05a61461045a576102ad565b80633dc1d7921461040e57806340c10f1914610421576102ad565b8063251b57701161020e578063251b5770146103d9578063313ce567146103ec57806339509351146103fb576102ad565b8063214296e81461039b57806323b872dd146103c6576102ad565b80630d20c2661161028057806317caf6f11161026557806317caf6f11461037557806318160ddd1461037e5780631eaaa04514610386576102ad565b80630d20c266146103185780631526fe2714610338576102ad565b806302ca671d146102b257806306fdde03146102d8578063081e3eda146102ed578063095ea7b3146102f5575b600080fd5b6102c56102c036600461212b565b610618565b6040519081526020015b60405180910390f35b6102e061068d565b6040516102cf9190612179565b600b546102c5565b610308610303366004611fe0565b61071f565b60405190151581526020016102cf565b6102c5610326366004612096565b60076020526000908152604090205481565b61034b610346366004612096565b610735565b604080516001600160a01b03909516855260208501939093529183015260608201526080016102cf565b6102c5600d5481565b6002546102c5565b6103996103943660046120ea565b610779565b005b6103ae6103a9366004612096565b6108f8565b6040516001600160a01b0390911681526020016102cf565b6103086103d4366004611fa0565b610922565b6103996103e7366004612096565b6109e8565b604051601281526020016102cf565b610308610409366004611fe0565b610a88565b61039961041c366004612096565b610abf565b61039961042f366004611fe0565b610b26565b610399610442366004612096565b610baf565b61039961045536600461212b565b610bbc565b610399610468366004612096565b610da3565b61039961047b366004612096565b610f04565b610399611022565b61039961049636600461214c565b61104d565b6103996104a936600461212b565b611142565b6102c56104bc366004611f45565b6001600160a01b031660009081526020819052604090205490565b6103996111a7565b6103996104ed366004611fe0565b611258565b6005546001600160a01b03166103ae565b6102c5600a5481565b61053e61051a3660046120c6565b600c6020908152600092835260408084209091529082529020805460019091015482565b604080519283526020830191909152016102cf565b6102e06112dc565b610308610569366004611fe0565b6112eb565b61030861057c366004611fe0565b61139e565b6102c561058f366004611f68565b6001600160a01b03918216600090815260016020908152604080832093909416825291909152205490565b6102c56105c83660046120c6565b6113ab565b6103996105db36600461212b565b61153a565b6103996105ee36600461200b565b6116ee565b6102c560085481565b61039961060a366004611f45565b611754565b6102c560095481565b6000828152600760205260408120548190801561068357600061063b8286611893565b9050600061065561064f8362093a806121cc565b426118ab565b905062015180600954838361066a9190612223565b6106749190612204565b61067e91906121e4565b935050505b5090505b92915050565b60606003805461069c9061223a565b80601f01602080910402602001604051908101604052809291908181526020018280546106c89061223a565b80156107155780601f106106ea57610100808354040283529160200191610715565b820191906000526020600020905b8154815290600101906020018083116106f857829003601f168201915b5050505050905090565b600061072c3384846118bc565b50600192915050565b600b818154811061074557600080fd5b600091825260209091206004909102018054600182015460028301546003909301546001600160a01b039092169350919084565b6005546001600160a01b031633146107d85760405162461bcd60e51b815260206004820181905260248201527f4f776e61626c653a2063616c6c6572206973206e6f7420746865206f776e657260448201526064015b60405180910390fd5b80156107e6576107e6611022565b82600d60008282546107f891906121cc565b9091555050604080516080810182526001600160a01b0393841681526020810194855243918101918252600060608201818152600b8054600181018255925291517f0175b7a638427703f0dbe7bb9bbf987a2551717b34e79f33b5b1008d1fa01db96004909202918201805473ffffffffffffffffffffffffffffffffffffffff1916919096161790945593517f0175b7a638427703f0dbe7bb9bbf987a2551717b34e79f33b5b1008d1fa01dba840155517f0175b7a638427703f0dbe7bb9bbf987a2551717b34e79f33b5b1008d1fa01dbb8301555090517f0175b7a638427703f0dbe7bb9bbf987a2551717b34e79f33b5b1008d1fa01dbc90910155565b6006818154811061090857600080fd5b6000918252602090912001546001600160a01b0316905081565b600061092f848484611a15565b6001600160a01b0384166000908152600160209081526040808320338452909152902054828110156109c95760405162461bcd60e51b815260206004820152602860248201527f45524332303a207472616e7366657220616d6f756e742065786365656473206160448201527f6c6c6f77616e636500000000000000000000000000000000000000000000000060648201526084016107cf565b6109dd85336109d88685612223565b6118bc565b506001949350505050565b60085433600090815260208190526040902054811115610a0757600080fd5b6000828152600760205260409020544290610a259062093a806121cc565b10610a2f57600080fd5b610a393382611c28565b60008281526007602090815260409182902042905581513381529081018490527f4a57d801306de4358c54a2cb591d90ce72db18f2476014e9307f2144eb62928f910160405180910390a15050565b3360008181526001602090815260408083206001600160a01b0387168452909152812054909161072c9185906109d89086906121cc565b6005546001600160a01b03163314610b195760405162461bcd60e51b815260206004820181905260248201527f4f776e61626c653a2063616c6c6572206973206e6f7420746865206f776e657260448201526064016107cf565b610b21611022565b600a55565b6000805b600654811015610b9557336001600160a01b031660068281548110610b5f57634e487b7160e01b600052603260045260246000fd5b6000918252602090912001546001600160a01b03161415610b835760019150610b95565b80610b8d81612275565b915050610b2a565b5080610ba057600080fd5b610baa8383611dae565b505050565b610bb93382611c28565b50565b6000600b8381548110610bdf57634e487b7160e01b600052603260045260246000fd5b60009182526020808320868452600c825260408085203386529092529220805460049092029092019250831115610c585760405162461bcd60e51b815260206004820152601260248201527f77697468647261773a206e6f7420676f6f64000000000000000000000000000060448201526064016107cf565b610c6184610da3565b6000816001015464e8d4a5100084600301548460000154610c829190612204565b610c8c91906121e4565b610c969190612223565b9050610ca23382611e8d565b83826000016000828254610cb69190612223565b90915550506003830154825464e8d4a5100091610cd291612204565b610cdc91906121e4565b6001830155825460405163a9059cbb60e01b8152336004820152602481018690526001600160a01b039091169063a9059cbb90604401602060405180830381600087803b158015610d2c57600080fd5b505af1158015610d40573d6000803e3d6000fd5b505050506040513d601f19601f82011682018060405250810190610d64919061207a565b50604051848152859033907ff279e6a1f5e320cca91135676d9cb6e44ca8a08c0b88342bcdb1144f6511b5689060200160405180910390a35050505050565b6000600b8281548110610dc657634e487b7160e01b600052603260045260246000fd5b9060005260206000209060040201905080600201544311610de75750610bb9565b80546040516370a0823160e01b81523060048201526000916001600160a01b0316906370a082319060240160206040518083038186803b158015610e2a57600080fd5b505afa158015610e3e573d6000803e3d6000fd5b505050506040513d601f19601f82011682018060405250810190610e6291906120ae565b905080610e76575043600290910155610bb9565b6000826002015443610e889190612223565b90506000600d548460010154600a5484610ea29190612204565b610eac9190612204565b610eb691906121e4565b9050610ec23082611dae565b82610ed28264e8d4a51000612204565b610edc91906121e4565b846003016000828254610eef91906121cc565b90915550504360029094019390935550505050565b6000600b8281548110610f2757634e487b7160e01b600052603260045260246000fd5b60009182526020808320858452600c825260408085203380875293528085208054868255600182019690965560049485029092018054915163a9059cbb60e01b8152948501939093526024840185905291945092916001600160a01b039091169063a9059cbb90604401602060405180830381600087803b158015610fab57600080fd5b505af1158015610fbf573d6000803e3d6000fd5b505050506040513d601f19601f82011682018060405250810190610fe3919061207a565b50604051818152849033907fbb757047c2b5f3974fe26b7c10f732e7bce710b0952a71082702781e62ae0595906020015b60405180910390a350505050565b600b5460005b818110156110495761103981610da3565b61104281612275565b9050611028565b5050565b6005546001600160a01b031633146110a75760405162461bcd60e51b815260206004820181905260248201527f4f776e61626c653a2063616c6c6572206973206e6f7420746865206f776e657260448201526064016107cf565b80156110b5576110b5611022565b81600b84815481106110d757634e487b7160e01b600052603260045260246000fd5b906000526020600020906004020160010154600d546110f69190612223565b61110091906121cc565b600d8190555081600b848154811061112857634e487b7160e01b600052603260045260246000fd5b906000526020600020906004020160010181905550505050565b6005546001600160a01b0316331461119c5760405162461bcd60e51b815260206004820181905260248201527f4f776e61626c653a2063616c6c6572206973206e6f7420746865206f776e657260448201526064016107cf565b600891909155600955565b6005546001600160a01b031633146112015760405162461bcd60e51b815260206004820181905260248201527f4f776e61626c653a2063616c6c6572206973206e6f7420746865206f776e657260448201526064016107cf565b6005546040516000916001600160a01b0316907f8be0079c531659141344cd1fd0a4f28419497f9722a3daafe3b4186f6b6457e0908390a36005805473ffffffffffffffffffffffffffffffffffffffff19169055565b6000805b6006548110156112c757336001600160a01b03166006828154811061129157634e487b7160e01b600052603260045260246000fd5b6000918252602090912001546001600160a01b031614156112b557600191506112c7565b806112bf81612275565b91505061125c565b50806112d257600080fd5b610baa8383611c28565b60606004805461069c9061223a565b3360009081526001602090815260408083206001600160a01b0386168452909152812054828110156113855760405162461bcd60e51b815260206004820152602560248201527f45524332303a2064656372656173656420616c6c6f77616e63652062656c6f7760448201527f207a65726f00000000000000000000000000000000000000000000000000000060648201526084016107cf565b61139433856109d88685612223565b5060019392505050565b600061072c338484611a15565b600080600b84815481106113cf57634e487b7160e01b600052603260045260246000fd5b60009182526020808320878452600c825260408085206001600160a01b038981168752935280852060049485029092016003810154815492516370a0823160e01b8152309681019690965290965091949193919216906370a082319060240160206040518083038186803b15801561144657600080fd5b505afa15801561145a573d6000803e3d6000fd5b505050506040513d601f19601f8201168201806040525081019061147e91906120ae565b905083600201544311801561149257508015155b156115025760008460020154436114a99190612223565b90506000600d548660010154600a54846114c39190612204565b6114cd9190612204565b6114d791906121e4565b9050826114e98264e8d4a51000612204565b6114f391906121e4565b6114fd90856121cc565b935050505b6001830154835464e8d4a510009061151b908590612204565b61152591906121e4565b61152f9190612223565b979650505050505050565b6000600b838154811061155d57634e487b7160e01b600052603260045260246000fd5b60009182526020808320868452600c8252604080852033865290925292206004909102909101915061158e84610da3565b8054156115d8576000816001015464e8d4a51000846003015484600001546115b69190612204565b6115c091906121e4565b6115ca9190612223565b90506115d63382611e8d565b505b81546040517f23b872dd000000000000000000000000000000000000000000000000000000008152336004820152306024820152604481018590526001600160a01b03909116906323b872dd90606401602060405180830381600087803b15801561164257600080fd5b505af1158015611656573d6000803e3d6000fd5b505050506040513d601f19601f8201168201806040525081019061167a919061207a565b508281600001600082825461168f91906121cc565b90915550506003820154815464e8d4a51000916116ab91612204565b6116b591906121e4565b6001820155604051838152849033907f90890809c654f11d6e72a28fa60149770a0d11ec6c92319d6ceb2bb0a4ea1a1590602001611014565b6005546001600160a01b031633146117485760405162461bcd60e51b815260206004820181905260248201527f4f776e61626c653a2063616c6c6572206973206e6f7420746865206f776e657260448201526064016107cf565b610baa60068383611ec0565b6005546001600160a01b031633146117ae5760405162461bcd60e51b815260206004820181905260248201527f4f776e61626c653a2063616c6c6572206973206e6f7420746865206f776e657260448201526064016107cf565b6001600160a01b03811661182a5760405162461bcd60e51b815260206004820152602660248201527f4f776e61626c653a206e6577206f776e657220697320746865207a65726f206160448201527f646472657373000000000000000000000000000000000000000000000000000060648201526084016107cf565b6005546040516001600160a01b038084169216907f8be0079c531659141344cd1fd0a4f28419497f9722a3daafe3b4186f6b6457e090600090a36005805473ffffffffffffffffffffffffffffffffffffffff19166001600160a01b0392909216919091179055565b6000818311156118a4575081610687565b5080610687565b6000818310156118a4575081610687565b6001600160a01b0383166119375760405162461bcd60e51b8152602060048201526024808201527f45524332303a20617070726f76652066726f6d20746865207a65726f2061646460448201527f726573730000000000000000000000000000000000000000000000000000000060648201526084016107cf565b6001600160a01b0382166119b35760405162461bcd60e51b815260206004820152602260248201527f45524332303a20617070726f766520746f20746865207a65726f20616464726560448201527f737300000000000000000000000000000000000000000000000000000000000060648201526084016107cf565b6001600160a01b0383811660008181526001602090815260408083209487168084529482529182902085905590518481527f8c5be1e5ebec7d5bd14f71427d1e84f3dd0314c0f7b2291e5b200ac8c7c3b92591015b60405180910390a3505050565b6001600160a01b038316611a915760405162461bcd60e51b815260206004820152602560248201527f45524332303a207472616e736665722066726f6d20746865207a65726f20616460448201527f647265737300000000000000000000000000000000000000000000000000000060648201526084016107cf565b6001600160a01b038216611b0d5760405162461bcd60e51b815260206004820152602360248201527f45524332303a207472616e7366657220746f20746865207a65726f206164647260448201527f657373000000000000000000000000000000000000000000000000000000000060648201526084016107cf565b6001600160a01b03831660009081526020819052604090205481811015611b9c5760405162461bcd60e51b815260206004820152602660248201527f45524332303a207472616e7366657220616d6f756e742065786365656473206260448201527f616c616e6365000000000000000000000000000000000000000000000000000060648201526084016107cf565b611ba68282612223565b6001600160a01b038086166000908152602081905260408082209390935590851681529081208054849290611bdc9084906121cc565b92505081905550826001600160a01b0316846001600160a01b03167fddf252ad1be2c89b69c2b068fc378daa952ba7f163c4a11628f55a4df523b3ef8460405161101491815260200190565b6001600160a01b038216611ca45760405162461bcd60e51b815260206004820152602160248201527f45524332303a206275726e2066726f6d20746865207a65726f2061646472657360448201527f730000000000000000000000000000000000000000000000000000000000000060648201526084016107cf565b6001600160a01b03821660009081526020819052604090205481811015611d335760405162461bcd60e51b815260206004820152602260248201527f45524332303a206275726e20616d6f756e7420657863656564732062616c616e60448201527f636500000000000000000000000000000000000000000000000000000000000060648201526084016107cf565b611d3d8282612223565b6001600160a01b03841660009081526020819052604081209190915560028054849290611d6b908490612223565b90915550506040518281526000906001600160a01b038516907fddf252ad1be2c89b69c2b068fc378daa952ba7f163c4a11628f55a4df523b3ef90602001611a08565b6001600160a01b038216611e045760405162461bcd60e51b815260206004820152601f60248201527f45524332303a206d696e7420746f20746865207a65726f20616464726573730060448201526064016107cf565b8060026000828254611e1691906121cc565b90915550506001600160a01b03821660009081526020819052604081208054839290611e439084906121cc565b90915550506040518181526001600160a01b038316906000907fddf252ad1be2c89b69c2b068fc378daa952ba7f163c4a11628f55a4df523b3ef9060200160405180910390a35050565b3060009081526020819052604090205480821115611eb557611eb0308483611a15565b610baa565b610baa308484611a15565b828054828255906000526020600020908101928215611f20579160200282015b82811115611f2057815473ffffffffffffffffffffffffffffffffffffffff19166001600160a01b03843516178255602090920191600190910190611ee0565b50611f2c929150611f30565b5090565b5b80821115611f2c5760008155600101611f31565b600060208284031215611f56578081fd5b8135611f61816122a6565b9392505050565b60008060408385031215611f7a578081fd5b8235611f85816122a6565b91506020830135611f95816122a6565b809150509250929050565b600080600060608486031215611fb4578081fd5b8335611fbf816122a6565b92506020840135611fcf816122a6565b929592945050506040919091013590565b60008060408385031215611ff2578182fd5b8235611ffd816122a6565b946020939093013593505050565b6000806020838503121561201d578182fd5b823567ffffffffffffffff80821115612034578384fd5b818501915085601f830112612047578384fd5b813581811115612055578485fd5b8660208083028501011115612068578485fd5b60209290920196919550909350505050565b60006020828403121561208b578081fd5b8151611f61816122bb565b6000602082840312156120a7578081fd5b5035919050565b6000602082840312156120bf578081fd5b5051919050565b600080604083850312156120d8578182fd5b823591506020830135611f95816122a6565b6000806000606084860312156120fe578283fd5b833592506020840135612110816122a6565b91506040840135612120816122bb565b809150509250925092565b6000806040838503121561213d578182fd5b50508035926020909101359150565b600080600060608486031215612160578283fd5b83359250602084013591506040840135612120816122bb565b6000602080835283518082850152825b818110156121a557858101830151858201604001528201612189565b818111156121b65783604083870101525b50601f01601f1916929092016040019392505050565b600082198211156121df576121df612290565b500190565b6000826121ff57634e487b7160e01b81526012600452602481fd5b500490565b600081600019048311821515161561221e5761221e612290565b500290565b60008282101561223557612235612290565b500390565b60028104600182168061224e57607f821691505b6020821081141561226f57634e487b7160e01b600052602260045260246000fd5b50919050565b600060001982141561228957612289612290565b5060010190565b634e487b7160e01b600052601160045260246000fd5b6001600160a01b0381168114610bb957600080fd5b8015158114610bb957600080fdfea2646970667358221220b9c176a7724aa2713b1eaed9ea6eda401fe9dfa2fab2bcb714d09ac87cd5d7b664736f6c63430008020033",
  "linkReferences": {},
  "deployedLinkReferences": {}
}