{
  "_format": "hh-sol-artifact-1",
  "contractName": "Allowed",
  "sourceName": "contracts/Allowed.sol",
  "abi": [
    {
      "anonymous": false,
      "inputs": [
        {
          "indexed": true,
          "internalType": "address",
          "name": "previousOwner",
          "type": "address"
        },
        {
          "indexed": true,
          "internalType": "address",
          "name": "newOwner",
          "type": "address"
        }
      ],
      "name": "OwnershipTransferred",
      "type": "event"
    },
    {
      "inputs": [
        {
          "internalType": "uint256",
          "name": "",
          "type": "uint256"
        }
      ],
      "name": "allowed",
      "outputs": [
        {
          "internalType": "address",
          "name": "",
          "type": "address"
        }
      ],
      "stateMutability": "view",
      "type": "function"
    },
    {
      "inputs": [],
      "name": "owner",
      "outputs": [
        {
          "internalType": "address",
          "name": "",
          "type": "address"
        }
      ],
      "stateMutability": "view",
      "type": "function"
    },
    {
      "inputs": [],
      "name": "renounceOwnership",
      "outputs": [],
      "stateMutability": "nonpayable",
      "type": "function"
    },
    {
      "inputs": [
        {
          "internalType": "address[]",
          "name": "newAllowed",
          "type": "address[]"
        }
      ],
      "name": "setAllowed",
      "outputs": [],
      "stateMutability": "nonpayable",
      "type": "function"
    },
    {
      "inputs": [
        {
          "internalType": "address",
          "name": "newOwner",
          "type": "address"
        }
      ],
      "name": "transferOwnership",
      "outputs": [],
      "stateMutability": "nonpayable",
      "type": "function"
    }
  ],
  "bytecode": "0x608060405234801561001057600080fd5b50600080546001600160a01b031916339081178255604051909182917f8be0079c531659141344cd1fd0a4f28419497f9722a3daafe3b4186f6b6457e0908290a3506104d5806100616000396000f3fe608060405234801561001057600080fd5b50600436106100675760003560e01c80638da5cb5b116100505780638da5cb5b146100a5578063e5aa7c2e146100b6578063f2fde38b146100c957610067565b8063214296e81461006c578063715018a61461009b575b600080fd5b61007f61007a366004610487565b6100dc565b6040516001600160a01b03909116815260200160405180910390f35b6100a3610106565b005b6000546001600160a01b031661007f565b6100a36100c4366004610418565b6101bc565b6100a36100d73660046103ea565b610227565b600181815481106100ec57600080fd5b6000918252602090912001546001600160a01b0316905081565b6000546001600160a01b031633146101655760405162461bcd60e51b815260206004820181905260248201527f4f776e61626c653a2063616c6c6572206973206e6f7420746865206f776e657260448201526064015b60405180910390fd5b600080546040516001600160a01b03909116907f8be0079c531659141344cd1fd0a4f28419497f9722a3daafe3b4186f6b6457e0908390a36000805473ffffffffffffffffffffffffffffffffffffffff19169055565b6000546001600160a01b031633146102165760405162461bcd60e51b815260206004820181905260248201527f4f776e61626c653a2063616c6c6572206973206e6f7420746865206f776e6572604482015260640161015c565b61022260018383610365565b505050565b6000546001600160a01b031633146102815760405162461bcd60e51b815260206004820181905260248201527f4f776e61626c653a2063616c6c6572206973206e6f7420746865206f776e6572604482015260640161015c565b6001600160a01b0381166102fd5760405162461bcd60e51b815260206004820152602660248201527f4f776e61626c653a206e6577206f776e657220697320746865207a65726f206160448201527f6464726573730000000000000000000000000000000000000000000000000000606482015260840161015c565b600080546040516001600160a01b03808516939216917f8be0079c531659141344cd1fd0a4f28419497f9722a3daafe3b4186f6b6457e091a36000805473ffffffffffffffffffffffffffffffffffffffff19166001600160a01b0392909216919091179055565b8280548282559060005260206000209081019282156103c5579160200282015b828111156103c557815473ffffffffffffffffffffffffffffffffffffffff19166001600160a01b03843516178255602090920191600190910190610385565b506103d19291506103d5565b5090565b5b808211156103d157600081556001016103d6565b6000602082840312156103fb578081fd5b81356001600160a01b0381168114610411578182fd5b9392505050565b6000806020838503121561042a578081fd5b823567ffffffffffffffff80821115610441578283fd5b818501915085601f830112610454578283fd5b813581811115610462578384fd5b8660208083028501011115610475578384fd5b60209290920196919550909350505050565b600060208284031215610498578081fd5b503591905056fea264697066735822122089dcb60e1c9898d53f03670932d4b574598db157caba76ccf23b7decc35c222364736f6c63430008020033",
  "linkReferences": {},
  "deployedLinkReferences": {}
}